{
  "contractName": "OptionsMarket",
  "abi": [
    {
      "inputs": [
        {
          "internalType": "address",
          "name": "currency",
          "type": "address"
        }
      ],
      "stateMutability": "nonpayable",
      "type": "constructor"
    },
    {
      "anonymous": false,
      "inputs": [
        {
          "indexed": false,
          "internalType": "uint256",
          "name": "optionId",
          "type": "uint256"
        },
        {
          "indexed": true,
          "internalType": "address",
          "name": "writer",
          "type": "address"
        },
        {
          "indexed": true,
          "internalType": "address",
          "name": "exerciser",
          "type": "address"
        }
      ],
      "name": "OptionExercised",
      "type": "event"
    },
    {
      "anonymous": false,
      "inputs": [
        {
          "indexed": false,
          "internalType": "uint256",
          "name": "optionId",
          "type": "uint256"
        },
        {
          "indexed": true,
          "internalType": "address",
          "name": "writer",
          "type": "address"
        }
      ],
      "name": "OptionWritten",
      "type": "event"
    },
    {
      "anonymous": false,
      "inputs": [
        {
          "indexed": false,
          "internalType": "uint256",
          "name": "tradeId",
          "type": "uint256"
        }
      ],
      "name": "TradeCancelled",
      "type": "event"
    },
    {
      "anonymous": false,
      "inputs": [
        {
          "indexed": false,
          "internalType": "uint256",
          "name": "tradeId",
          "type": "uint256"
        },
        {
          "indexed": true,
          "internalType": "address",
          "name": "buyer",
          "type": "address"
        }
      ],
      "name": "TradeExecuted",
      "type": "event"
    },
    {
      "anonymous": false,
      "inputs": [
        {
          "indexed": false,
          "internalType": "uint256",
          "name": "tradeId",
          "type": "uint256"
        },
        {
          "indexed": true,
          "internalType": "address",
          "name": "poster",
          "type": "address"
        }
      ],
      "name": "TradeOpened",
      "type": "event"
    },
    {
      "inputs": [],
      "name": "getTradeCurrency",
      "outputs": [
        {
          "internalType": "address",
          "name": "",
          "type": "address"
        }
      ],
      "stateMutability": "view",
      "type": "function",
      "constant": true
    },
    {
      "inputs": [],
      "name": "getBaseUnitAmount",
      "outputs": [
        {
          "internalType": "uint256",
          "name": "",
          "type": "uint256"
        }
      ],
      "stateMutability": "pure",
      "type": "function",
      "constant": true
    },
    {
      "inputs": [
        {
          "internalType": "string",
          "name": "optionType",
          "type": "string"
        },
        {
          "internalType": "uint256",
          "name": "expiry",
          "type": "uint256"
        },
        {
          "internalType": "address",
          "name": "tokenAddress",
          "type": "address"
        },
        {
          "internalType": "uint256",
          "name": "strikePrice",
          "type": "uint256"
        }
      ],
      "name": "writeOption",
      "outputs": [
        {
          "internalType": "uint256",
          "name": "",
          "type": "uint256"
        }
      ],
      "stateMutability": "nonpayable",
      "type": "function"
    },
    {
      "inputs": [
        {
          "internalType": "uint256",
          "name": "_optionId",
          "type": "uint256"
        }
      ],
      "name": "getOption",
      "outputs": [
        {
          "internalType": "uint256",
          "name": "",
          "type": "uint256"
        },
        {
          "internalType": "string",
          "name": "",
          "type": "string"
        },
        {
          "internalType": "address",
          "name": "",
          "type": "address"
        },
        {
          "internalType": "address",
          "name": "",
          "type": "address"
        },
        {
          "internalType": "uint256",
          "name": "",
          "type": "uint256"
        },
        {
          "internalType": "string",
          "name": "",
          "type": "string"
        }
      ],
      "stateMutability": "view",
      "type": "function",
      "constant": true
    },
    {
      "inputs": [
        {
          "internalType": "uint256",
          "name": "_optionId",
          "type": "uint256"
        }
      ],
      "name": "getOptionOwner",
      "outputs": [
        {
          "internalType": "address",
          "name": "",
          "type": "address"
        }
      ],
      "stateMutability": "view",
      "type": "function",
      "constant": true
    },
    {
      "inputs": [
        {
          "internalType": "uint256",
          "name": "_optionId",
          "type": "uint256"
        }
      ],
      "name": "exerciseOption",
      "outputs": [],
      "stateMutability": "nonpayable",
      "type": "function"
    },
    {
      "inputs": [
        {
          "internalType": "uint256",
          "name": "_optionId",
          "type": "uint256"
        }
      ],
      "name": "collectExpired",
      "outputs": [],
      "stateMutability": "nonpayable",
      "type": "function"
    },
    {
      "inputs": [
        {
          "internalType": "uint256",
          "name": "_optionId",
          "type": "uint256"
        },
        {
          "internalType": "uint256",
          "name": "premium",
          "type": "uint256"
        }
      ],
      "name": "openTrade",
      "outputs": [
        {
          "internalType": "uint256",
          "name": "",
          "type": "uint256"
        }
      ],
      "stateMutability": "nonpayable",
      "type": "function"
    },
    {
      "inputs": [
        {
          "internalType": "uint256",
          "name": "_tradeId",
          "type": "uint256"
        }
      ],
      "name": "executeTrade",
      "outputs": [],
      "stateMutability": "nonpayable",
      "type": "function"
    },
    {
      "inputs": [
        {
          "internalType": "uint256",
          "name": "_tradeId",
          "type": "uint256"
        }
      ],
      "name": "getTrade",
      "outputs": [
        {
          "internalType": "address",
          "name": "",
          "type": "address"
        },
        {
          "internalType": "uint256",
          "name": "",
          "type": "uint256"
        },
        {
          "internalType": "uint256",
          "name": "",
          "type": "uint256"
        },
        {
          "internalType": "string",
          "name": "",
          "type": "string"
        }
      ],
      "stateMutability": "view",
      "type": "function",
      "constant": true
    },
    {
      "inputs": [
        {
          "internalType": "uint256",
          "name": "_tradeId",
          "type": "uint256"
        }
      ],
      "name": "cancelTrade",
      "outputs": [],
      "stateMutability": "nonpayable",
      "type": "function"
    }
  ],
  "bytecode": "0x60a06040523480156200001157600080fd5b50604051620035fd380380620035fd8339818101604052810190620000379190620000d8565b336000806101000a81548173ffffffffffffffffffffffffffffffffffffffff021916908373ffffffffffffffffffffffffffffffffffffffff1602179055508073ffffffffffffffffffffffffffffffffffffffff1660808173ffffffffffffffffffffffffffffffffffffffff166c0100000000000000000000000002815250505062000152565b600081519050620000d28162000138565b92915050565b600060208284031215620000eb57600080fd5b6000620000fb84828501620000c1565b91505092915050565b6000620001118262000118565b9050919050565b600073ffffffffffffffffffffffffffffffffffffffff82169050919050565b620001438162000104565b81146200014f57600080fd5b50565b6080516c010000000000000000000000009004613455620001a86000396000818161052b015281816105fb015281816111cd0152818161166e01528181611b84015281816121ef015261243e01526134556000f3fe608060405234801561001057600080fd5b50600436106100c6576000357c0100000000000000000000000000000000000000000000000000000000900480637f03e1ab1161008e5780637f03e1ab1461019b57806381495953146101b9578063b7b4ea04146101e9578063c727010d14610205578063f52f252614610235578063fe7e30b414610251576100c6565b806302d2838b146100cb57806309ec6cc7146100e75780630c493fba146101035780631ce5e9a6146101335780632db25e0514610168575b600080fd5b6100e560048036038101906100e0919061281f565b61026f565b005b61010160048036038101906100fc919061281f565b610799565b005b61011d60048036038101906101189190612848565b610a9d565b60405161012a9190613080565b60405180910390f35b61014d6004803603810190610148919061281f565b610e3b565b60405161015f9695949392919061309b565b60405180910390f35b610182600480360381019061017d919061281f565b611080565b6040516101929493929190612e74565b60405180910390f35b6101a36111c9565b6040516101b09190612df9565b60405180910390f35b6101d360048036038101906101ce919061281f565b6111f1565b6040516101e09190612df9565b60405180910390f35b61020360048036038101906101fe919061281f565b61122e565b005b61021f600480360381019061021a919061279f565b6117ad565b60405161022c9190613080565b60405180910390f35b61024f600480360381019061024a919061281f565b611e35565b005b6102596125e6565b6040516102669190613080565b60405180910390f35b6000600560008381526020019081526020016000206040518060800160405290816000820160009054906101000a900473ffffffffffffffffffffffffffffffffffffffff1673ffffffffffffffffffffffffffffffffffffffff1673ffffffffffffffffffffffffffffffffffffffff1681526020016001820154815260200160028201548152602001600382018054610309906132c1565b80601f0160208091040260200160405190810160405280929190818152602001828054610335906132c1565b80156103825780601f1061035757610100808354040283529160200191610382565b820191906000526020600020905b81548152906001019060200180831161036557829003601f168201915b50505050508152505090506103d081606001516040518060400160405280600481526020017f6f70656e000000000000000000000000000000000000000000000000000000008152506125f1565b61040f576040517f08c379a000000000000000000000000000000000000000000000000000000000815260040161040690613040565b60405180910390fd5b806000015173ffffffffffffffffffffffffffffffffffffffff163373ffffffffffffffffffffffffffffffffffffffff161415610482576040517f08c379a000000000000000000000000000000000000000000000000000000000815260040161047990612f80565b60405180910390fd5b33600360008360200151815260200190815260200160002060006101000a81548173ffffffffffffffffffffffffffffffffffffffff021916908373ffffffffffffffffffffffffffffffffffffffff1602179055506000606460036298968084604001516104f191906131b8565b6104fb91906131b8565b6105059190613187565b905060008162989680846040015161051d91906131b8565b6105279190613212565b90507f000000000000000000000000000000000000000000000000000000000000000073ffffffffffffffffffffffffffffffffffffffff166323b872dd338560000151846040518463ffffffff167c01000000000000000000000000000000000000000000000000000000000281526004016105a693929190612e14565b602060405180830381600087803b1580156105c057600080fd5b505af11580156105d4573d6000803e3d6000fd5b505050506040513d601f19601f820116820180604052508101906105f89190612776565b507f000000000000000000000000000000000000000000000000000000000000000073ffffffffffffffffffffffffffffffffffffffff166323b872dd3360008054906101000a900473ffffffffffffffffffffffffffffffffffffffff16856040518463ffffffff167c010000000000000000000000000000000000000000000000000000000002815260040161069293929190612e14565b602060405180830381600087803b1580156106ac57600080fd5b505af11580156106c0573d6000803e3d6000fd5b505050506040513d601f19601f820116820180604052508101906106e49190612776565b506040518060400160405280600681526020017f636c6f736564000000000000000000000000000000000000000000000000000081525060056000868152602001908152602001600020600301908051906020019061074492919061264a565b503373ffffffffffffffffffffffffffffffffffffffff167f2f999a7ea97ae4d5b2ee9cc0c93865dc0eeff8748b89107bda512070e182276b8560405161078b9190613080565b60405180910390a250505050565b6000600560008381526020019081526020016000206040518060800160405290816000820160009054906101000a900473ffffffffffffffffffffffffffffffffffffffff1673ffffffffffffffffffffffffffffffffffffffff1673ffffffffffffffffffffffffffffffffffffffff1681526020016001820154815260200160028201548152602001600382018054610833906132c1565b80601f016020809104026020016040519081016040528092919081815260200182805461085f906132c1565b80156108ac5780601f10610881576101008083540402835291602001916108ac565b820191906000526020600020905b81548152906001019060200180831161088f57829003601f168201915b50505050508152505090503373ffffffffffffffffffffffffffffffffffffffff16816000015173ffffffffffffffffffffffffffffffffffffffff1614610929576040517f08c379a000000000000000000000000000000000000000000000000000000000815260040161092090613020565b60405180910390fd5b61096c81606001516040518060400160405280600681526020017f636c6f73656400000000000000000000000000000000000000000000000000008152506125f1565b156109ac576040517f08c379a00000000000000000000000000000000000000000000000000000000081526004016109a390612ec0565b60405180910390fd5b33600360008360200151815260200190815260200160002060006101000a81548173ffffffffffffffffffffffffffffffffffffffff021916908373ffffffffffffffffffffffffffffffffffffffff1602179055506040518060400160405280600981526020017f63616e63656c6c65640000000000000000000000000000000000000000000000815250600560008481526020019081526020016000206003019080519060200190610a6192919061264a565b507f4e02dcf02d8510f6c8a6878a3c54ae6e2bfbf552df29221d7a1eed173a6b1ae782604051610a919190613080565b60405180910390a15050565b60003373ffffffffffffffffffffffffffffffffffffffff166003600085815260200190815260200160002060009054906101000a900473ffffffffffffffffffffffffffffffffffffffff1673ffffffffffffffffffffffffffffffffffffffff1614610b40576040517f08c379a0000000000000000000000000000000000000000000000000000000008152600401610b3790613000565b60405180910390fd5b610c1d600260008581526020019081526020016000206001018054610b64906132c1565b80601f0160208091040260200160405190810160405280929190818152602001828054610b90906132c1565b8015610bdd5780601f10610bb257610100808354040283529160200191610bdd565b820191906000526020600020905b815481529060010190602001808311610bc057829003601f168201915b50505050506040518060400160405280600481526020017f6e6f6e65000000000000000000000000000000000000000000000000000000008152506125f1565b610c5c576040517f08c379a0000000000000000000000000000000000000000000000000000000008152600401610c5390612fa0565b60405180910390fd5b600060405180608001604052803373ffffffffffffffffffffffffffffffffffffffff1681526020018581526020018481526020016040518060400160405280600481526020017f6f70656e0000000000000000000000000000000000000000000000000000000081525081525090508060056000600454815260200190815260200160002060008201518160000160006101000a81548173ffffffffffffffffffffffffffffffffffffffff021916908373ffffffffffffffffffffffffffffffffffffffff16021790555060208201518160010155604082015181600201556060820151816003019080519060200190610d5992919061264a565b5090505060046000815480929190610d70906132f3565b9190505550306003600086815260200190815260200160002060006101000a81548173ffffffffffffffffffffffffffffffffffffffff021916908373ffffffffffffffffffffffffffffffffffffffff1602179055503373ffffffffffffffffffffffffffffffffffffffff167f07bfee712f55f28cac8ac1eaaf90b2d2086d6b07488f352f2bf38d4a0dcf520c6001600454610e0e9190613212565b604051610e1b9190613080565b60405180910390a26001600454610e329190613212565b91505092915050565b60006060600080600060606000600260008981526020019081526020016000206040518060c001604052908160008201548152602001600182018054610e80906132c1565b80601f0160208091040260200160405190810160405280929190818152602001828054610eac906132c1565b8015610ef95780601f10610ece57610100808354040283529160200191610ef9565b820191906000526020600020905b815481529060010190602001808311610edc57829003601f168201915b505050505081526020016002820160009054906101000a900473ffffffffffffffffffffffffffffffffffffffff1673ffffffffffffffffffffffffffffffffffffffff1673ffffffffffffffffffffffffffffffffffffffff1681526020016003820160009054906101000a900473ffffffffffffffffffffffffffffffffffffffff1673ffffffffffffffffffffffffffffffffffffffff1673ffffffffffffffffffffffffffffffffffffffff16815260200160048201548152602001600582018054610fc8906132c1565b80601f0160208091040260200160405190810160405280929190818152602001828054610ff4906132c1565b80156110415780601f1061101657610100808354040283529160200191611041565b820191906000526020600020905b81548152906001019060200180831161102457829003601f168201915b5050505050815250509050806000015181602001518260400151836060015184608001518560a001519650965096509650965096505091939550919395565b600080600060606000600560008781526020019081526020016000206040518060800160405290816000820160009054906101000a900473ffffffffffffffffffffffffffffffffffffffff1673ffffffffffffffffffffffffffffffffffffffff1673ffffffffffffffffffffffffffffffffffffffff1681526020016001820154815260200160028201548152602001600382018054611121906132c1565b80601f016020809104026020016040519081016040528092919081815260200182805461114d906132c1565b801561119a5780601f1061116f5761010080835404028352916020019161119a565b820191906000526020600020905b81548152906001019060200180831161117d57829003601f168201915b505050505081525050905080600001518160200151826040015183606001519450945094509450509193509193565b60007f0000000000000000000000000000000000000000000000000000000000000000905090565b60006003600083815260200190815260200160002060009054906101000a900473ffffffffffffffffffffffffffffffffffffffff169050919050565b6000600260008381526020019081526020016000206040518060c001604052908160008201548152602001600182018054611268906132c1565b80601f0160208091040260200160405190810160405280929190818152602001828054611294906132c1565b80156112e15780601f106112b6576101008083540402835291602001916112e1565b820191906000526020600020905b8154815290600101906020018083116112c457829003601f168201915b505050505081526020016002820160009054906101000a900473ffffffffffffffffffffffffffffffffffffffff1673ffffffffffffffffffffffffffffffffffffffff1673ffffffffffffffffffffffffffffffffffffffff1681526020016003820160009054906101000a900473ffffffffffffffffffffffffffffffffffffffff1673ffffffffffffffffffffffffffffffffffffffff1673ffffffffffffffffffffffffffffffffffffffff168152602001600482015481526020016005820180546113b0906132c1565b80601f01602080910402602001604051908101604052809291908181526020018280546113dc906132c1565b80156114295780601f106113fe57610100808354040283529160200191611429565b820191906000526020600020905b81548152906001019060200180831161140c57829003601f168201915b50505050508152505090504281600001511061147a576040517f08c379a000000000000000000000000000000000000000000000000000000000815260040161147190612f00565b60405180910390fd5b6114bd81602001516040518060400160405280600481526020017f6e6f6e65000000000000000000000000000000000000000000000000000000008152506125f1565b6114fc576040517f08c379a00000000000000000000000000000000000000000000000000000000081526004016114f390612fc0565b60405180910390fd5b3373ffffffffffffffffffffffffffffffffffffffff16816040015173ffffffffffffffffffffffffffffffffffffffff161461156e576040517f08c379a000000000000000000000000000000000000000000000000000000000815260040161156590612f60565b60405180910390fd5b6115b18160a001516040518060400160405280600481526020017f63616c6c000000000000000000000000000000000000000000000000000000008152506125f1565b1561166c57806060015173ffffffffffffffffffffffffffffffffffffffff1663a9059cbb33629896806040518363ffffffff167c0100000000000000000000000000000000000000000000000000000000028152600401611614929190612e4b565b602060405180830381600087803b15801561162e57600080fd5b505af1158015611642573d6000803e3d6000fd5b505050506040513d601f19601f820116820180604052508101906116669190612776565b50611749565b7f000000000000000000000000000000000000000000000000000000000000000073ffffffffffffffffffffffffffffffffffffffff1663a9059cbb336298968084608001516116bc91906131b8565b6040518363ffffffff167c01000000000000000000000000000000000000000000000000000000000281526004016116f5929190612e4b565b602060405180830381600087803b15801561170f57600080fd5b505af1158015611723573d6000803e3d6000fd5b505050506040513d601f19601f820116820180604052508101906117479190612776565b505b6040518060400160405280600981526020017f636f6c6c656374656400000000000000000000000000000000000000000000008152506002600084815260200190815260200160002060010190805190602001906117a892919061264a565b505050565b60008062093a80856117bf9190613187565b905060006206978062093a80836117d691906131b8565b6117e09190613131565b905061186588888080601f016020809104026020016040519081016040528093929190818152602001838380828437600081840152601f19601f820116905080830192505050505050506040518060400160405280600481526020017f63616c6c000000000000000000000000000000000000000000000000000000008152506125f1565b806118ef57506118ee88888080601f016020809104026020016040519081016040528093929190818152602001838380828437600081840152601f19601f820116905080830192505050505050506040518060400160405280600381526020017f70757400000000000000000000000000000000000000000000000000000000008152506125f1565b5b61192e576040517f08c379a000000000000000000000000000000000000000000000000000000000815260040161192590612ee0565b60405180910390fd5b428111611970576040517f08c379a000000000000000000000000000000000000000000000000000000000815260040161196790612fe0565b60405180910390fd5b60006040518060c001604052808381526020016040518060400160405280600481526020017f6e6f6e650000000000000000000000000000000000000000000000000000000081525081526020013373ffffffffffffffffffffffffffffffffffffffff1681526020018773ffffffffffffffffffffffffffffffffffffffff1681526020018681526020018a8a8080601f016020809104026020016040519081016040528093929190818152602001838380828437600081840152601f19601f820116905080830192505050505050508152509050611ac989898080601f016020809104026020016040519081016040528093929190818152602001838380828437600081840152601f19601f820116905080830192505050505050506040518060400160405280600481526020017f63616c6c000000000000000000000000000000000000000000000000000000008152506125f1565b15611b82578573ffffffffffffffffffffffffffffffffffffffff166323b872dd3330629896806040518463ffffffff167c0100000000000000000000000000000000000000000000000000000000028152600401611b2a93929190612e14565b602060405180830381600087803b158015611b4457600080fd5b505af1158015611b58573d6000803e3d6000fd5b505050506040513d601f19601f82011682018060405250810190611b7c9190612776565b50611c5d565b7f000000000000000000000000000000000000000000000000000000000000000073ffffffffffffffffffffffffffffffffffffffff166323b872dd33306298968089611bcf91906131b8565b6040518463ffffffff167c0100000000000000000000000000000000000000000000000000000000028152600401611c0993929190612e14565b602060405180830381600087803b158015611c2357600080fd5b505af1158015611c37573d6000803e3d6000fd5b505050506040513d601f19601f82011682018060405250810190611c5b9190612776565b505b80600260006001548152602001908152602001600020600082015181600001556020820151816001019080519060200190611c9992919061264a565b5060408201518160020160006101000a81548173ffffffffffffffffffffffffffffffffffffffff021916908373ffffffffffffffffffffffffffffffffffffffff16021790555060608201518160030160006101000a81548173ffffffffffffffffffffffffffffffffffffffff021916908373ffffffffffffffffffffffffffffffffffffffff1602179055506080820151816004015560a0820151816005019080519060200190611d4e92919061264a565b509050503360036000600154815260200190815260200160002060006101000a81548173ffffffffffffffffffffffffffffffffffffffff021916908373ffffffffffffffffffffffffffffffffffffffff16021790555060016000815480929190611db9906132f3565b91905055503373ffffffffffffffffffffffffffffffffffffffff167f606b674c20bbe962b8ce1f7a665429824aed04ed5bf026fd882fd679373a73f160018054611e049190613212565b604051611e119190613080565b60405180910390a260018054611e279190613212565b935050505095945050505050565b6000600260008381526020019081526020016000206040518060c001604052908160008201548152602001600182018054611e6f906132c1565b80601f0160208091040260200160405190810160405280929190818152602001828054611e9b906132c1565b8015611ee85780601f10611ebd57610100808354040283529160200191611ee8565b820191906000526020600020905b815481529060010190602001808311611ecb57829003601f168201915b505050505081526020016002820160009054906101000a900473ffffffffffffffffffffffffffffffffffffffff1673ffffffffffffffffffffffffffffffffffffffff1673ffffffffffffffffffffffffffffffffffffffff1681526020016003820160009054906101000a900473ffffffffffffffffffffffffffffffffffffffff1673ffffffffffffffffffffffffffffffffffffffff1673ffffffffffffffffffffffffffffffffffffffff16815260200160048201548152602001600582018054611fb7906132c1565b80601f0160208091040260200160405190810160405280929190818152602001828054611fe3906132c1565b80156120305780601f1061200557610100808354040283529160200191612030565b820191906000526020600020905b81548152906001019060200180831161201357829003601f168201915b50505050508152505090504281600001511015612082576040517f08c379a000000000000000000000000000000000000000000000000000000000815260040161207990612f20565b60405180910390fd5b6120c581602001516040518060400160405280600481526020017f6e6f6e65000000000000000000000000000000000000000000000000000000008152506125f1565b612104576040517f08c379a00000000000000000000000000000000000000000000000000000000081526004016120fb90613060565b60405180910390fd5b3373ffffffffffffffffffffffffffffffffffffffff166003600084815260200190815260200160002060009054906101000a900473ffffffffffffffffffffffffffffffffffffffff1673ffffffffffffffffffffffffffffffffffffffff16146121a5576040517f08c379a000000000000000000000000000000000000000000000000000000000815260040161219c90612f40565b60405180910390fd5b6121e88160a001516040518060400160405280600481526020017f63616c6c000000000000000000000000000000000000000000000000000000008152506125f1565b15612385577f000000000000000000000000000000000000000000000000000000000000000073ffffffffffffffffffffffffffffffffffffffff166323b872dd33836040015162989680856080015161224291906131b8565b6040518463ffffffff167c010000000000000000000000000000000000000000000000000000000002815260040161227c93929190612e14565b602060405180830381600087803b15801561229657600080fd5b505af11580156122aa573d6000803e3d6000fd5b505050506040513d601f19601f820116820180604052508101906122ce9190612776565b50806060015173ffffffffffffffffffffffffffffffffffffffff1663a9059cbb33629896806040518363ffffffff167c010000000000000000000000000000000000000000000000000000000002815260040161232d929190612e4b565b602060405180830381600087803b15801561234757600080fd5b505af115801561235b573d6000803e3d6000fd5b505050506040513d601f19601f8201168201806040525081019061237f9190612776565b50612519565b806060015173ffffffffffffffffffffffffffffffffffffffff166323b872dd338360400151629896806040518463ffffffff167c01000000000000000000000000000000000000000000000000000000000281526004016123e993929190612e14565b602060405180830381600087803b15801561240357600080fd5b505af1158015612417573d6000803e3d6000fd5b505050506040513d601f19601f8201168201806040525081019061243b9190612776565b507f000000000000000000000000000000000000000000000000000000000000000073ffffffffffffffffffffffffffffffffffffffff1663a9059cbb3362989680846080015161248c91906131b8565b6040518363ffffffff167c01000000000000000000000000000000000000000000000000000000000281526004016124c5929190612e4b565b602060405180830381600087803b1580156124df57600080fd5b505af11580156124f3573d6000803e3d6000fd5b505050506040513d601f19601f820116820180604052508101906125179190612776565b505b6040518060400160405280600981526020017f657865726369736564000000000000000000000000000000000000000000000081525060026000848152602001908152602001600020600101908051906020019061257892919061264a565b503373ffffffffffffffffffffffffffffffffffffffff16816040015173ffffffffffffffffffffffffffffffffffffffff167fbe38b3704166f0e904f93963eae13ca02ec939a255af46a3340dcdfeb2ee2899846040516125da9190613080565b60405180910390a35050565b600062989680905090565b6000816040516020016126049190612de2565b604051602081830303815290604052805190602001208360405160200161262b9190612de2565b6040516020818303038152906040528051906020012014905092915050565b828054612656906132c1565b90600052602060002090601f01602090048101928261267857600085556126bf565b82601f1061269157805160ff19168380011785556126bf565b828001600101855582156126bf579182015b828111156126be5782518255916020019190600101906126a3565b5b5090506126cc91906126d0565b5090565b5b808211156126e95760008160009055506001016126d1565b5090565b6000813590506126fc816133da565b92915050565b600081519050612711816133f1565b92915050565b60008083601f84011261272957600080fd5b8235905067ffffffffffffffff81111561274257600080fd5b60208301915083600182028301111561275a57600080fd5b9250929050565b60008135905061277081613408565b92915050565b60006020828403121561278857600080fd5b600061279684828501612702565b91505092915050565b6000806000806000608086880312156127b757600080fd5b600086013567ffffffffffffffff8111156127d157600080fd5b6127dd88828901612717565b955095505060206127f088828901612761565b9350506040612801888289016126ed565b925050606061281288828901612761565b9150509295509295909350565b60006020828403121561283157600080fd5b600061283f84828501612761565b91505092915050565b6000806040838503121561285b57600080fd5b600061286985828601612761565b925050602061287a85828601612761565b9150509250929050565b61288d81613246565b82525050565b600061289e8261310a565b6128a88185613115565b93506128b881856020860161328e565b6128c1816133c9565b840191505092915050565b60006128d78261310a565b6128e18185613126565b93506128f181856020860161328e565b80840191505092915050565b600061290a601d83613115565b91507f54726164652068617320616c7265616479206265656e20636c6f7365640000006000830152602082019050919050565b600061294a602783613115565b91507f4f7074696f6e2074797065206d6179206f6e6c79206265202763616c6c27206f60008301527f72202770757427000000000000000000000000000000000000000000000000006020830152604082019050919050565b60006129b0601a83613115565b91507f4f7074696f6e20686173206e6f742065787069726564207965740000000000006000830152602082019050919050565b60006129f0601283613115565b91507f4f7074696f6e20686173206578706972656400000000000000000000000000006000830152602082019050919050565b6000612a30602c83613115565b91507f4f6e6c7920746865206f776e6572206f6620746865206f7074696f6e206d617960008301527f20657865726369736520697400000000000000000000000000000000000000006020830152604082019050919050565b6000612a96602d83613115565b91507f4f6e6c792074686520777269746572206d617920636f6c6c65637420616e206560008301527f787069726564206f7074696f6e000000000000000000000000000000000000006020830152604082019050919050565b6000612afc604783613115565b91507f547261646520706f73746572206d6179206e6f7420657865637574652074686560008301527f6972206f776e2074726164652c20757365202763616e63656c5472616465272060208301527f696e7374656164000000000000000000000000000000000000000000000000006040830152606082019050919050565b6000612b88601983613115565b91507f43616e6e6f74206c69737420612075736564206f7074696f6e000000000000006000830152602082019050919050565b6000612bc8602e83613115565b91507f4f7074696f6e2068617320616c7265616479206265656e20657865726369736560008301527f64206f7220636f6c6c65637465640000000000000000000000000000000000006020830152604082019050919050565b6000612c2e601c83613115565b91507f457870697279206d75737420626520696e2074686520667574757265000000006000830152602082019050919050565b6000612c6e603483613115565b91507f4f6e6c7920746865206f776e6572206f6620746865206f7074696f6e206d617960008301527f206f70656e206120747261646520666f722069740000000000000000000000006020830152604082019050919050565b6000612cd4602283613115565b91507f4f6e6c792074686520706f73746572206d61792063616e63656c20612074726160008301527f64650000000000000000000000000000000000000000000000000000000000006020830152604082019050919050565b6000612d3a602083613115565b91507f4f6e6c79206f70656e20747261646573206d61792062652065786563757465646000830152602082019050919050565b6000612d7a602183613115565b91507f4f7074696f6e2068617320616c7265616479206265656e20657865726369736560008301527f64000000000000000000000000000000000000000000000000000000000000006020830152604082019050919050565b612ddc81613284565b82525050565b6000612dee82846128cc565b915081905092915050565b6000602082019050612e0e6000830184612884565b92915050565b6000606082019050612e296000830186612884565b612e366020830185612884565b612e436040830184612dd3565b949350505050565b6000604082019050612e606000830185612884565b612e6d6020830184612dd3565b9392505050565b6000608082019050612e896000830187612884565b612e966020830186612dd3565b612ea36040830185612dd3565b8181036060830152612eb58184612893565b905095945050505050565b60006020820190508181036000830152612ed9816128fd565b9050919050565b60006020820190508181036000830152612ef98161293d565b9050919050565b60006020820190508181036000830152612f19816129a3565b9050919050565b60006020820190508181036000830152612f39816129e3565b9050919050565b60006020820190508181036000830152612f5981612a23565b9050919050565b60006020820190508181036000830152612f7981612a89565b9050919050565b60006020820190508181036000830152612f9981612aef565b9050919050565b60006020820190508181036000830152612fb981612b7b565b9050919050565b60006020820190508181036000830152612fd981612bbb565b9050919050565b60006020820190508181036000830152612ff981612c21565b9050919050565b6000602082019050818103600083015261301981612c61565b9050919050565b6000602082019050818103600083015261303981612cc7565b9050919050565b6000602082019050818103600083015261305981612d2d565b9050919050565b6000602082019050818103600083015261307981612d6d565b9050919050565b60006020820190506130956000830184612dd3565b92915050565b600060c0820190506130b06000830189612dd3565b81810360208301526130c28188612893565b90506130d16040830187612884565b6130de6060830186612884565b6130eb6080830185612dd3565b81810360a08301526130fd8184612893565b9050979650505050505050565b600081519050919050565b600082825260208201905092915050565b600081905092915050565b600061313c82613284565b915061314783613284565b9250827fffffffffffffffffffffffffffffffffffffffffffffffffffffffffffffffff0382111561317c5761317b61333c565b5b828201905092915050565b600061319282613284565b915061319d83613284565b9250826131ad576131ac61336b565b5b828204905092915050565b60006131c382613284565b91506131ce83613284565b9250817fffffffffffffffffffffffffffffffffffffffffffffffffffffffffffffffff04831182151516156132075761320661333c565b5b828202905092915050565b600061321d82613284565b915061322883613284565b92508282101561323b5761323a61333c565b5b828203905092915050565b600061325182613264565b9050919050565b60008115159050919050565b600073ffffffffffffffffffffffffffffffffffffffff82169050919050565b6000819050919050565b60005b838110156132ac578082015181840152602081019050613291565b838111156132bb576000848401525b50505050565b600060028204905060018216806132d957607f821691505b602082108114156132ed576132ec61339a565b5b50919050565b60006132fe82613284565b91507fffffffffffffffffffffffffffffffffffffffffffffffffffffffffffffffff8214156133315761333061333c565b5b600182019050919050565b7f4e487b7100000000000000000000000000000000000000000000000000000000600052601160045260246000fd5b7f4e487b7100000000000000000000000000000000000000000000000000000000600052601260045260246000fd5b7f4e487b7100000000000000000000000000000000000000000000000000000000600052602260045260246000fd5b6000601f19601f8301169050919050565b6133e381613246565b81146133ee57600080fd5b50565b6133fa81613258565b811461340557600080fd5b50565b61341181613284565b811461341c57600080fd5b5056fea2646970667358221220e66a5a2dc53b00382230bde19c1fb38ee976d23ab710aa30b10f844f720cc51264736f6c63430008000033",
  "immutableReferences": {
    "127": [
      {
        "length": 32,
        "start": 1323
      },
      {
        "length": 32,
        "start": 1531
      },
      {
        "length": 32,
        "start": 4557
      },
      {
        "length": 32,
        "start": 5742
      },
      {
        "length": 32,
        "start": 7044
      },
      {
        "length": 32,
        "start": 8687
      },
      {
        "length": 32,
        "start": 9278
      }
    ]
  },
  "source": "// SPDX-License-Identifier: GPL-3.0-only\npragma solidity ^0.8.0;\n\nimport \"@openzeppelin/contracts/token/ERC20/IERC20.sol\";\n\ncontract OptionsMarket {\n    // Admin access\n    address private owner;\n\n    // Option data\n    struct Option {\n        uint256 expiry;\n        string status; // none, exercised, collected\n        address writer;\n        address tokenAddress;\n        uint256 strikePrice;\n        string optionType; // call, put\n    }\n\n    uint256 private constant BASE_UNIT_AMOUNT = 10e6;\n    uint256 private optionId;\n    mapping(uint256 => Option) private options;\n    mapping(uint256 => address) private optionOwners;\n\n    // Trade data\n    struct Trade {\n        address poster;\n        uint256 optionId;\n        uint256 premium;\n        string status; // open, closed, cancelled\n    }\n\n    uint256 private tradeId;\n    mapping(uint256 => Trade) private trades;\n    address private immutable tradeCurrency;\n\n    constructor(address currency) {\n        // Set the owner as the deployer of the contract and set the currency of the trades\n        owner = msg.sender;\n        tradeCurrency = currency;\n    }\n\n    // Declare events for logging data\n    event OptionWritten(uint256 optionId, address indexed writer);\n    event OptionExercised(uint256 optionId, address indexed writer, address indexed exerciser);\n    event TradeOpened(uint256 tradeId, address indexed poster);\n    event TradeExecuted(uint256 tradeId, address indexed buyer);\n    event TradeCancelled(uint256 tradeId);\n\n    // ============= Util functions =============\n\n    // Compare if two strings are equal\n    function _compareStrings(string memory a, string memory b) private pure returns (bool) {\n        return keccak256(abi.encodePacked(a)) == keccak256(abi.encodePacked(b));\n    }\n\n    // Get the trade currency of the token\n    function getTradeCurrency() external view returns (address) {\n        return tradeCurrency;\n    }\n\n    // Get the number of base units of the token traded per option\n    function getBaseUnitAmount() external pure returns (uint256) {\n        return BASE_UNIT_AMOUNT;\n    }\n\n    // ============= Option functions =============\n\n    // Allow the address to create a new option\n    function writeOption(string calldata optionType, uint256 expiry, address tokenAddress, uint256 strikePrice) external returns (uint256) {\n        // Make the expiry weekly every friday\n        uint256 expiryTemp = expiry / (86400 * 7);\n        uint256 optionExpiry = expiryTemp * (86400 * 7) + 86400 * 5;\n        \n        // Check that the option is valid\n        require(_compareStrings(optionType, \"call\") || _compareStrings(optionType, \"put\"), \"Option type may only be 'call' or 'put'\");\n        require(optionExpiry > block.timestamp, \"Expiry must be in the future\");\n\n        // Write a new option\n        Option memory option = Option({\n            expiry: optionExpiry,\n            status: \"none\",\n            writer: msg.sender,\n            tokenAddress: tokenAddress,\n            strikePrice: strikePrice,\n            optionType: optionType\n        });\n\n        // If this is a call then transfer the amount of the token to the contract,\n        // otherwise transfer the trade currency x strike price to the contract\n        if (_compareStrings(optionType, \"call\")) {\n            IERC20(tokenAddress).transferFrom(msg.sender, address(this), BASE_UNIT_AMOUNT); \n        } else {\n            IERC20(tradeCurrency).transferFrom(msg.sender, address(this), strikePrice * BASE_UNIT_AMOUNT);\n        }\n\n        // Save the option\n        options[optionId] = option;\n        optionOwners[optionId] = msg.sender;\n        optionId++;\n\n        // Emit an event and return the id of the option\n        emit OptionWritten(optionId - 1, msg.sender);\n        return optionId - 1;\n    }\n\n    // Get the data of an option\n    function getOption(uint256 _optionId) external view returns (uint256, string memory, address, address, uint256, string memory) {\n        Option memory option = options[_optionId];\n        return (option.expiry, option.status, option.writer, option.tokenAddress, option.strikePrice, option.optionType);\n    }\n\n    // Get the owner of an option\n    function getOptionOwner(uint256 _optionId) external view returns (address) {\n        return optionOwners[_optionId];\n    }\n\n    // Allow a option holder to exercise their option\n    function exerciseOption(uint256 _optionId) external {\n        // Get the data of the option\n        Option memory option = options[_optionId];\n\n        // Check that the option may be exercised\n        require(option.expiry >= block.timestamp, \"Option has expired\");\n        require(_compareStrings(option.status, \"none\"), \"Option has already been exercised\");\n        require(optionOwners[_optionId] == msg.sender, \"Only the owner of the option may exercise it\");\n\n        // If the option is a call, then charge the strike price x num tokens to receive the tokens,\n        // else if the option is a put, transfer their tokens\n        if (_compareStrings(option.optionType, \"call\")) {\n            IERC20(tradeCurrency).transferFrom(msg.sender, option.writer, option.strikePrice * BASE_UNIT_AMOUNT);\n            IERC20(option.tokenAddress).transfer(msg.sender, BASE_UNIT_AMOUNT);\n        } else {\n            IERC20(option.tokenAddress).transferFrom(msg.sender, option.writer, BASE_UNIT_AMOUNT);\n            IERC20(tradeCurrency).transfer(msg.sender, option.strikePrice * BASE_UNIT_AMOUNT);\n        }\n\n        // Update the status of the option and emit event\n        options[_optionId].status = \"exercised\";\n        emit OptionExercised(_optionId, option.writer, msg.sender);\n    }\n\n    // Allow a writer to collect an expired contract\n    function collectExpired(uint256 _optionId) external {\n        // Get the data of the option\n        Option memory option = options[_optionId];\n\n        // Check that the option may be collected\n        require(option.expiry < block.timestamp, \"Option has not expired yet\");\n        require(_compareStrings(option.status, \"none\"), \"Option has already been exercised or collected\");\n        require(option.writer == msg.sender, \"Only the writer may collect an expired option\");\n\n        // If the option is a call then transfer the tokens back to the writer,\n        // otherwise transfer the strike price x num tokens back to the writer\n        if (_compareStrings(option.optionType, \"call\")) {\n            IERC20(option.tokenAddress).transfer(msg.sender, BASE_UNIT_AMOUNT);\n        } else {\n            IERC20(tradeCurrency).transfer(msg.sender, option.strikePrice * BASE_UNIT_AMOUNT);\n        }\n\n        // Update the status of the option\n        options[_optionId].status = \"collected\";\n    }\n\n    // ============= Marketplace functions =============\n\n    // Open a new trade for selling an option\n    function openTrade(uint256 _optionId, uint256 premium) external returns (uint256) {\n        // Check that the trade may be opened\n        require(optionOwners[_optionId] == msg.sender, \"Only the owner of the option may open a trade for it\");\n        require(_compareStrings(options[_optionId].status, \"none\"), \"Cannot list a used option\");\n\n        // Create a new trade\n        Trade memory trade = Trade({\n            poster: msg.sender,\n            optionId: _optionId,\n            premium: premium,\n            status: \"open\"\n        });\n\n        // Store the new trade\n        trades[tradeId] = trade;\n        tradeId++;\n\n        // Transfer the option to the contract\n        optionOwners[_optionId] = address(this);\n\n        // Emit an event and return the trade id\n        emit TradeOpened(tradeId - 1, msg.sender);\n        return tradeId - 1;\n    }\n\n    // Execute a trade for buying an option\n    function executeTrade(uint256 _tradeId) external {\n        // Get the trade\n        Trade memory trade = trades[_tradeId];\n\n        // Verify that the trade may be executed\n        require(_compareStrings(trade.status, \"open\"), \"Only open trades may be executed\");\n        require(msg.sender != trade.poster, \"Trade poster may not execute their own trade, use 'cancelTrade' instead\");\n\n        // Transfer the option\n        optionOwners[trade.optionId] = msg.sender;\n\n        // Charge the recipient and pay a fee to the owner\n        uint256 fee = trade.premium * BASE_UNIT_AMOUNT * 3 / 100; \n        uint256 payout = trade.premium * BASE_UNIT_AMOUNT - fee;\n        IERC20(tradeCurrency).transferFrom(msg.sender, trade.poster, payout);\n        IERC20(tradeCurrency).transferFrom(msg.sender, owner, fee);\n\n        // Update the status of the trade\n        trades[_tradeId].status = \"closed\";\n\n        // Emit an event\n        emit TradeExecuted(_tradeId, msg.sender);\n    }\n\n    // View a trade\n    function getTrade(uint256 _tradeId) external view returns (address, uint256, uint256, string memory) {\n        Trade memory trade = trades[_tradeId];\n        return (trade.poster, trade.optionId, trade.premium, trade.status);\n    }\n\n    // Cancel a trade\n    function cancelTrade(uint256 _tradeId) external {\n        // Get the trade\n        Trade memory trade = trades[_tradeId];\n\n        // Check that the trade may be cancelled\n        require(trade.poster == msg.sender, \"Only the poster may cancel a trade\");\n        require(!_compareStrings(trade.status, \"closed\"), \"Trade has already been closed\");\n\n        // Transfer the option back to the poster\n        optionOwners[trade.optionId] = msg.sender;\n\n        // Set status to cancelled\n        trades[_tradeId].status = \"cancelled\";\n\n        // Emit an event\n        emit TradeCancelled(_tradeId);\n    }\n}",
  "sourcePath": "/home/ben/Code/Crypto-Options/src/dapp/contracts/OptionsMarket.sol",
  "compiler": {
    "name": "solc",
    "version": "0.8.0+commit.c7dfd78e.Emscripten.clang"
  },
  "schemaVersion": "3.4.3",
  "updatedAt": "2021-09-28T21:38:55.691Z",
  "networkType": "ethereum",
  "devdoc": {
    "kind": "dev",
    "methods": {},
    "version": 1
  },
  "userdoc": {
    "kind": "user",
    "methods": {},
    "version": 1
  }
}