{
  "contractName": "OptionsMarket",
  "abi": [
    {
      "inputs": [
        {
          "internalType": "address",
          "name": "currency",
          "type": "address"
        }
      ],
      "stateMutability": "nonpayable",
      "type": "constructor"
    },
    {
      "anonymous": false,
      "inputs": [
        {
          "indexed": false,
          "internalType": "uint256",
          "name": "optionId",
          "type": "uint256"
        },
        {
          "indexed": true,
          "internalType": "address",
          "name": "writer",
          "type": "address"
        },
        {
          "indexed": true,
          "internalType": "address",
          "name": "exerciser",
          "type": "address"
        }
      ],
      "name": "OptionExercised",
      "type": "event"
    },
    {
      "anonymous": false,
      "inputs": [
        {
          "indexed": false,
          "internalType": "uint256",
          "name": "optionId",
          "type": "uint256"
        },
        {
          "indexed": true,
          "internalType": "address",
          "name": "writer",
          "type": "address"
        }
      ],
      "name": "OptionWritten",
      "type": "event"
    },
    {
      "anonymous": false,
      "inputs": [
        {
          "indexed": false,
          "internalType": "uint256",
          "name": "tradeId",
          "type": "uint256"
        }
      ],
      "name": "TradeCancelled",
      "type": "event"
    },
    {
      "anonymous": false,
      "inputs": [
        {
          "indexed": false,
          "internalType": "uint256",
          "name": "tradeId",
          "type": "uint256"
        },
        {
          "indexed": true,
          "internalType": "address",
          "name": "buyer",
          "type": "address"
        }
      ],
      "name": "TradeExecuted",
      "type": "event"
    },
    {
      "anonymous": false,
      "inputs": [
        {
          "indexed": false,
          "internalType": "uint256",
          "name": "tradeId",
          "type": "uint256"
        },
        {
          "indexed": true,
          "internalType": "address",
          "name": "poster",
          "type": "address"
        }
      ],
      "name": "TradeOpened",
      "type": "event"
    },
    {
      "inputs": [
        {
          "internalType": "bool",
          "name": "_enabled",
          "type": "bool"
        }
      ],
      "name": "ownerSetContractEnabled",
      "outputs": [],
      "stateMutability": "nonpayable",
      "type": "function"
    },
    {
      "inputs": [],
      "name": "ownerTransferOwnership",
      "outputs": [],
      "stateMutability": "nonpayable",
      "type": "function"
    },
    {
      "inputs": [],
      "name": "getTradeCurrency",
      "outputs": [
        {
          "internalType": "address",
          "name": "",
          "type": "address"
        }
      ],
      "stateMutability": "view",
      "type": "function",
      "constant": true
    },
    {
      "inputs": [],
      "name": "getTokenAmountPerUnit",
      "outputs": [
        {
          "internalType": "uint256",
          "name": "",
          "type": "uint256"
        }
      ],
      "stateMutability": "pure",
      "type": "function",
      "constant": true
    },
    {
      "inputs": [],
      "name": "getUnitsPerOption",
      "outputs": [
        {
          "internalType": "uint8",
          "name": "",
          "type": "uint8"
        }
      ],
      "stateMutability": "pure",
      "type": "function",
      "constant": true
    },
    {
      "inputs": [],
      "name": "contractEnabled",
      "outputs": [
        {
          "internalType": "bool",
          "name": "",
          "type": "bool"
        }
      ],
      "stateMutability": "view",
      "type": "function",
      "constant": true
    },
    {
      "inputs": [
        {
          "internalType": "string",
          "name": "optionType",
          "type": "string"
        },
        {
          "internalType": "uint256",
          "name": "expiry",
          "type": "uint256"
        },
        {
          "internalType": "address",
          "name": "tokenAddress",
          "type": "address"
        },
        {
          "internalType": "uint256",
          "name": "strikePrice",
          "type": "uint256"
        }
      ],
      "name": "writeOption",
      "outputs": [
        {
          "internalType": "uint256",
          "name": "",
          "type": "uint256"
        }
      ],
      "stateMutability": "nonpayable",
      "type": "function"
    },
    {
      "inputs": [
        {
          "internalType": "uint256",
          "name": "_optionId",
          "type": "uint256"
        }
      ],
      "name": "getOption",
      "outputs": [
        {
          "internalType": "uint256",
          "name": "",
          "type": "uint256"
        },
        {
          "internalType": "string",
          "name": "",
          "type": "string"
        },
        {
          "internalType": "address",
          "name": "",
          "type": "address"
        },
        {
          "internalType": "address",
          "name": "",
          "type": "address"
        },
        {
          "internalType": "uint256",
          "name": "",
          "type": "uint256"
        },
        {
          "internalType": "string",
          "name": "",
          "type": "string"
        }
      ],
      "stateMutability": "view",
      "type": "function",
      "constant": true
    },
    {
      "inputs": [
        {
          "internalType": "uint256",
          "name": "_optionId",
          "type": "uint256"
        }
      ],
      "name": "getOptionOwner",
      "outputs": [
        {
          "internalType": "address",
          "name": "",
          "type": "address"
        }
      ],
      "stateMutability": "view",
      "type": "function",
      "constant": true
    },
    {
      "inputs": [
        {
          "internalType": "uint256",
          "name": "_optionId",
          "type": "uint256"
        }
      ],
      "name": "exerciseOption",
      "outputs": [],
      "stateMutability": "nonpayable",
      "type": "function"
    },
    {
      "inputs": [
        {
          "internalType": "uint256",
          "name": "_optionId",
          "type": "uint256"
        }
      ],
      "name": "collectExpired",
      "outputs": [],
      "stateMutability": "nonpayable",
      "type": "function"
    },
    {
      "inputs": [
        {
          "internalType": "uint256",
          "name": "_optionId",
          "type": "uint256"
        },
        {
          "internalType": "uint256",
          "name": "premium",
          "type": "uint256"
        }
      ],
      "name": "openTrade",
      "outputs": [
        {
          "internalType": "uint256",
          "name": "",
          "type": "uint256"
        }
      ],
      "stateMutability": "nonpayable",
      "type": "function"
    },
    {
      "inputs": [
        {
          "internalType": "uint256",
          "name": "_tradeId",
          "type": "uint256"
        }
      ],
      "name": "executeTrade",
      "outputs": [],
      "stateMutability": "nonpayable",
      "type": "function"
    },
    {
      "inputs": [
        {
          "internalType": "uint256",
          "name": "_tradeId",
          "type": "uint256"
        }
      ],
      "name": "getTrade",
      "outputs": [
        {
          "internalType": "address",
          "name": "",
          "type": "address"
        },
        {
          "internalType": "uint256",
          "name": "",
          "type": "uint256"
        },
        {
          "internalType": "uint256",
          "name": "",
          "type": "uint256"
        },
        {
          "internalType": "string",
          "name": "",
          "type": "string"
        }
      ],
      "stateMutability": "view",
      "type": "function",
      "constant": true
    },
    {
      "inputs": [
        {
          "internalType": "uint256",
          "name": "_tradeId",
          "type": "uint256"
        }
      ],
      "name": "cancelTrade",
      "outputs": [],
      "stateMutability": "nonpayable",
      "type": "function"
    }
  ],
  "bytecode": "0x60a06040523480156200001157600080fd5b5060405162003b6338038062003b638339818101604052810190620000379190620000f3565b336000806101000a81548173ffffffffffffffffffffffffffffffffffffffff021916908373ffffffffffffffffffffffffffffffffffffffff1602179055508073ffffffffffffffffffffffffffffffffffffffff1660808173ffffffffffffffffffffffffffffffffffffffff166c0100000000000000000000000002815250506001600060146101000a81548160ff021916908315150217905550506200016d565b600081519050620000ed8162000153565b92915050565b6000602082840312156200010657600080fd5b60006200011684828501620000dc565b91505092915050565b60006200012c8262000133565b9050919050565b600073ffffffffffffffffffffffffffffffffffffffff82169050919050565b6200015e816200011f565b81146200016a57600080fd5b50565b6080516c0100000000000000000000000090046139a0620001c36000396000818161058501528181610655015281816113950152818161192a01528181611ea401528181612510015261278801526139a06000f3fe608060405234801561001057600080fd5b5060043610610112576000357c01000000000000000000000000000000000000000000000000000000009004806341b3a0d9116100b4578063ab91da7f11610083578063ab91da7f14610297578063b7b4ea04146102b5578063c727010d146102d1578063f52f25261461030157610112565b806341b3a0d9146102215780637f03e1ab1461023f578063814959531461025d578063a76345301461028d57610112565b80630df7e497116100f05780630df7e4971461017f5780631ce5e9a61461019d5780632db25e05146101d25780632e0a98331461020557610112565b806302d2838b1461011757806309ec6cc7146101335780630c493fba1461014f575b600080fd5b610131600480360381019061012c9190612b9d565b61031d565b005b61014d60048036038101906101489190612b9d565b610849565b005b61016960048036038101906101649190612bc6565b610b4d565b60405161017691906135a3565b60405180910390f35b610187610f39565b604051610194919061362d565b60405180910390f35b6101b760048036038101906101b29190612b9d565b610f42565b6040516101c9969594939291906135be565b60405180910390f35b6101ec60048036038101906101e79190612b9d565b611187565b6040516101fc949392919061331c565b60405180910390f35b61021f600480360381019061021a9190612acb565b6112d0565b005b61022961137b565b6040516102369190613368565b60405180910390f35b610247611391565b60405161025491906132a1565b60405180910390f35b61027760048036038101906102729190612b9d565b6113b9565b60405161028491906132a1565b60405180910390f35b6102956113f6565b005b61029f6114c6565b6040516102ac91906135a3565b60405180910390f35b6102cf60048036038101906102ca9190612b9d565b6114d6565b005b6102eb60048036038101906102e69190612b1d565b611a6a565b6040516102f891906135a3565b60405180910390f35b61031b60048036038101906103169190612b9d565b612156565b005b6000600560008381526020019081526020016000206040518060800160405290816000820160009054906101000a900473ffffffffffffffffffffffffffffffffffffffff1673ffffffffffffffffffffffffffffffffffffffff1673ffffffffffffffffffffffffffffffffffffffff16815260200160018201548152602001600282015481526020016003820180546103b79061380c565b80601f01602080910402602001604051908101604052809291908181526020018280546103e39061380c565b80156104305780601f1061040557610100808354040283529160200191610430565b820191906000526020600020905b81548152906001019060200180831161041357829003601f168201915b505050505081525050905061047e81606001516040518060400160405280600481526020017f6f70656e00000000000000000000000000000000000000000000000000000000815250612931565b6104bd576040517f08c379a00000000000000000000000000000000000000000000000000000000081526004016104b490613563565b60405180910390fd5b806000015173ffffffffffffffffffffffffffffffffffffffff163373ffffffffffffffffffffffffffffffffffffffff161415610530576040517f08c379a000000000000000000000000000000000000000000000000000000000815260040161052790613443565b60405180910390fd5b600060646003606460ff16846040015161054a91906136f6565b61055491906136f6565b61055e91906136c5565b9050600081606460ff16846040015161057791906136f6565b6105819190613750565b90507f000000000000000000000000000000000000000000000000000000000000000073ffffffffffffffffffffffffffffffffffffffff166323b872dd338560000151846040518463ffffffff167c0100000000000000000000000000000000000000000000000000000000028152600401610600939291906132bc565b602060405180830381600087803b15801561061a57600080fd5b505af115801561062e573d6000803e3d6000fd5b505050506040513d601f19601f820116820180604052508101906106529190612af4565b507f000000000000000000000000000000000000000000000000000000000000000073ffffffffffffffffffffffffffffffffffffffff166323b872dd3360008054906101000a900473ffffffffffffffffffffffffffffffffffffffff16856040518463ffffffff167c01000000000000000000000000000000000000000000000000000000000281526004016106ec939291906132bc565b602060405180830381600087803b15801561070657600080fd5b505af115801561071a573d6000803e3d6000fd5b505050506040513d601f19601f8201168201806040525081019061073e9190612af4565b5033600360008560200151815260200190815260200160002060006101000a81548173ffffffffffffffffffffffffffffffffffffffff021916908373ffffffffffffffffffffffffffffffffffffffff1602179055506040518060400160405280600681526020017f636c6f73656400000000000000000000000000000000000000000000000000008152506005600086815260200190815260200160002060030190805190602001906107f492919061298a565b503373ffffffffffffffffffffffffffffffffffffffff167f2f999a7ea97ae4d5b2ee9cc0c93865dc0eeff8748b89107bda512070e182276b8560405161083b91906135a3565b60405180910390a250505050565b6000600560008381526020019081526020016000206040518060800160405290816000820160009054906101000a900473ffffffffffffffffffffffffffffffffffffffff1673ffffffffffffffffffffffffffffffffffffffff1673ffffffffffffffffffffffffffffffffffffffff16815260200160018201548152602001600282015481526020016003820180546108e39061380c565b80601f016020809104026020016040519081016040528092919081815260200182805461090f9061380c565b801561095c5780601f106109315761010080835404028352916020019161095c565b820191906000526020600020905b81548152906001019060200180831161093f57829003601f168201915b50505050508152505090503373ffffffffffffffffffffffffffffffffffffffff16816000015173ffffffffffffffffffffffffffffffffffffffff16146109d9576040517f08c379a00000000000000000000000000000000000000000000000000000000081526004016109d0906134e3565b60405180910390fd5b610a1c81606001516040518060400160405280600681526020017f636c6f7365640000000000000000000000000000000000000000000000000000815250612931565b15610a5c576040517f08c379a0000000000000000000000000000000000000000000000000000000008152600401610a5390613383565b60405180910390fd5b33600360008360200151815260200190815260200160002060006101000a81548173ffffffffffffffffffffffffffffffffffffffff021916908373ffffffffffffffffffffffffffffffffffffffff1602179055506040518060400160405280600981526020017f63616e63656c6c65640000000000000000000000000000000000000000000000815250600560008481526020019081526020016000206003019080519060200190610b1192919061298a565b507f4e02dcf02d8510f6c8a6878a3c54ae6e2bfbf552df29221d7a1eed173a6b1ae782604051610b4191906135a3565b60405180910390a15050565b60008060149054906101000a900460ff16610b9d576040517f08c379a0000000000000000000000000000000000000000000000000000000008152600401610b9490613543565b60405180910390fd5b3373ffffffffffffffffffffffffffffffffffffffff166003600085815260200190815260200160002060009054906101000a900473ffffffffffffffffffffffffffffffffffffffff1673ffffffffffffffffffffffffffffffffffffffff1614610c3e576040517f08c379a0000000000000000000000000000000000000000000000000000000008152600401610c35906134c3565b60405180910390fd5b610d1b600260008581526020019081526020016000206001018054610c629061380c565b80601f0160208091040260200160405190810160405280929190818152602001828054610c8e9061380c565b8015610cdb5780601f10610cb057610100808354040283529160200191610cdb565b820191906000526020600020905b815481529060010190602001808311610cbe57829003601f168201915b50505050506040518060400160405280600481526020017f6e6f6e6500000000000000000000000000000000000000000000000000000000815250612931565b610d5a576040517f08c379a0000000000000000000000000000000000000000000000000000000008152600401610d5190613463565b60405180910390fd5b600060405180608001604052803373ffffffffffffffffffffffffffffffffffffffff1681526020018581526020018481526020016040518060400160405280600481526020017f6f70656e0000000000000000000000000000000000000000000000000000000081525081525090508060056000600454815260200190815260200160002060008201518160000160006101000a81548173ffffffffffffffffffffffffffffffffffffffff021916908373ffffffffffffffffffffffffffffffffffffffff16021790555060208201518160010155604082015181600201556060820151816003019080519060200190610e5792919061298a565b5090505060046000815480929190610e6e9061383e565b9190505550306003600086815260200190815260200160002060006101000a81548173ffffffffffffffffffffffffffffffffffffffff021916908373ffffffffffffffffffffffffffffffffffffffff1602179055503373ffffffffffffffffffffffffffffffffffffffff167f07bfee712f55f28cac8ac1eaaf90b2d2086d6b07488f352f2bf38d4a0dcf520c6001600454610f0c9190613750565b604051610f1991906135a3565b60405180910390a26001600454610f309190613750565b91505092915050565b60006064905090565b60006060600080600060606000600260008981526020019081526020016000206040518060c001604052908160008201548152602001600182018054610f879061380c565b80601f0160208091040260200160405190810160405280929190818152602001828054610fb39061380c565b80156110005780601f10610fd557610100808354040283529160200191611000565b820191906000526020600020905b815481529060010190602001808311610fe357829003601f168201915b505050505081526020016002820160009054906101000a900473ffffffffffffffffffffffffffffffffffffffff1673ffffffffffffffffffffffffffffffffffffffff1673ffffffffffffffffffffffffffffffffffffffff1681526020016003820160009054906101000a900473ffffffffffffffffffffffffffffffffffffffff1673ffffffffffffffffffffffffffffffffffffffff1673ffffffffffffffffffffffffffffffffffffffff168152602001600482015481526020016005820180546110cf9061380c565b80601f01602080910402602001604051908101604052809291908181526020018280546110fb9061380c565b80156111485780601f1061111d57610100808354040283529160200191611148565b820191906000526020600020905b81548152906001019060200180831161112b57829003601f168201915b5050505050815250509050806000015181602001518260400151836060015184608001518560a001519650965096509650965096505091939550919395565b600080600060606000600560008781526020019081526020016000206040518060800160405290816000820160009054906101000a900473ffffffffffffffffffffffffffffffffffffffff1673ffffffffffffffffffffffffffffffffffffffff1673ffffffffffffffffffffffffffffffffffffffff16815260200160018201548152602001600282015481526020016003820180546112289061380c565b80601f01602080910402602001604051908101604052809291908181526020018280546112549061380c565b80156112a15780601f10611276576101008083540402835291602001916112a1565b820191906000526020600020905b81548152906001019060200180831161128457829003601f168201915b505050505081525050905080600001518160200151826040015183606001519450945094509450509193509193565b60008054906101000a900473ffffffffffffffffffffffffffffffffffffffff1673ffffffffffffffffffffffffffffffffffffffff163373ffffffffffffffffffffffffffffffffffffffff161461135e576040517f08c379a000000000000000000000000000000000000000000000000000000000815260040161135590613503565b60405180910390fd5b80600060146101000a81548160ff02191690831515021790555050565b60008060149054906101000a900460ff16905090565b60007f0000000000000000000000000000000000000000000000000000000000000000905090565b60006003600083815260200190815260200160002060009054906101000a900473ffffffffffffffffffffffffffffffffffffffff169050919050565b60008054906101000a900473ffffffffffffffffffffffffffffffffffffffff1673ffffffffffffffffffffffffffffffffffffffff163373ffffffffffffffffffffffffffffffffffffffff1614611484576040517f08c379a000000000000000000000000000000000000000000000000000000000815260040161147b90613523565b60405180910390fd5b336000806101000a81548173ffffffffffffffffffffffffffffffffffffffff021916908373ffffffffffffffffffffffffffffffffffffffff160217905550565b6000670de0b6b3a7640000905090565b6000600260008381526020019081526020016000206040518060c0016040529081600082015481526020016001820180546115109061380c565b80601f016020809104026020016040519081016040528092919081815260200182805461153c9061380c565b80156115895780601f1061155e57610100808354040283529160200191611589565b820191906000526020600020905b81548152906001019060200180831161156c57829003601f168201915b505050505081526020016002820160009054906101000a900473ffffffffffffffffffffffffffffffffffffffff1673ffffffffffffffffffffffffffffffffffffffff1673ffffffffffffffffffffffffffffffffffffffff1681526020016003820160009054906101000a900473ffffffffffffffffffffffffffffffffffffffff1673ffffffffffffffffffffffffffffffffffffffff1673ffffffffffffffffffffffffffffffffffffffff168152602001600482015481526020016005820180546116589061380c565b80601f01602080910402602001604051908101604052809291908181526020018280546116849061380c565b80156116d15780601f106116a6576101008083540402835291602001916116d1565b820191906000526020600020905b8154815290600101906020018083116116b457829003601f168201915b505050505081525050905042816000015110611722576040517f08c379a0000000000000000000000000000000000000000000000000000000008152600401611719906133c3565b60405180910390fd5b61176581602001516040518060400160405280600481526020017f6e6f6e6500000000000000000000000000000000000000000000000000000000815250612931565b6117a4576040517f08c379a000000000000000000000000000000000000000000000000000000000815260040161179b90613483565b60405180910390fd5b3373ffffffffffffffffffffffffffffffffffffffff16816040015173ffffffffffffffffffffffffffffffffffffffff1614611816576040517f08c379a000000000000000000000000000000000000000000000000000000000815260040161180d90613423565b60405180910390fd5b6118598160a001516040518060400160405280600481526020017f63616c6c00000000000000000000000000000000000000000000000000000000815250612931565b1561192857806060015173ffffffffffffffffffffffffffffffffffffffff1663a9059cbb33670de0b6b3a7640000606460ff1661189791906136f6565b6040518363ffffffff167c01000000000000000000000000000000000000000000000000000000000281526004016118d09291906132f3565b602060405180830381600087803b1580156118ea57600080fd5b505af11580156118fe573d6000803e3d6000fd5b505050506040513d601f19601f820116820180604052508101906119229190612af4565b50611a06565b7f000000000000000000000000000000000000000000000000000000000000000073ffffffffffffffffffffffffffffffffffffffff1663a9059cbb33606460ff16846080015161197991906136f6565b6040518363ffffffff167c01000000000000000000000000000000000000000000000000000000000281526004016119b29291906132f3565b602060405180830381600087803b1580156119cc57600080fd5b505af11580156119e0573d6000803e3d6000fd5b505050506040513d601f19601f82011682018060405250810190611a049190612af4565b505b6040518060400160405280600981526020017f636f6c6c65637465640000000000000000000000000000000000000000000000815250600260008481526020019081526020016000206001019080519060200190611a6592919061298a565b505050565b60008062093a8085611a7c91906136c5565b905060006202a30062093a8083611a9391906136f6565b611a9d919061366f565b9050600060149054906101000a900460ff16611aee576040517f08c379a0000000000000000000000000000000000000000000000000000000008152600401611ae590613543565b60405180910390fd5b611b7188888080601f016020809104026020016040519081016040528093929190818152602001838380828437600081840152601f19601f820116905080830192505050505050506040518060400160405280600481526020017f63616c6c00000000000000000000000000000000000000000000000000000000815250612931565b80611bfb5750611bfa88888080601f016020809104026020016040519081016040528093929190818152602001838380828437600081840152601f19601f820116905080830192505050505050506040518060400160405280600381526020017f7075740000000000000000000000000000000000000000000000000000000000815250612931565b5b611c3a576040517f08c379a0000000000000000000000000000000000000000000000000000000008152600401611c31906133a3565b60405180910390fd5b428111611c7c576040517f08c379a0000000000000000000000000000000000000000000000000000000008152600401611c73906134a3565b60405180910390fd5b60006040518060c001604052808381526020016040518060400160405280600481526020017f6e6f6e650000000000000000000000000000000000000000000000000000000081525081526020013373ffffffffffffffffffffffffffffffffffffffff1681526020018773ffffffffffffffffffffffffffffffffffffffff1681526020018681526020018a8a8080601f016020809104026020016040519081016040528093929190818152602001838380828437600081840152601f19601f820116905080830192505050505050508152509050611dd589898080601f016020809104026020016040519081016040528093929190818152602001838380828437600081840152601f19601f820116905080830192505050505050506040518060400160405280600481526020017f63616c6c00000000000000000000000000000000000000000000000000000000815250612931565b15611ea2578573ffffffffffffffffffffffffffffffffffffffff166323b872dd3330606460ff16670de0b6b3a7640000611e1091906136f6565b6040518463ffffffff167c0100000000000000000000000000000000000000000000000000000000028152600401611e4a939291906132bc565b602060405180830381600087803b158015611e6457600080fd5b505af1158015611e78573d6000803e3d6000fd5b505050506040513d601f19601f82011682018060405250810190611e9c9190612af4565b50611f7e565b7f000000000000000000000000000000000000000000000000000000000000000073ffffffffffffffffffffffffffffffffffffffff166323b872dd3330606460ff1689611ef091906136f6565b6040518463ffffffff167c0100000000000000000000000000000000000000000000000000000000028152600401611f2a939291906132bc565b602060405180830381600087803b158015611f4457600080fd5b505af1158015611f58573d6000803e3d6000fd5b505050506040513d601f19601f82011682018060405250810190611f7c9190612af4565b505b80600260006001548152602001908152602001600020600082015181600001556020820151816001019080519060200190611fba92919061298a565b5060408201518160020160006101000a81548173ffffffffffffffffffffffffffffffffffffffff021916908373ffffffffffffffffffffffffffffffffffffffff16021790555060608201518160030160006101000a81548173ffffffffffffffffffffffffffffffffffffffff021916908373ffffffffffffffffffffffffffffffffffffffff1602179055506080820151816004015560a082015181600501908051906020019061206f92919061298a565b509050503360036000600154815260200190815260200160002060006101000a81548173ffffffffffffffffffffffffffffffffffffffff021916908373ffffffffffffffffffffffffffffffffffffffff160217905550600160008154809291906120da9061383e565b91905055503373ffffffffffffffffffffffffffffffffffffffff167f606b674c20bbe962b8ce1f7a665429824aed04ed5bf026fd882fd679373a73f1600180546121259190613750565b60405161213291906135a3565b60405180910390a2600180546121489190613750565b935050505095945050505050565b6000600260008381526020019081526020016000206040518060c0016040529081600082015481526020016001820180546121909061380c565b80601f01602080910402602001604051908101604052809291908181526020018280546121bc9061380c565b80156122095780601f106121de57610100808354040283529160200191612209565b820191906000526020600020905b8154815290600101906020018083116121ec57829003601f168201915b505050505081526020016002820160009054906101000a900473ffffffffffffffffffffffffffffffffffffffff1673ffffffffffffffffffffffffffffffffffffffff1673ffffffffffffffffffffffffffffffffffffffff1681526020016003820160009054906101000a900473ffffffffffffffffffffffffffffffffffffffff1673ffffffffffffffffffffffffffffffffffffffff1673ffffffffffffffffffffffffffffffffffffffff168152602001600482015481526020016005820180546122d89061380c565b80601f01602080910402602001604051908101604052809291908181526020018280546123049061380c565b80156123515780601f1061232657610100808354040283529160200191612351565b820191906000526020600020905b81548152906001019060200180831161233457829003601f168201915b505050505081525050905042816000015110156123a3576040517f08c379a000000000000000000000000000000000000000000000000000000000815260040161239a906133e3565b60405180910390fd5b6123e681602001516040518060400160405280600481526020017f6e6f6e6500000000000000000000000000000000000000000000000000000000815250612931565b612425576040517f08c379a000000000000000000000000000000000000000000000000000000000815260040161241c90613583565b60405180910390fd5b3373ffffffffffffffffffffffffffffffffffffffff166003600084815260200190815260200160002060009054906101000a900473ffffffffffffffffffffffffffffffffffffffff1673ffffffffffffffffffffffffffffffffffffffff16146124c6576040517f08c379a00000000000000000000000000000000000000000000000000000000081526004016124bd90613403565b60405180910390fd5b6125098160a001516040518060400160405280600481526020017f63616c6c00000000000000000000000000000000000000000000000000000000815250612931565b156126bb577f000000000000000000000000000000000000000000000000000000000000000073ffffffffffffffffffffffffffffffffffffffff166323b872dd338360400151606460ff16856080015161256491906136f6565b6040518463ffffffff167c010000000000000000000000000000000000000000000000000000000002815260040161259e939291906132bc565b602060405180830381600087803b1580156125b857600080fd5b505af11580156125cc573d6000803e3d6000fd5b505050506040513d601f19601f820116820180604052508101906125f09190612af4565b50806060015173ffffffffffffffffffffffffffffffffffffffff1663a9059cbb33670de0b6b3a7640000606460ff1661262a91906136f6565b6040518363ffffffff167c01000000000000000000000000000000000000000000000000000000000281526004016126639291906132f3565b602060405180830381600087803b15801561267d57600080fd5b505af1158015612691573d6000803e3d6000fd5b505050506040513d601f19601f820116820180604052508101906126b59190612af4565b50612864565b806060015173ffffffffffffffffffffffffffffffffffffffff166323b872dd338360400151670de0b6b3a7640000606460ff166126f991906136f6565b6040518463ffffffff167c0100000000000000000000000000000000000000000000000000000000028152600401612733939291906132bc565b602060405180830381600087803b15801561274d57600080fd5b505af1158015612761573d6000803e3d6000fd5b505050506040513d601f19601f820116820180604052508101906127859190612af4565b507f000000000000000000000000000000000000000000000000000000000000000073ffffffffffffffffffffffffffffffffffffffff1663a9059cbb33606460ff1684608001516127d791906136f6565b6040518363ffffffff167c01000000000000000000000000000000000000000000000000000000000281526004016128109291906132f3565b602060405180830381600087803b15801561282a57600080fd5b505af115801561283e573d6000803e3d6000fd5b505050506040513d601f19601f820116820180604052508101906128629190612af4565b505b6040518060400160405280600981526020017f65786572636973656400000000000000000000000000000000000000000000008152506002600084815260200190815260200160002060010190805190602001906128c392919061298a565b503373ffffffffffffffffffffffffffffffffffffffff16816040015173ffffffffffffffffffffffffffffffffffffffff167fbe38b3704166f0e904f93963eae13ca02ec939a255af46a3340dcdfeb2ee28998460405161292591906135a3565b60405180910390a35050565b600081604051602001612944919061328a565b604051602081830303815290604052805190602001208360405160200161296b919061328a565b6040516020818303038152906040528051906020012014905092915050565b8280546129969061380c565b90600052602060002090601f0160209004810192826129b857600085556129ff565b82601f106129d157805160ff19168380011785556129ff565b828001600101855582156129ff579182015b828111156129fe5782518255916020019190600101906129e3565b5b509050612a0c9190612a10565b5090565b5b80821115612a29576000816000905550600101612a11565b5090565b600081359050612a3c81613925565b92915050565b600081359050612a518161393c565b92915050565b600081519050612a668161393c565b92915050565b60008083601f840112612a7e57600080fd5b8235905067ffffffffffffffff811115612a9757600080fd5b602083019150836001820283011115612aaf57600080fd5b9250929050565b600081359050612ac581613953565b92915050565b600060208284031215612add57600080fd5b6000612aeb84828501612a42565b91505092915050565b600060208284031215612b0657600080fd5b6000612b1484828501612a57565b91505092915050565b600080600080600060808688031215612b3557600080fd5b600086013567ffffffffffffffff811115612b4f57600080fd5b612b5b88828901612a6c565b95509550506020612b6e88828901612ab6565b9350506040612b7f88828901612a2d565b9250506060612b9088828901612ab6565b9150509295509295909350565b600060208284031215612baf57600080fd5b6000612bbd84828501612ab6565b91505092915050565b60008060408385031215612bd957600080fd5b6000612be785828601612ab6565b9250506020612bf885828601612ab6565b9150509250929050565b612c0b81613784565b82525050565b612c1a81613796565b82525050565b6000612c2b82613648565b612c358185613653565b9350612c458185602086016137d9565b612c4e81613914565b840191505092915050565b6000612c6482613648565b612c6e8185613664565b9350612c7e8185602086016137d9565b80840191505092915050565b6000612c97601d83613653565b91507f54726164652068617320616c7265616479206265656e20636c6f7365640000006000830152602082019050919050565b6000612cd7602783613653565b91507f4f7074696f6e2074797065206d6179206f6e6c79206265202763616c6c27206f60008301527f72202770757427000000000000000000000000000000000000000000000000006020830152604082019050919050565b6000612d3d601a83613653565b91507f4f7074696f6e20686173206e6f742065787069726564207965740000000000006000830152602082019050919050565b6000612d7d601283613653565b91507f4f7074696f6e20686173206578706972656400000000000000000000000000006000830152602082019050919050565b6000612dbd602c83613653565b91507f4f6e6c7920746865206f776e6572206f6620746865206f7074696f6e206d617960008301527f20657865726369736520697400000000000000000000000000000000000000006020830152604082019050919050565b6000612e23602d83613653565b91507f4f6e6c792074686520777269746572206d617920636f6c6c65637420616e206560008301527f787069726564206f7074696f6e000000000000000000000000000000000000006020830152604082019050919050565b6000612e89604783613653565b91507f547261646520706f73746572206d6179206e6f7420657865637574652074686560008301527f6972206f776e2074726164652c20757365202763616e63656c5472616465272060208301527f696e7374656164000000000000000000000000000000000000000000000000006040830152606082019050919050565b6000612f15601983613653565b91507f43616e6e6f74206c69737420612075736564206f7074696f6e000000000000006000830152602082019050919050565b6000612f55602e83613653565b91507f4f7074696f6e2068617320616c7265616479206265656e20657865726369736560008301527f64206f7220636f6c6c65637465640000000000000000000000000000000000006020830152604082019050919050565b6000612fbb601c83613653565b91507f457870697279206d75737420626520696e2074686520667574757265000000006000830152602082019050919050565b6000612ffb603483613653565b91507f4f6e6c7920746865206f776e6572206f6620746865206f7074696f6e206d617960008301527f206f70656e206120747261646520666f722069740000000000000000000000006020830152604082019050919050565b6000613061602283613653565b91507f4f6e6c792074686520706f73746572206d61792063616e63656c20612074726160008301527f64650000000000000000000000000000000000000000000000000000000000006020830152604082019050919050565b60006130c7602e83613653565b91507f4f6e6c7920746865206f776e6572206d617920656e61626c652f64697361626c60008301527f652074686520636f6e74726163740000000000000000000000000000000000006020830152604082019050919050565b600061312d603583613653565b91507f4f6e6c7920746865206f776e6572206d6179207472616e73666572206f776e6560008301527f7273686970206f662074686520636f6e747261637400000000000000000000006020830152604082019050919050565b6000613193601e83613653565b91507f436f6e74726163742069732063757272656e746c792064697361626c656400006000830152602082019050919050565b60006131d3602083613653565b91507f4f6e6c79206f70656e20747261646573206d61792062652065786563757465646000830152602082019050919050565b6000613213602183613653565b91507f4f7074696f6e2068617320616c7265616479206265656e20657865726369736560008301527f64000000000000000000000000000000000000000000000000000000000000006020830152604082019050919050565b613275816137c2565b82525050565b613284816137cc565b82525050565b60006132968284612c59565b915081905092915050565b60006020820190506132b66000830184612c02565b92915050565b60006060820190506132d16000830186612c02565b6132de6020830185612c02565b6132eb604083018461326c565b949350505050565b60006040820190506133086000830185612c02565b613315602083018461326c565b9392505050565b60006080820190506133316000830187612c02565b61333e602083018661326c565b61334b604083018561326c565b818103606083015261335d8184612c20565b905095945050505050565b600060208201905061337d6000830184612c11565b92915050565b6000602082019050818103600083015261339c81612c8a565b9050919050565b600060208201905081810360008301526133bc81612cca565b9050919050565b600060208201905081810360008301526133dc81612d30565b9050919050565b600060208201905081810360008301526133fc81612d70565b9050919050565b6000602082019050818103600083015261341c81612db0565b9050919050565b6000602082019050818103600083015261343c81612e16565b9050919050565b6000602082019050818103600083015261345c81612e7c565b9050919050565b6000602082019050818103600083015261347c81612f08565b9050919050565b6000602082019050818103600083015261349c81612f48565b9050919050565b600060208201905081810360008301526134bc81612fae565b9050919050565b600060208201905081810360008301526134dc81612fee565b9050919050565b600060208201905081810360008301526134fc81613054565b9050919050565b6000602082019050818103600083015261351c816130ba565b9050919050565b6000602082019050818103600083015261353c81613120565b9050919050565b6000602082019050818103600083015261355c81613186565b9050919050565b6000602082019050818103600083015261357c816131c6565b9050919050565b6000602082019050818103600083015261359c81613206565b9050919050565b60006020820190506135b8600083018461326c565b92915050565b600060c0820190506135d3600083018961326c565b81810360208301526135e58188612c20565b90506135f46040830187612c02565b6136016060830186612c02565b61360e608083018561326c565b81810360a08301526136208184612c20565b9050979650505050505050565b6000602082019050613642600083018461327b565b92915050565b600081519050919050565b600082825260208201905092915050565b600081905092915050565b600061367a826137c2565b9150613685836137c2565b9250827fffffffffffffffffffffffffffffffffffffffffffffffffffffffffffffffff038211156136ba576136b9613887565b5b828201905092915050565b60006136d0826137c2565b91506136db836137c2565b9250826136eb576136ea6138b6565b5b828204905092915050565b6000613701826137c2565b915061370c836137c2565b9250817fffffffffffffffffffffffffffffffffffffffffffffffffffffffffffffffff048311821515161561374557613744613887565b5b828202905092915050565b600061375b826137c2565b9150613766836137c2565b92508282101561377957613778613887565b5b828203905092915050565b600061378f826137a2565b9050919050565b60008115159050919050565b600073ffffffffffffffffffffffffffffffffffffffff82169050919050565b6000819050919050565b600060ff82169050919050565b60005b838110156137f75780820151818401526020810190506137dc565b83811115613806576000848401525b50505050565b6000600282049050600182168061382457607f821691505b60208210811415613838576138376138e5565b5b50919050565b6000613849826137c2565b91507fffffffffffffffffffffffffffffffffffffffffffffffffffffffffffffffff82141561387c5761387b613887565b5b600182019050919050565b7f4e487b7100000000000000000000000000000000000000000000000000000000600052601160045260246000fd5b7f4e487b7100000000000000000000000000000000000000000000000000000000600052601260045260246000fd5b7f4e487b7100000000000000000000000000000000000000000000000000000000600052602260045260246000fd5b6000601f19601f8301169050919050565b61392e81613784565b811461393957600080fd5b50565b61394581613796565b811461395057600080fd5b50565b61395c816137c2565b811461396757600080fd5b5056fea2646970667358221220383bec57ddec7d03d1c21e041ec7427a03958845b074d2dadbbf143f999a770e64736f6c63430008000033",
  "immutableReferences": {
    "162": [
      {
        "length": 32,
        "start": 1413
      },
      {
        "length": 32,
        "start": 1621
      },
      {
        "length": 32,
        "start": 5013
      },
      {
        "length": 32,
        "start": 6442
      },
      {
        "length": 32,
        "start": 7844
      },
      {
        "length": 32,
        "start": 9488
      },
      {
        "length": 32,
        "start": 10120
      }
    ]
  },
  "source": "// SPDX-License-Identifier: GPL-3.0-only\npragma solidity ^0.8.0;\n\nimport \"@openzeppelin/contracts/token/ERC20/IERC20.sol\";\n\ncontract OptionsMarket {\n    // Declare events for logging data\n    event OptionWritten(uint256 optionId, address indexed writer);\n    event OptionExercised(uint256 optionId, address indexed writer, address indexed exerciser);\n    event TradeOpened(uint256 tradeId, address indexed poster);\n    event TradeExecuted(uint256 tradeId, address indexed buyer);\n    event TradeCancelled(uint256 tradeId);\n\n    // Admin access\n    address private owner;\n    bool private enabled;\n\n    // Option data\n    struct Option {\n        uint256 expiry;\n        string status; // none, exercised, collected\n        address writer;\n        address tokenAddress;\n        uint256 strikePrice;\n        string optionType; // call, put\n    }\n\n    uint256 private constant TOKEN_AMOUNT_PER_UNIT = 1e18;\n    uint8 private constant UNITS_PER_OPTION = 100;\n\n    uint256 private optionId;\n    mapping(uint256 => Option) private options;\n    mapping(uint256 => address) private optionOwners;\n\n    // Trade data\n    struct Trade {\n        address poster;\n        uint256 optionId;\n        uint256 premium;\n        string status; // open, closed, cancelled\n    }\n\n    uint256 private tradeId;\n    mapping(uint256 => Trade) private trades;\n    address private immutable tradeCurrency;\n\n    constructor(address currency) {\n        // Set the owner as the deployer of the contract, set the currency of the trades, and set enabled to true\n        owner = msg.sender;\n        tradeCurrency = currency;\n        enabled = true;\n    }\n\n    // ============= Admin functions =============\n\n    // Enable/disable the ability to write or trade options (use when migrating to new contract)\n    function ownerSetContractEnabled(bool _enabled) external {\n        require(msg.sender == owner, \"Only the owner may enable/disable the contract\");\n        enabled = _enabled;\n    }\n\n    // Transfer ownership of the contract to another owner\n    function ownerTransferOwnership() external {\n        require(msg.sender == owner, \"Only the owner may transfer ownership of the contract\"); \n        owner = msg.sender;\n    }\n\n    // ============= Util functions =============\n\n    // Compare if two strings are equal\n    function _compareStrings(string memory a, string memory b) private pure returns (bool) {\n        return keccak256(abi.encodePacked(a)) == keccak256(abi.encodePacked(b));\n    }\n\n    // Get the trade currency of the token\n    function getTradeCurrency() external view returns (address) {\n        return tradeCurrency;\n    }\n\n    // Get the number of base units per unit for each token\n    function getTokenAmountPerUnit() external pure returns (uint256) {\n        return TOKEN_AMOUNT_PER_UNIT;\n    }\n\n    // Get the number of units contained in each option\n    function getUnitsPerOption() external pure returns (uint8) {\n        return UNITS_PER_OPTION;\n    }\n\n    // Check the state of the contract\n    function contractEnabled() external view returns (bool) {\n        return enabled;\n    }\n\n    // ============= Option functions =============\n\n    // Allow the address to create a new option\n    function writeOption(string calldata optionType, uint256 expiry, address tokenAddress, uint256 strikePrice) external returns (uint256) {\n        // Make the expiry weekly every friday\n        uint256 expiryTemp = expiry / (7 days);\n        uint256 optionExpiry = expiryTemp * (7 days) + 2 days;\n        \n        // Check that the option is valid\n        require(enabled, \"Contract is currently disabled\");\n        require(_compareStrings(optionType, \"call\") || _compareStrings(optionType, \"put\"), \"Option type may only be 'call' or 'put'\");\n        require(optionExpiry > block.timestamp, \"Expiry must be in the future\");\n\n        // Write a new option\n        Option memory option = Option({\n            expiry: optionExpiry,\n            status: \"none\",\n            writer: msg.sender,\n            tokenAddress: tokenAddress,\n            strikePrice: strikePrice,\n            optionType: optionType\n        });\n\n        // If this is a call then transfer the amount of the token to the contract,\n        // otherwise transfer the trade currency x strike price to the contract\n        if (_compareStrings(optionType, \"call\")) {\n            IERC20(tokenAddress).transferFrom(msg.sender, address(this), TOKEN_AMOUNT_PER_UNIT * UNITS_PER_OPTION); \n        } else {\n            IERC20(tradeCurrency).transferFrom(msg.sender, address(this), strikePrice * UNITS_PER_OPTION);\n        }\n\n        // Save the option\n        options[optionId] = option;\n        optionOwners[optionId] = msg.sender;\n        optionId++;\n\n        // Emit an event and return the id of the option\n        emit OptionWritten(optionId - 1, msg.sender);\n        return optionId - 1;\n    }\n\n    // Get the data of an option\n    function getOption(uint256 _optionId) external view returns (uint256, string memory, address, address, uint256, string memory) {\n        Option memory option = options[_optionId];\n        return (option.expiry, option.status, option.writer, option.tokenAddress, option.strikePrice, option.optionType);\n    }\n\n    // Get the owner of an option\n    function getOptionOwner(uint256 _optionId) external view returns (address) {\n        return optionOwners[_optionId];\n    }\n\n    // Allow a option holder to exercise their option\n    function exerciseOption(uint256 _optionId) external {\n        // Get the data of the option\n        Option memory option = options[_optionId];\n\n        // Check that the option may be exercised\n        require(option.expiry >= block.timestamp, \"Option has expired\");\n        require(_compareStrings(option.status, \"none\"), \"Option has already been exercised\");\n        require(optionOwners[_optionId] == msg.sender, \"Only the owner of the option may exercise it\");\n\n        // If the option is a call, then charge the strike price x num tokens to receive the tokens,\n        // else if the option is a put, transfer their tokens\n        if (_compareStrings(option.optionType, \"call\")) {\n            IERC20(tradeCurrency).transferFrom(msg.sender, option.writer, option.strikePrice * UNITS_PER_OPTION);\n            IERC20(option.tokenAddress).transfer(msg.sender, UNITS_PER_OPTION * TOKEN_AMOUNT_PER_UNIT);\n        } else {\n            IERC20(option.tokenAddress).transferFrom(msg.sender, option.writer, UNITS_PER_OPTION * TOKEN_AMOUNT_PER_UNIT);\n            IERC20(tradeCurrency).transfer(msg.sender, option.strikePrice * UNITS_PER_OPTION);\n        }\n\n        // Update the status of the option and emit event\n        options[_optionId].status = \"exercised\";\n        emit OptionExercised(_optionId, option.writer, msg.sender);\n    }\n\n    // Allow a writer to collect an expired contract\n    function collectExpired(uint256 _optionId) external {\n        // Get the data of the option\n        Option memory option = options[_optionId];\n\n        // Check that the option may be collected\n        require(option.expiry < block.timestamp, \"Option has not expired yet\");\n        require(_compareStrings(option.status, \"none\"), \"Option has already been exercised or collected\");\n        require(option.writer == msg.sender, \"Only the writer may collect an expired option\");\n\n        // If the option is a call then transfer the tokens back to the writer,\n        // otherwise transfer the strike price x num tokens back to the writer\n        if (_compareStrings(option.optionType, \"call\")) {\n            IERC20(option.tokenAddress).transfer(msg.sender, UNITS_PER_OPTION * TOKEN_AMOUNT_PER_UNIT);\n        } else {\n            IERC20(tradeCurrency).transfer(msg.sender, option.strikePrice * UNITS_PER_OPTION);\n        }\n\n        // Update the status of the option\n        options[_optionId].status = \"collected\";\n    }\n\n    // ============= Marketplace functions =============\n\n    // Open a new trade for selling an option\n    function openTrade(uint256 _optionId, uint256 premium) external returns (uint256) {\n        // Check that the trade may be opened\n        require(enabled, \"Contract is currently disabled\");\n        require(optionOwners[_optionId] == msg.sender, \"Only the owner of the option may open a trade for it\");\n        require(_compareStrings(options[_optionId].status, \"none\"), \"Cannot list a used option\");\n\n        // Create a new trade\n        Trade memory trade = Trade({\n            poster: msg.sender,\n            optionId: _optionId,\n            premium: premium,\n            status: \"open\"\n        });\n\n        // Store the new trade\n        trades[tradeId] = trade;\n        tradeId++;\n\n        // Transfer the option to the contract\n        optionOwners[_optionId] = address(this);\n\n        // Emit an event and return the trade id\n        emit TradeOpened(tradeId - 1, msg.sender);\n        return tradeId - 1;\n    }\n\n    // Execute a trade for buying an option\n    function executeTrade(uint256 _tradeId) external {\n        // Get the trade\n        Trade memory trade = trades[_tradeId];\n\n        // Verify that the trade may be executed\n        require(_compareStrings(trade.status, \"open\"), \"Only open trades may be executed\");\n        require(msg.sender != trade.poster, \"Trade poster may not execute their own trade, use 'cancelTrade' instead\");\n\n        // Charge the recipient and pay a fee to the owner\n        uint256 fee = trade.premium * UNITS_PER_OPTION * 3 / 100; \n        uint256 payout = trade.premium * UNITS_PER_OPTION - fee;\n        IERC20(tradeCurrency).transferFrom(msg.sender, trade.poster, payout);\n        IERC20(tradeCurrency).transferFrom(msg.sender, owner, fee);\n\n        // Transfer the option\n        optionOwners[trade.optionId] = msg.sender;\n\n        // Update the status of the trade\n        trades[_tradeId].status = \"closed\";\n\n        // Emit an event\n        emit TradeExecuted(_tradeId, msg.sender);\n    }\n\n    // View a trade\n    function getTrade(uint256 _tradeId) external view returns (address, uint256, uint256, string memory) {\n        Trade memory trade = trades[_tradeId];\n        return (trade.poster, trade.optionId, trade.premium, trade.status);\n    }\n\n    // Cancel a trade\n    function cancelTrade(uint256 _tradeId) external {\n        // Get the trade\n        Trade memory trade = trades[_tradeId];\n\n        // Check that the trade may be cancelled\n        require(trade.poster == msg.sender, \"Only the poster may cancel a trade\");\n        require(!_compareStrings(trade.status, \"closed\"), \"Trade has already been closed\");\n\n        // Transfer the option back to the poster\n        optionOwners[trade.optionId] = msg.sender;\n\n        // Set status to cancelled\n        trades[_tradeId].status = \"cancelled\";\n\n        // Emit an event\n        emit TradeCancelled(_tradeId);\n    }\n}",
  "sourcePath": "/home/ben/Code/Crypto-Options/src/dapp/contracts/OptionsMarket.sol",
  "compiler": {
    "name": "solc",
    "version": "0.8.0+commit.c7dfd78e.Emscripten.clang"
  },
  "schemaVersion": "3.4.3",
  "updatedAt": "2021-10-01T01:50:27.147Z",
  "networkType": "ethereum",
  "devdoc": {
    "kind": "dev",
    "methods": {},
    "version": 1
  },
  "userdoc": {
    "kind": "user",
    "methods": {},
    "version": 1
  }
}