{
  "contractName": "OptionsMarket",
  "abi": [
    {
      "inputs": [
        {
          "internalType": "address",
          "name": "currency",
          "type": "address"
        }
      ],
      "stateMutability": "nonpayable",
      "type": "constructor"
    },
    {
      "anonymous": false,
      "inputs": [
        {
          "indexed": false,
          "internalType": "uint256",
          "name": "optionId",
          "type": "uint256"
        },
        {
          "indexed": true,
          "internalType": "address",
          "name": "writer",
          "type": "address"
        },
        {
          "indexed": true,
          "internalType": "address",
          "name": "exerciser",
          "type": "address"
        }
      ],
      "name": "OptionExercised",
      "type": "event"
    },
    {
      "anonymous": false,
      "inputs": [
        {
          "indexed": false,
          "internalType": "uint256",
          "name": "optionId",
          "type": "uint256"
        },
        {
          "indexed": true,
          "internalType": "address",
          "name": "writer",
          "type": "address"
        }
      ],
      "name": "OptionWritten",
      "type": "event"
    },
    {
      "anonymous": false,
      "inputs": [
        {
          "indexed": false,
          "internalType": "uint256",
          "name": "tradeId",
          "type": "uint256"
        }
      ],
      "name": "TradeCancelled",
      "type": "event"
    },
    {
      "anonymous": false,
      "inputs": [
        {
          "indexed": false,
          "internalType": "uint256",
          "name": "tradeId",
          "type": "uint256"
        },
        {
          "indexed": true,
          "internalType": "address",
          "name": "buyer",
          "type": "address"
        }
      ],
      "name": "TradeExecuted",
      "type": "event"
    },
    {
      "anonymous": false,
      "inputs": [
        {
          "indexed": false,
          "internalType": "uint256",
          "name": "tradeId",
          "type": "uint256"
        },
        {
          "indexed": true,
          "internalType": "address",
          "name": "poster",
          "type": "address"
        }
      ],
      "name": "TradeOpened",
      "type": "event"
    },
    {
      "inputs": [],
      "name": "getTradeCurrency",
      "outputs": [
        {
          "internalType": "address",
          "name": "",
          "type": "address"
        }
      ],
      "stateMutability": "view",
      "type": "function",
      "constant": true
    },
    {
      "inputs": [
        {
          "internalType": "string",
          "name": "optionType",
          "type": "string"
        },
        {
          "internalType": "uint256",
          "name": "expiry",
          "type": "uint256"
        },
        {
          "internalType": "address",
          "name": "tokenAddress",
          "type": "address"
        },
        {
          "internalType": "uint256",
          "name": "amount",
          "type": "uint256"
        },
        {
          "internalType": "uint256",
          "name": "price",
          "type": "uint256"
        }
      ],
      "name": "writeOption",
      "outputs": [
        {
          "internalType": "uint256",
          "name": "",
          "type": "uint256"
        }
      ],
      "stateMutability": "nonpayable",
      "type": "function"
    },
    {
      "inputs": [
        {
          "internalType": "uint256",
          "name": "_optionId",
          "type": "uint256"
        }
      ],
      "name": "getOption",
      "outputs": [
        {
          "internalType": "uint256",
          "name": "",
          "type": "uint256"
        },
        {
          "internalType": "string",
          "name": "",
          "type": "string"
        },
        {
          "internalType": "address",
          "name": "",
          "type": "address"
        },
        {
          "internalType": "address",
          "name": "",
          "type": "address"
        },
        {
          "internalType": "uint256",
          "name": "",
          "type": "uint256"
        },
        {
          "internalType": "uint256",
          "name": "",
          "type": "uint256"
        },
        {
          "internalType": "string",
          "name": "",
          "type": "string"
        }
      ],
      "stateMutability": "view",
      "type": "function",
      "constant": true
    },
    {
      "inputs": [
        {
          "internalType": "uint256",
          "name": "_optionId",
          "type": "uint256"
        }
      ],
      "name": "getOptionOwner",
      "outputs": [
        {
          "internalType": "address",
          "name": "",
          "type": "address"
        }
      ],
      "stateMutability": "view",
      "type": "function",
      "constant": true
    },
    {
      "inputs": [
        {
          "internalType": "uint256",
          "name": "_optionId",
          "type": "uint256"
        }
      ],
      "name": "exerciseOption",
      "outputs": [],
      "stateMutability": "nonpayable",
      "type": "function"
    },
    {
      "inputs": [
        {
          "internalType": "uint256",
          "name": "_optionId",
          "type": "uint256"
        }
      ],
      "name": "collectExpired",
      "outputs": [],
      "stateMutability": "nonpayable",
      "type": "function"
    },
    {
      "inputs": [
        {
          "internalType": "uint256",
          "name": "_optionId",
          "type": "uint256"
        },
        {
          "internalType": "uint256",
          "name": "price",
          "type": "uint256"
        }
      ],
      "name": "openTrade",
      "outputs": [
        {
          "internalType": "uint256",
          "name": "",
          "type": "uint256"
        }
      ],
      "stateMutability": "nonpayable",
      "type": "function"
    },
    {
      "inputs": [
        {
          "internalType": "uint256",
          "name": "_tradeId",
          "type": "uint256"
        }
      ],
      "name": "executeTrade",
      "outputs": [],
      "stateMutability": "nonpayable",
      "type": "function"
    },
    {
      "inputs": [
        {
          "internalType": "uint256",
          "name": "_tradeId",
          "type": "uint256"
        }
      ],
      "name": "getTrade",
      "outputs": [
        {
          "internalType": "address",
          "name": "",
          "type": "address"
        },
        {
          "internalType": "uint256",
          "name": "",
          "type": "uint256"
        },
        {
          "internalType": "uint256",
          "name": "",
          "type": "uint256"
        },
        {
          "internalType": "string",
          "name": "",
          "type": "string"
        }
      ],
      "stateMutability": "view",
      "type": "function",
      "constant": true
    },
    {
      "inputs": [
        {
          "internalType": "uint256",
          "name": "_tradeId",
          "type": "uint256"
        }
      ],
      "name": "cancelTrade",
      "outputs": [],
      "stateMutability": "nonpayable",
      "type": "function"
    }
  ],
  "bytecode": "0x60a06040523480156200001157600080fd5b5060405162003104380380620031048339818101604052810190620000379190620000cc565b336000806101000a81548173ffffffffffffffffffffffffffffffffffffffff021916908373ffffffffffffffffffffffffffffffffffffffff1602179055508073ffffffffffffffffffffffffffffffffffffffff1660808173ffffffffffffffffffffffffffffffffffffffff1660601b815250505062000146565b600081519050620000c6816200012c565b92915050565b600060208284031215620000df57600080fd5b6000620000ef84828501620000b5565b91505092915050565b600062000105826200010c565b9050919050565b600073ffffffffffffffffffffffffffffffffffffffff82169050919050565b6200013781620000f8565b81146200014357600080fd5b50565b60805160601c612f756200018f600039600081816104570152818161050b01528181611230015281816114c30152818161195301528181611e2c015261201b0152612f756000f3fe608060405234801561001057600080fd5b506004361061009e5760003560e01c8063706efac511610066578063706efac5146101745780637f03e1ab146101a457806381495953146101c2578063b7b4ea04146101f2578063f52f25261461020e5761009e565b806302d2838b146100a357806309ec6cc7146100bf5780630c493fba146100db5780631ce5e9a61461010b5780632db25e0514610141575b600080fd5b6100bd60048036038101906100b891906123f4565b61022a565b005b6100d960048036038101906100d491906123f4565b61068d565b005b6100f560048036038101906100f0919061241d565b610991565b6040516101029190612b49565b60405180910390f35b610125600480360381019061012091906123f4565b610c13565b6040516101389796959493929190612b64565b60405180910390f35b61015b600480360381019061015691906123f4565b610e6c565b60405161016b949392919061297d565b60405180910390f35b61018e60048036038101906101899190612365565b610fb5565b60405161019b9190612b49565b60405180910390f35b6101ac6114bf565b6040516101b99190612902565b60405180910390f35b6101dc60048036038101906101d791906123f4565b6114e7565b6040516101e99190612902565b60405180910390f35b61020c600480360381019061020791906123f4565b611524565b005b610228600480360381019061022391906123f4565b611a68565b005b6000600560008381526020019081526020016000206040518060800160405290816000820160009054906101000a900473ffffffffffffffffffffffffffffffffffffffff1673ffffffffffffffffffffffffffffffffffffffff1673ffffffffffffffffffffffffffffffffffffffff16815260200160018201548152602001600282015481526020016003820180546102c490612db2565b80601f01602080910402602001604051908101604052809291908181526020018280546102f090612db2565b801561033d5780601f106103125761010080835404028352916020019161033d565b820191906000526020600020905b81548152906001019060200180831161032057829003601f168201915b505050505081525050905061038b81606001516040518060400160405280600481526020017f6f70656e00000000000000000000000000000000000000000000000000000000815250612199565b6103ca576040517f08c379a00000000000000000000000000000000000000000000000000000000081526004016103c190612b09565b60405180910390fd5b33600360008360200151815260200190815260200160002060006101000a81548173ffffffffffffffffffffffffffffffffffffffff021916908373ffffffffffffffffffffffffffffffffffffffff16021790555060006064600383604001516104359190612c9a565b61043f9190612c69565b905060008183604001516104539190612cf4565b90507f000000000000000000000000000000000000000000000000000000000000000073ffffffffffffffffffffffffffffffffffffffff166323b872dd338560000151846040518463ffffffff1660e01b81526004016104b69392919061291d565b602060405180830381600087803b1580156104d057600080fd5b505af11580156104e4573d6000803e3d6000fd5b505050506040513d601f19601f82011682018060405250810190610508919061233c565b507f000000000000000000000000000000000000000000000000000000000000000073ffffffffffffffffffffffffffffffffffffffff166323b872dd3360008054906101000a900473ffffffffffffffffffffffffffffffffffffffff16856040518463ffffffff1660e01b81526004016105869392919061291d565b602060405180830381600087803b1580156105a057600080fd5b505af11580156105b4573d6000803e3d6000fd5b505050506040513d601f19601f820116820180604052508101906105d8919061233c565b506040518060400160405280600681526020017f636c6f73656400000000000000000000000000000000000000000000000000008152506005600086815260200190815260200160002060030190805190602001906106389291906121f2565b503373ffffffffffffffffffffffffffffffffffffffff167f2f999a7ea97ae4d5b2ee9cc0c93865dc0eeff8748b89107bda512070e182276b8560405161067f9190612b49565b60405180910390a250505050565b6000600560008381526020019081526020016000206040518060800160405290816000820160009054906101000a900473ffffffffffffffffffffffffffffffffffffffff1673ffffffffffffffffffffffffffffffffffffffff1673ffffffffffffffffffffffffffffffffffffffff168152602001600182015481526020016002820154815260200160038201805461072790612db2565b80601f016020809104026020016040519081016040528092919081815260200182805461075390612db2565b80156107a05780601f10610775576101008083540402835291602001916107a0565b820191906000526020600020905b81548152906001019060200180831161078357829003601f168201915b50505050508152505090503373ffffffffffffffffffffffffffffffffffffffff16816000015173ffffffffffffffffffffffffffffffffffffffff161461081d576040517f08c379a000000000000000000000000000000000000000000000000000000000815260040161081490612ae9565b60405180910390fd5b61086081606001516040518060400160405280600681526020017f636c6f7365640000000000000000000000000000000000000000000000000000815250612199565b156108a0576040517f08c379a0000000000000000000000000000000000000000000000000000000008152600401610897906129c9565b60405180910390fd5b33600360008360200151815260200190815260200160002060006101000a81548173ffffffffffffffffffffffffffffffffffffffff021916908373ffffffffffffffffffffffffffffffffffffffff1602179055506040518060400160405280600981526020017f63616e63656c6c656400000000000000000000000000000000000000000000008152506005600084815260200190815260200160002060030190805190602001906109559291906121f2565b507f4e02dcf02d8510f6c8a6878a3c54ae6e2bfbf552df29221d7a1eed173a6b1ae7826040516109859190612b49565b60405180910390a15050565b60003373ffffffffffffffffffffffffffffffffffffffff166003600085815260200190815260200160002060009054906101000a900473ffffffffffffffffffffffffffffffffffffffff1673ffffffffffffffffffffffffffffffffffffffff1614610a34576040517f08c379a0000000000000000000000000000000000000000000000000000000008152600401610a2b90612ac9565b60405180910390fd5b600060405180608001604052803373ffffffffffffffffffffffffffffffffffffffff1681526020018581526020018481526020016040518060400160405280600481526020017f6f70656e0000000000000000000000000000000000000000000000000000000081525081525090508060056000600454815260200190815260200160002060008201518160000160006101000a81548173ffffffffffffffffffffffffffffffffffffffff021916908373ffffffffffffffffffffffffffffffffffffffff16021790555060208201518160010155604082015181600201556060820151816003019080519060200190610b319291906121f2565b5090505060046000815480929190610b4890612de4565b9190505550306003600086815260200190815260200160002060006101000a81548173ffffffffffffffffffffffffffffffffffffffff021916908373ffffffffffffffffffffffffffffffffffffffff1602179055503373ffffffffffffffffffffffffffffffffffffffff167f07bfee712f55f28cac8ac1eaaf90b2d2086d6b07488f352f2bf38d4a0dcf520c6001600454610be69190612cf4565b604051610bf39190612b49565b60405180910390a26001600454610c0a9190612cf4565b91505092915050565b6000606060008060008060606000600260008a81526020019081526020016000206040518060e001604052908160008201548152602001600182018054610c5990612db2565b80601f0160208091040260200160405190810160405280929190818152602001828054610c8590612db2565b8015610cd25780601f10610ca757610100808354040283529160200191610cd2565b820191906000526020600020905b815481529060010190602001808311610cb557829003601f168201915b505050505081526020016002820160009054906101000a900473ffffffffffffffffffffffffffffffffffffffff1673ffffffffffffffffffffffffffffffffffffffff1673ffffffffffffffffffffffffffffffffffffffff1681526020016003820160009054906101000a900473ffffffffffffffffffffffffffffffffffffffff1673ffffffffffffffffffffffffffffffffffffffff1673ffffffffffffffffffffffffffffffffffffffff1681526020016004820154815260200160058201548152602001600682018054610dab90612db2565b80601f0160208091040260200160405190810160405280929190818152602001828054610dd790612db2565b8015610e245780601f10610df957610100808354040283529160200191610e24565b820191906000526020600020905b815481529060010190602001808311610e0757829003601f168201915b5050505050815250509050806000015181602001518260400151836060015184608001518560a001518660c00151975097509750975097509750975050919395979092949650565b600080600060606000600560008781526020019081526020016000206040518060800160405290816000820160009054906101000a900473ffffffffffffffffffffffffffffffffffffffff1673ffffffffffffffffffffffffffffffffffffffff1673ffffffffffffffffffffffffffffffffffffffff1681526020016001820154815260200160028201548152602001600382018054610f0d90612db2565b80601f0160208091040260200160405190810160405280929190818152602001828054610f3990612db2565b8015610f865780601f10610f5b57610100808354040283529160200191610f86565b820191906000526020600020905b815481529060010190602001808311610f6957829003601f168201915b505050505081525050905080600001518160200151826040015183606001519450945094509450509193509193565b6000610ff6866040518060400160405280600481526020017f63616c6c00000000000000000000000000000000000000000000000000000000815250612199565b8061103c575061103b866040518060400160405280600381526020017f7075740000000000000000000000000000000000000000000000000000000000815250612199565b5b61107b576040517f08c379a0000000000000000000000000000000000000000000000000000000008152600401611072906129e9565b60405180910390fd5b4285116110bd576040517f08c379a00000000000000000000000000000000000000000000000000000000081526004016110b490612aa9565b60405180910390fd5b60006040518060e001604052808781526020016040518060400160405280600481526020017f6e6f6e650000000000000000000000000000000000000000000000000000000081525081526020013373ffffffffffffffffffffffffffffffffffffffff1681526020018673ffffffffffffffffffffffffffffffffffffffff168152602001858152602001848152602001888152509050611194876040518060400160405280600481526020017f63616c6c00000000000000000000000000000000000000000000000000000000815250612199565b1561122e578473ffffffffffffffffffffffffffffffffffffffff166323b872dd3330876040518463ffffffff1660e01b81526004016111d69392919061291d565b602060405180830381600087803b1580156111f057600080fd5b505af1158015611204573d6000803e3d6000fd5b505050506040513d601f19601f82011682018060405250810190611228919061233c565b506112df565b7f000000000000000000000000000000000000000000000000000000000000000073ffffffffffffffffffffffffffffffffffffffff166323b872dd3330866040518463ffffffff1660e01b815260040161128b9392919061291d565b602060405180830381600087803b1580156112a557600080fd5b505af11580156112b9573d6000803e3d6000fd5b505050506040513d601f19601f820116820180604052508101906112dd919061233c565b505b8060026000600154815260200190815260200160002060008201518160000155602082015181600101908051906020019061131b9291906121f2565b5060408201518160020160006101000a81548173ffffffffffffffffffffffffffffffffffffffff021916908373ffffffffffffffffffffffffffffffffffffffff16021790555060608201518160030160006101000a81548173ffffffffffffffffffffffffffffffffffffffff021916908373ffffffffffffffffffffffffffffffffffffffff1602179055506080820151816004015560a0820151816005015560c08201518160060190805190602001906113da9291906121f2565b509050503360036000600154815260200190815260200160002060006101000a81548173ffffffffffffffffffffffffffffffffffffffff021916908373ffffffffffffffffffffffffffffffffffffffff1602179055506001600081548092919061144590612de4565b91905055503373ffffffffffffffffffffffffffffffffffffffff167f606b674c20bbe962b8ce1f7a665429824aed04ed5bf026fd882fd679373a73f1600180546114909190612cf4565b60405161149d9190612b49565b60405180910390a2600180546114b39190612cf4565b91505095945050505050565b60007f0000000000000000000000000000000000000000000000000000000000000000905090565b60006003600083815260200190815260200160002060009054906101000a900473ffffffffffffffffffffffffffffffffffffffff169050919050565b6000600260008381526020019081526020016000206040518060e00160405290816000820154815260200160018201805461155e90612db2565b80601f016020809104026020016040519081016040528092919081815260200182805461158a90612db2565b80156115d75780601f106115ac576101008083540402835291602001916115d7565b820191906000526020600020905b8154815290600101906020018083116115ba57829003601f168201915b505050505081526020016002820160009054906101000a900473ffffffffffffffffffffffffffffffffffffffff1673ffffffffffffffffffffffffffffffffffffffff1673ffffffffffffffffffffffffffffffffffffffff1681526020016003820160009054906101000a900473ffffffffffffffffffffffffffffffffffffffff1673ffffffffffffffffffffffffffffffffffffffff1673ffffffffffffffffffffffffffffffffffffffff16815260200160048201548152602001600582015481526020016006820180546116b090612db2565b80601f01602080910402602001604051908101604052809291908181526020018280546116dc90612db2565b80156117295780601f106116fe57610100808354040283529160200191611729565b820191906000526020600020905b81548152906001019060200180831161170c57829003601f168201915b50505050508152505090504281600001511061177a576040517f08c379a000000000000000000000000000000000000000000000000000000000815260040161177190612a09565b60405180910390fd5b6117bd81602001516040518060400160405280600481526020017f6e6f6e6500000000000000000000000000000000000000000000000000000000815250612199565b6117fc576040517f08c379a00000000000000000000000000000000000000000000000000000000081526004016117f390612a89565b60405180910390fd5b3373ffffffffffffffffffffffffffffffffffffffff16816040015173ffffffffffffffffffffffffffffffffffffffff161461186e576040517f08c379a000000000000000000000000000000000000000000000000000000000815260040161186590612a69565b60405180910390fd5b6118b18160c001516040518060400160405280600481526020017f63616c6c00000000000000000000000000000000000000000000000000000000815250612199565b1561195157806060015173ffffffffffffffffffffffffffffffffffffffff1663a9059cbb3383608001516040518363ffffffff1660e01b81526004016118f9929190612954565b602060405180830381600087803b15801561191357600080fd5b505af1158015611927573d6000803e3d6000fd5b505050506040513d601f19601f8201168201806040525081019061194b919061233c565b50611a04565b7f000000000000000000000000000000000000000000000000000000000000000073ffffffffffffffffffffffffffffffffffffffff1663a9059cbb338360a001516040518363ffffffff1660e01b81526004016119b0929190612954565b602060405180830381600087803b1580156119ca57600080fd5b505af11580156119de573d6000803e3d6000fd5b505050506040513d601f19601f82011682018060405250810190611a02919061233c565b505b6040518060400160405280600981526020017f636f6c6c65637465640000000000000000000000000000000000000000000000815250600260008481526020019081526020016000206001019080519060200190611a639291906121f2565b505050565b6000600260008381526020019081526020016000206040518060e001604052908160008201548152602001600182018054611aa290612db2565b80601f0160208091040260200160405190810160405280929190818152602001828054611ace90612db2565b8015611b1b5780601f10611af057610100808354040283529160200191611b1b565b820191906000526020600020905b815481529060010190602001808311611afe57829003601f168201915b505050505081526020016002820160009054906101000a900473ffffffffffffffffffffffffffffffffffffffff1673ffffffffffffffffffffffffffffffffffffffff1673ffffffffffffffffffffffffffffffffffffffff1681526020016003820160009054906101000a900473ffffffffffffffffffffffffffffffffffffffff1673ffffffffffffffffffffffffffffffffffffffff1673ffffffffffffffffffffffffffffffffffffffff1681526020016004820154815260200160058201548152602001600682018054611bf490612db2565b80601f0160208091040260200160405190810160405280929190818152602001828054611c2090612db2565b8015611c6d5780601f10611c4257610100808354040283529160200191611c6d565b820191906000526020600020905b815481529060010190602001808311611c5057829003601f168201915b50505050508152505090504281600001511015611cbf576040517f08c379a0000000000000000000000000000000000000000000000000000000008152600401611cb690612a29565b60405180910390fd5b611d0281602001516040518060400160405280600481526020017f6e6f6e6500000000000000000000000000000000000000000000000000000000815250612199565b611d41576040517f08c379a0000000000000000000000000000000000000000000000000000000008152600401611d3890612b29565b60405180910390fd5b3373ffffffffffffffffffffffffffffffffffffffff166003600084815260200190815260200160002060009054906101000a900473ffffffffffffffffffffffffffffffffffffffff1673ffffffffffffffffffffffffffffffffffffffff1614611de2576040517f08c379a0000000000000000000000000000000000000000000000000000000008152600401611dd990612a49565b60405180910390fd5b611e258160c001516040518060400160405280600481526020017f63616c6c00000000000000000000000000000000000000000000000000000000815250612199565b15611f7d577f000000000000000000000000000000000000000000000000000000000000000073ffffffffffffffffffffffffffffffffffffffff166323b872dd3383604001518460a001516040518463ffffffff1660e01b8152600401611e8f9392919061291d565b602060405180830381600087803b158015611ea957600080fd5b505af1158015611ebd573d6000803e3d6000fd5b505050506040513d601f19601f82011682018060405250810190611ee1919061233c565b50806060015173ffffffffffffffffffffffffffffffffffffffff1663a9059cbb3383608001516040518363ffffffff1660e01b8152600401611f25929190612954565b602060405180830381600087803b158015611f3f57600080fd5b505af1158015611f53573d6000803e3d6000fd5b505050506040513d601f19601f82011682018060405250810190611f77919061233c565b506120cc565b806060015173ffffffffffffffffffffffffffffffffffffffff166323b872dd33836040015184608001516040518463ffffffff1660e01b8152600401611fc69392919061291d565b602060405180830381600087803b158015611fe057600080fd5b505af1158015611ff4573d6000803e3d6000fd5b505050506040513d601f19601f82011682018060405250810190612018919061233c565b507f000000000000000000000000000000000000000000000000000000000000000073ffffffffffffffffffffffffffffffffffffffff1663a9059cbb338360a001516040518363ffffffff1660e01b8152600401612078929190612954565b602060405180830381600087803b15801561209257600080fd5b505af11580156120a6573d6000803e3d6000fd5b505050506040513d601f19601f820116820180604052508101906120ca919061233c565b505b6040518060400160405280600981526020017f657865726369736564000000000000000000000000000000000000000000000081525060026000848152602001908152602001600020600101908051906020019061212b9291906121f2565b503373ffffffffffffffffffffffffffffffffffffffff16816040015173ffffffffffffffffffffffffffffffffffffffff167fbe38b3704166f0e904f93963eae13ca02ec939a255af46a3340dcdfeb2ee28998460405161218d9190612b49565b60405180910390a35050565b6000816040516020016121ac91906128eb565b60405160208183030381529060405280519060200120836040516020016121d391906128eb565b6040516020818303038152906040528051906020012014905092915050565b8280546121fe90612db2565b90600052602060002090601f0160209004810192826122205760008555612267565b82601f1061223957805160ff1916838001178555612267565b82800160010185558215612267579182015b8281111561226657825182559160200191906001019061224b565b5b5090506122749190612278565b5090565b5b80821115612291576000816000905550600101612279565b5090565b60006122a86122a384612c12565b612be1565b9050828152602081018484840111156122c057600080fd5b6122cb848285612d70565b509392505050565b6000813590506122e281612efa565b92915050565b6000815190506122f781612f11565b92915050565b600082601f83011261230e57600080fd5b813561231e848260208601612295565b91505092915050565b60008135905061233681612f28565b92915050565b60006020828403121561234e57600080fd5b600061235c848285016122e8565b91505092915050565b600080600080600060a0868803121561237d57600080fd5b600086013567ffffffffffffffff81111561239757600080fd5b6123a3888289016122fd565b95505060206123b488828901612327565b94505060406123c5888289016122d3565b93505060606123d688828901612327565b92505060806123e788828901612327565b9150509295509295909350565b60006020828403121561240657600080fd5b600061241484828501612327565b91505092915050565b6000806040838503121561243057600080fd5b600061243e85828601612327565b925050602061244f85828601612327565b9150509250929050565b61246281612d28565b82525050565b600061247382612c42565b61247d8185612c4d565b935061248d818560208601612d7f565b61249681612ee9565b840191505092915050565b60006124ac82612c42565b6124b68185612c5e565b93506124c6818560208601612d7f565b80840191505092915050565b60006124df601d83612c4d565b91507f54726164652068617320616c7265616479206265656e20636c6f7365640000006000830152602082019050919050565b600061251f602783612c4d565b91507f4f7074696f6e2074797065206d6179206f6e6c79206265202763616c6c27206f60008301527f72202770757427000000000000000000000000000000000000000000000000006020830152604082019050919050565b6000612585601a83612c4d565b91507f4f7074696f6e20686173206e6f742065787069726564207965740000000000006000830152602082019050919050565b60006125c5601283612c4d565b91507f4f7074696f6e20686173206578706972656400000000000000000000000000006000830152602082019050919050565b6000612605602c83612c4d565b91507f4f6e6c7920746865206f776e6572206f6620746865206f7074696f6e206d617960008301527f20657865726369736520697400000000000000000000000000000000000000006020830152604082019050919050565b600061266b602d83612c4d565b91507f4f6e6c792074686520777269746572206d617920636f6c6c65637420616e206560008301527f787069726564206f7074696f6e000000000000000000000000000000000000006020830152604082019050919050565b60006126d1602e83612c4d565b91507f4f7074696f6e2068617320616c7265616479206265656e20657865726369736560008301527f64206f7220636f6c6c65637465640000000000000000000000000000000000006020830152604082019050919050565b6000612737601c83612c4d565b91507f457870697279206d75737420626520696e2074686520667574757265000000006000830152602082019050919050565b6000612777603483612c4d565b91507f4f6e6c7920746865206f776e6572206f6620746865206f7074696f6e206d617960008301527f206f70656e206120747261646520666f722069740000000000000000000000006020830152604082019050919050565b60006127dd602283612c4d565b91507f4f6e6c792074686520706f73746572206d61792063616e63656c20612074726160008301527f64650000000000000000000000000000000000000000000000000000000000006020830152604082019050919050565b6000612843602083612c4d565b91507f4f6e6c79206f70656e20747261646573206d61792062652065786563757465646000830152602082019050919050565b6000612883602183612c4d565b91507f4f7074696f6e2068617320616c7265616479206265656e20657865726369736560008301527f64000000000000000000000000000000000000000000000000000000000000006020830152604082019050919050565b6128e581612d66565b82525050565b60006128f782846124a1565b915081905092915050565b60006020820190506129176000830184612459565b92915050565b60006060820190506129326000830186612459565b61293f6020830185612459565b61294c60408301846128dc565b949350505050565b60006040820190506129696000830185612459565b61297660208301846128dc565b9392505050565b60006080820190506129926000830187612459565b61299f60208301866128dc565b6129ac60408301856128dc565b81810360608301526129be8184612468565b905095945050505050565b600060208201905081810360008301526129e2816124d2565b9050919050565b60006020820190508181036000830152612a0281612512565b9050919050565b60006020820190508181036000830152612a2281612578565b9050919050565b60006020820190508181036000830152612a42816125b8565b9050919050565b60006020820190508181036000830152612a62816125f8565b9050919050565b60006020820190508181036000830152612a828161265e565b9050919050565b60006020820190508181036000830152612aa2816126c4565b9050919050565b60006020820190508181036000830152612ac28161272a565b9050919050565b60006020820190508181036000830152612ae28161276a565b9050919050565b60006020820190508181036000830152612b02816127d0565b9050919050565b60006020820190508181036000830152612b2281612836565b9050919050565b60006020820190508181036000830152612b4281612876565b9050919050565b6000602082019050612b5e60008301846128dc565b92915050565b600060e082019050612b79600083018a6128dc565b8181036020830152612b8b8189612468565b9050612b9a6040830188612459565b612ba76060830187612459565b612bb460808301866128dc565b612bc160a08301856128dc565b81810360c0830152612bd38184612468565b905098975050505050505050565b6000604051905081810181811067ffffffffffffffff82111715612c0857612c07612eba565b5b8060405250919050565b600067ffffffffffffffff821115612c2d57612c2c612eba565b5b601f19601f8301169050602081019050919050565b600081519050919050565b600082825260208201905092915050565b600081905092915050565b6000612c7482612d66565b9150612c7f83612d66565b925082612c8f57612c8e612e5c565b5b828204905092915050565b6000612ca582612d66565b9150612cb083612d66565b9250817fffffffffffffffffffffffffffffffffffffffffffffffffffffffffffffffff0483118215151615612ce957612ce8612e2d565b5b828202905092915050565b6000612cff82612d66565b9150612d0a83612d66565b925082821015612d1d57612d1c612e2d565b5b828203905092915050565b6000612d3382612d46565b9050919050565b60008115159050919050565b600073ffffffffffffffffffffffffffffffffffffffff82169050919050565b6000819050919050565b82818337600083830152505050565b60005b83811015612d9d578082015181840152602081019050612d82565b83811115612dac576000848401525b50505050565b60006002820490506001821680612dca57607f821691505b60208210811415612dde57612ddd612e8b565b5b50919050565b6000612def82612d66565b91507fffffffffffffffffffffffffffffffffffffffffffffffffffffffffffffffff821415612e2257612e21612e2d565b5b600182019050919050565b7f4e487b7100000000000000000000000000000000000000000000000000000000600052601160045260246000fd5b7f4e487b7100000000000000000000000000000000000000000000000000000000600052601260045260246000fd5b7f4e487b7100000000000000000000000000000000000000000000000000000000600052602260045260246000fd5b7f4e487b7100000000000000000000000000000000000000000000000000000000600052604160045260246000fd5b6000601f19601f8301169050919050565b612f0381612d28565b8114612f0e57600080fd5b50565b612f1a81612d3a565b8114612f2557600080fd5b50565b612f3181612d66565b8114612f3c57600080fd5b5056fea26469706673582212204982e42d9563dc8f872750c00215bcc588ce02b475179245842372b7b9c5089164736f6c63430008000033",
  "immutableReferences": {
    "126": [
      {
        "length": 32,
        "start": 1111
      },
      {
        "length": 32,
        "start": 1291
      },
      {
        "length": 32,
        "start": 4656
      },
      {
        "length": 32,
        "start": 5315
      },
      {
        "length": 32,
        "start": 6483
      },
      {
        "length": 32,
        "start": 7724
      },
      {
        "length": 32,
        "start": 8219
      }
    ]
  },
  "source": "// SPDX-License-Identifier: GPL-3.0-only\npragma solidity ^0.8.0;\n\nimport \"@openzeppelin/contracts/token/ERC20/IERC20.sol\";\n\ncontract OptionsMarket {\n    // Admin access\n    address private owner;\n\n    // Option data\n    struct Option {\n        uint256 expiry;\n        string status; // none, exercised, collected\n        address writer;\n        address tokenAddress;\n        uint256 amount;\n        uint256 price;\n        string optionType; // call, put\n    }\n\n    uint256 private optionId;\n    mapping(uint256 => Option) private options;\n    mapping(uint256 => address) private optionOwners;\n\n    // Trade data\n    struct Trade {\n        address poster;\n        uint256 optionId;\n        uint256 price;\n        string status; // open, closed, cancelled\n    }\n\n    uint256 private tradeId;\n    mapping(uint256 => Trade) private trades;\n    address private immutable tradeCurrency;\n\n    constructor(address currency) {\n        // Set the owner as the deployer of the contract and set the currency of the trades\n        owner = msg.sender;\n        tradeCurrency = currency;\n    }\n\n    // Declare events for logging data\n    event OptionWritten(uint256 optionId, address indexed writer);\n    event OptionExercised(uint256 optionId, address indexed writer, address indexed exerciser);\n    event TradeOpened(uint256 tradeId, address indexed poster);\n    event TradeExecuted(uint256 tradeId, address indexed buyer);\n    event TradeCancelled(uint256 tradeId);\n\n    // ============= Util functions =============\n\n    // Compare if two strings are equal\n    function _compareStrings(string memory a, string memory b) private pure returns (bool) {\n        return keccak256(abi.encodePacked(a)) == keccak256(abi.encodePacked(b));\n    }\n\n    // Get the trade currency of the token\n    function getTradeCurrency() public view returns (address) {\n        return tradeCurrency;\n    }\n\n    // ============= Option functions =============\n\n    // Allow the address to create a new option\n    function writeOption(string memory optionType, uint256 expiry, address tokenAddress, uint256 amount, uint256 price) public returns (uint256) {\n        // Check that the option is valid\n        require(_compareStrings(optionType, \"call\") || _compareStrings(optionType, \"put\"), \"Option type may only be 'call' or 'put'\");\n        require(expiry > block.timestamp, \"Expiry must be in the future\");\n\n        // Write a new option\n        Option memory option = Option({\n            expiry: expiry,\n            status: \"none\",\n            writer: msg.sender,\n            tokenAddress: tokenAddress,\n            amount: amount,\n            price: price,\n            optionType: optionType\n        });\n\n        // If this is a call then transfer the amount of the token to the contract,\n        // otherwise if a put then transfer the trade currency to the contract\n        if (_compareStrings(optionType, \"call\")) {\n            IERC20(tokenAddress).transferFrom(msg.sender, address(this), amount); \n        } else {\n            IERC20(tradeCurrency).transferFrom(msg.sender, address(this), price);\n        }\n\n        // Save the option\n        options[optionId] = option;\n        optionOwners[optionId] = msg.sender;\n        optionId++;\n\n        // Emit an event and return the id of the option\n        emit OptionWritten(optionId - 1, msg.sender);\n        return optionId - 1;\n    }\n\n    // Get the data of an option\n    function getOption(uint256 _optionId) public view returns (uint256, string memory, address, address, uint256, uint256, string memory) {\n        Option memory option = options[_optionId];\n        return (option.expiry, option.status, option.writer, option.tokenAddress, option.amount, option.price, option.optionType);\n    }\n\n    // Get the owner of an option\n    function getOptionOwner(uint256 _optionId) public view returns (address) {\n        return optionOwners[_optionId];\n    }\n\n    // Allow a option holder to exercise their option\n    function exerciseOption(uint256 _optionId) public {\n        // Get the data of the option\n        Option memory option = options[_optionId];\n\n        // Check that the option may be exercised\n        require(option.expiry >= block.timestamp, \"Option has expired\");\n        require(_compareStrings(option.status, \"none\"), \"Option has already been exercised\");\n        require(optionOwners[_optionId] == msg.sender, \"Only the owner of the option may exercise it\");\n\n        // If the option is a call, then charge the user the premium to receive the tokens,\n        // else if the option is a put, transfer their tokens\n        if (_compareStrings(option.optionType, \"call\")) {\n            IERC20(tradeCurrency).transferFrom(msg.sender, option.writer, option.price);\n            IERC20(option.tokenAddress).transfer(msg.sender, option.amount);\n        } else {\n            IERC20(option.tokenAddress).transferFrom(msg.sender, option.writer, option.amount);\n            IERC20(tradeCurrency).transfer(msg.sender, option.price);\n        }\n\n        // Update the status of the option and emit event\n        options[_optionId].status = \"exercised\";\n        emit OptionExercised(_optionId, option.writer, msg.sender);\n    }\n\n    // Allow a writer to collect an expired contract\n    function collectExpired(uint256 _optionId) public {\n        // Get the data of the option\n        Option memory option = options[_optionId];\n\n        // Check that the option may be collected\n        require(option.expiry < block.timestamp, \"Option has not expired yet\");\n        require(_compareStrings(option.status, \"none\"), \"Option has already been exercised or collected\");\n        require(option.writer == msg.sender, \"Only the writer may collect an expired option\");\n\n        // If the option is a call then transfer the tokens back to the writer,\n        // otherwise transfer the price back to the writer\n        if (_compareStrings(option.optionType, \"call\")) {\n            IERC20(option.tokenAddress).transfer(msg.sender, option.amount);\n        } else {\n            IERC20(tradeCurrency).transfer(msg.sender, option.price);\n        }\n\n        // Update the status of the option\n        options[_optionId].status = \"collected\";\n    }\n\n    // ============= Marketplace functions =============\n\n    // Open a new trade for selling an option\n    function openTrade(uint256 _optionId, uint256 price) public returns (uint256) {\n        // Check that the trade may be opened\n        require(optionOwners[_optionId] == msg.sender, \"Only the owner of the option may open a trade for it\");\n\n        // Create a new trade\n        Trade memory trade = Trade({\n            poster: msg.sender,\n            optionId: _optionId,\n            price: price,\n            status: \"open\"\n        });\n\n        // Store the new trade\n        trades[tradeId] = trade;\n        tradeId++;\n\n        // Transfer the option to the contract\n        optionOwners[_optionId] = address(this);\n\n        // Emit an event and return the trade id\n        emit TradeOpened(tradeId - 1, msg.sender);\n        return tradeId - 1;\n    }\n\n    // Execute a trade for buying an option\n    function executeTrade(uint256 _tradeId) public {\n        // Get the trade\n        Trade memory trade = trades[_tradeId];\n\n        // Verify that the trade status is valid\n        require(_compareStrings(trade.status, \"open\"), \"Only open trades may be executed\");\n\n        // Transfer the option\n        optionOwners[trade.optionId] = msg.sender;\n\n        // Charge the recipient and pay a fee to the owner\n        uint256 fee = trade.price * 3 / 100; \n        uint256 payout = trade.price - fee;\n        IERC20(tradeCurrency).transferFrom(msg.sender, trade.poster, payout);\n        IERC20(tradeCurrency).transferFrom(msg.sender, owner, fee);\n\n        // Update the status of the trade\n        trades[_tradeId].status = \"closed\";\n\n        // Emit an event\n        emit TradeExecuted(_tradeId, msg.sender);\n    }\n\n    // View a trade\n    function getTrade(uint256 _tradeId) public view returns (address, uint256, uint256, string memory) {\n        Trade memory trade = trades[_tradeId];\n        return (trade.poster, trade.optionId, trade.price, trade.status);\n    }\n\n    // Cancel a trade\n    function cancelTrade(uint256 _tradeId) public {\n        // Get the trade\n        Trade memory trade = trades[_tradeId];\n\n        // Check that the trade may be cancelled\n        require(trade.poster == msg.sender, \"Only the poster may cancel a trade\");\n        require(!_compareStrings(trade.status, \"closed\"), \"Trade has already been closed\");\n\n        // Transfer the option back to the poster\n        optionOwners[trade.optionId] = msg.sender;\n\n        // Set status to cancelled\n        trades[_tradeId].status = \"cancelled\";\n\n        // Emit an event\n        emit TradeCancelled(_tradeId);\n    }\n}",
  "sourcePath": "/home/ben/Code/Crypto-Options/src/dapp/contracts/OptionsMarket.sol",
  "compiler": {
    "name": "solc",
    "version": "0.8.0+commit.c7dfd78e.Emscripten.clang"
  },
  "schemaVersion": "3.4.3",
  "updatedAt": "2021-09-26T09:11:58.957Z",
  "networkType": "ethereum",
  "devdoc": {
    "kind": "dev",
    "methods": {},
    "version": 1
  },
  "userdoc": {
    "kind": "user",
    "methods": {},
    "version": 1
  }
}