{
  "contractName": "OptionsMarket",
  "abi": [
    {
      "inputs": [
        {
          "internalType": "address",
          "name": "currency",
          "type": "address"
        }
      ],
      "stateMutability": "nonpayable",
      "type": "constructor"
    },
    {
      "anonymous": false,
      "inputs": [
        {
          "indexed": false,
          "internalType": "uint256",
          "name": "optionId",
          "type": "uint256"
        },
        {
          "indexed": true,
          "internalType": "address",
          "name": "writer",
          "type": "address"
        },
        {
          "indexed": true,
          "internalType": "address",
          "name": "exerciser",
          "type": "address"
        }
      ],
      "name": "OptionExercised",
      "type": "event"
    },
    {
      "anonymous": false,
      "inputs": [
        {
          "indexed": false,
          "internalType": "uint256",
          "name": "optionId",
          "type": "uint256"
        },
        {
          "indexed": true,
          "internalType": "address",
          "name": "writer",
          "type": "address"
        }
      ],
      "name": "OptionWritten",
      "type": "event"
    },
    {
      "anonymous": false,
      "inputs": [
        {
          "indexed": false,
          "internalType": "uint256",
          "name": "tradeId",
          "type": "uint256"
        }
      ],
      "name": "TradeCancelled",
      "type": "event"
    },
    {
      "anonymous": false,
      "inputs": [
        {
          "indexed": false,
          "internalType": "uint256",
          "name": "tradeId",
          "type": "uint256"
        },
        {
          "indexed": true,
          "internalType": "address",
          "name": "buyer",
          "type": "address"
        }
      ],
      "name": "TradeExecuted",
      "type": "event"
    },
    {
      "anonymous": false,
      "inputs": [
        {
          "indexed": false,
          "internalType": "uint256",
          "name": "tradeId",
          "type": "uint256"
        },
        {
          "indexed": true,
          "internalType": "address",
          "name": "poster",
          "type": "address"
        }
      ],
      "name": "TradeOpened",
      "type": "event"
    },
    {
      "inputs": [],
      "name": "getTradeCurrency",
      "outputs": [
        {
          "internalType": "address",
          "name": "",
          "type": "address"
        }
      ],
      "stateMutability": "view",
      "type": "function",
      "constant": true
    },
    {
      "inputs": [],
      "name": "getTokenAmountPerUnit",
      "outputs": [
        {
          "internalType": "uint256",
          "name": "",
          "type": "uint256"
        }
      ],
      "stateMutability": "pure",
      "type": "function",
      "constant": true
    },
    {
      "inputs": [],
      "name": "getUnitsPerOption",
      "outputs": [
        {
          "internalType": "uint8",
          "name": "",
          "type": "uint8"
        }
      ],
      "stateMutability": "pure",
      "type": "function",
      "constant": true
    },
    {
      "inputs": [
        {
          "internalType": "string",
          "name": "optionType",
          "type": "string"
        },
        {
          "internalType": "uint256",
          "name": "expiry",
          "type": "uint256"
        },
        {
          "internalType": "address",
          "name": "tokenAddress",
          "type": "address"
        },
        {
          "internalType": "uint256",
          "name": "strikePrice",
          "type": "uint256"
        }
      ],
      "name": "writeOption",
      "outputs": [
        {
          "internalType": "uint256",
          "name": "",
          "type": "uint256"
        }
      ],
      "stateMutability": "nonpayable",
      "type": "function"
    },
    {
      "inputs": [
        {
          "internalType": "uint256",
          "name": "_optionId",
          "type": "uint256"
        }
      ],
      "name": "getOption",
      "outputs": [
        {
          "internalType": "uint256",
          "name": "",
          "type": "uint256"
        },
        {
          "internalType": "string",
          "name": "",
          "type": "string"
        },
        {
          "internalType": "address",
          "name": "",
          "type": "address"
        },
        {
          "internalType": "address",
          "name": "",
          "type": "address"
        },
        {
          "internalType": "uint256",
          "name": "",
          "type": "uint256"
        },
        {
          "internalType": "string",
          "name": "",
          "type": "string"
        }
      ],
      "stateMutability": "view",
      "type": "function",
      "constant": true
    },
    {
      "inputs": [
        {
          "internalType": "uint256",
          "name": "_optionId",
          "type": "uint256"
        }
      ],
      "name": "getOptionOwner",
      "outputs": [
        {
          "internalType": "address",
          "name": "",
          "type": "address"
        }
      ],
      "stateMutability": "view",
      "type": "function",
      "constant": true
    },
    {
      "inputs": [
        {
          "internalType": "uint256",
          "name": "_optionId",
          "type": "uint256"
        }
      ],
      "name": "exerciseOption",
      "outputs": [],
      "stateMutability": "nonpayable",
      "type": "function"
    },
    {
      "inputs": [
        {
          "internalType": "uint256",
          "name": "_optionId",
          "type": "uint256"
        }
      ],
      "name": "collectExpired",
      "outputs": [],
      "stateMutability": "nonpayable",
      "type": "function"
    },
    {
      "inputs": [
        {
          "internalType": "uint256",
          "name": "_optionId",
          "type": "uint256"
        },
        {
          "internalType": "uint256",
          "name": "premium",
          "type": "uint256"
        }
      ],
      "name": "openTrade",
      "outputs": [
        {
          "internalType": "uint256",
          "name": "",
          "type": "uint256"
        }
      ],
      "stateMutability": "nonpayable",
      "type": "function"
    },
    {
      "inputs": [
        {
          "internalType": "uint256",
          "name": "_tradeId",
          "type": "uint256"
        }
      ],
      "name": "executeTrade",
      "outputs": [],
      "stateMutability": "nonpayable",
      "type": "function"
    },
    {
      "inputs": [
        {
          "internalType": "uint256",
          "name": "_tradeId",
          "type": "uint256"
        }
      ],
      "name": "getTrade",
      "outputs": [
        {
          "internalType": "address",
          "name": "",
          "type": "address"
        },
        {
          "internalType": "uint256",
          "name": "",
          "type": "uint256"
        },
        {
          "internalType": "uint256",
          "name": "",
          "type": "uint256"
        },
        {
          "internalType": "string",
          "name": "",
          "type": "string"
        }
      ],
      "stateMutability": "view",
      "type": "function",
      "constant": true
    },
    {
      "inputs": [
        {
          "internalType": "uint256",
          "name": "_tradeId",
          "type": "uint256"
        }
      ],
      "name": "cancelTrade",
      "outputs": [],
      "stateMutability": "nonpayable",
      "type": "function"
    }
  ],
  "bytecode": "0x60a06040523480156200001157600080fd5b50604051620036c1380380620036c18339818101604052810190620000379190620000d8565b336000806101000a81548173ffffffffffffffffffffffffffffffffffffffff021916908373ffffffffffffffffffffffffffffffffffffffff1602179055508073ffffffffffffffffffffffffffffffffffffffff1660808173ffffffffffffffffffffffffffffffffffffffff166c0100000000000000000000000002815250505062000152565b600081519050620000d28162000138565b92915050565b600060208284031215620000eb57600080fd5b6000620000fb84828501620000c1565b91505092915050565b6000620001118262000118565b9050919050565b600073ffffffffffffffffffffffffffffffffffffffff82169050919050565b620001438162000104565b81146200014f57600080fd5b50565b6080516c010000000000000000000000009004613519620001a8600039600081816105560152818161062601528181611201015281816116c601528181611bf10152818161225d01526124d501526135196000f3fe608060405234801561001057600080fd5b50600436106100d1576000357c0100000000000000000000000000000000000000000000000000000000900480637f03e1ab1161008e5780637f03e1ab146101c457806381495953146101e2578063ab91da7f14610212578063b7b4ea0414610230578063c727010d1461024c578063f52f25261461027c576100d1565b806302d2838b146100d657806309ec6cc7146100f25780630c493fba1461010e5780630df7e4971461013e5780631ce5e9a61461015c5780632db25e0514610191575b600080fd5b6100f060048036038101906100eb91906128ac565b610298565b005b61010c600480360381019061010791906128ac565b6107c4565b005b610128600480360381019061012391906128d5565b610ac8565b604051610135919061311c565b60405180910390f35b610146610e66565b60405161015391906131a6565b60405180910390f35b610176600480360381019061017191906128ac565b610e6f565b60405161018896959493929190613137565b60405180910390f35b6101ab60048036038101906101a691906128ac565b6110b4565b6040516101bb9493929190612f10565b60405180910390f35b6101cc6111fd565b6040516101d99190612e95565b60405180910390f35b6101fc60048036038101906101f791906128ac565b611225565b6040516102099190612e95565b60405180910390f35b61021a611262565b604051610227919061311c565b60405180910390f35b61024a600480360381019061024591906128ac565b611272565b005b6102666004803603810190610261919061282c565b611806565b604051610273919061311c565b60405180910390f35b610296600480360381019061029191906128ac565b611ea3565b005b6000600560008381526020019081526020016000206040518060800160405290816000820160009054906101000a900473ffffffffffffffffffffffffffffffffffffffff1673ffffffffffffffffffffffffffffffffffffffff1673ffffffffffffffffffffffffffffffffffffffff168152602001600182015481526020016002820154815260200160038201805461033290613385565b80601f016020809104026020016040519081016040528092919081815260200182805461035e90613385565b80156103ab5780601f10610380576101008083540402835291602001916103ab565b820191906000526020600020905b81548152906001019060200180831161038e57829003601f168201915b50505050508152505090506103f981606001516040518060400160405280600481526020017f6f70656e0000000000000000000000000000000000000000000000000000000081525061267e565b610438576040517f08c379a000000000000000000000000000000000000000000000000000000000815260040161042f906130dc565b60405180910390fd5b806000015173ffffffffffffffffffffffffffffffffffffffff163373ffffffffffffffffffffffffffffffffffffffff1614156104ab576040517f08c379a00000000000000000000000000000000000000000000000000000000081526004016104a29061301c565b60405180910390fd5b33600360008360200151815260200190815260200160002060006101000a81548173ffffffffffffffffffffffffffffffffffffffff021916908373ffffffffffffffffffffffffffffffffffffffff160217905550600060646003606460ff16846040015161051b919061326f565b610525919061326f565b61052f919061323e565b9050600081606460ff168460400151610548919061326f565b61055291906132c9565b90507f000000000000000000000000000000000000000000000000000000000000000073ffffffffffffffffffffffffffffffffffffffff166323b872dd338560000151846040518463ffffffff167c01000000000000000000000000000000000000000000000000000000000281526004016105d193929190612eb0565b602060405180830381600087803b1580156105eb57600080fd5b505af11580156105ff573d6000803e3d6000fd5b505050506040513d601f19601f820116820180604052508101906106239190612803565b507f000000000000000000000000000000000000000000000000000000000000000073ffffffffffffffffffffffffffffffffffffffff166323b872dd3360008054906101000a900473ffffffffffffffffffffffffffffffffffffffff16856040518463ffffffff167c01000000000000000000000000000000000000000000000000000000000281526004016106bd93929190612eb0565b602060405180830381600087803b1580156106d757600080fd5b505af11580156106eb573d6000803e3d6000fd5b505050506040513d601f19601f8201168201806040525081019061070f9190612803565b506040518060400160405280600681526020017f636c6f736564000000000000000000000000000000000000000000000000000081525060056000868152602001908152602001600020600301908051906020019061076f9291906126d7565b503373ffffffffffffffffffffffffffffffffffffffff167f2f999a7ea97ae4d5b2ee9cc0c93865dc0eeff8748b89107bda512070e182276b856040516107b6919061311c565b60405180910390a250505050565b6000600560008381526020019081526020016000206040518060800160405290816000820160009054906101000a900473ffffffffffffffffffffffffffffffffffffffff1673ffffffffffffffffffffffffffffffffffffffff1673ffffffffffffffffffffffffffffffffffffffff168152602001600182015481526020016002820154815260200160038201805461085e90613385565b80601f016020809104026020016040519081016040528092919081815260200182805461088a90613385565b80156108d75780601f106108ac576101008083540402835291602001916108d7565b820191906000526020600020905b8154815290600101906020018083116108ba57829003601f168201915b50505050508152505090503373ffffffffffffffffffffffffffffffffffffffff16816000015173ffffffffffffffffffffffffffffffffffffffff1614610954576040517f08c379a000000000000000000000000000000000000000000000000000000000815260040161094b906130bc565b60405180910390fd5b61099781606001516040518060400160405280600681526020017f636c6f736564000000000000000000000000000000000000000000000000000081525061267e565b156109d7576040517f08c379a00000000000000000000000000000000000000000000000000000000081526004016109ce90612f5c565b60405180910390fd5b33600360008360200151815260200190815260200160002060006101000a81548173ffffffffffffffffffffffffffffffffffffffff021916908373ffffffffffffffffffffffffffffffffffffffff1602179055506040518060400160405280600981526020017f63616e63656c6c65640000000000000000000000000000000000000000000000815250600560008481526020019081526020016000206003019080519060200190610a8c9291906126d7565b507f4e02dcf02d8510f6c8a6878a3c54ae6e2bfbf552df29221d7a1eed173a6b1ae782604051610abc919061311c565b60405180910390a15050565b60003373ffffffffffffffffffffffffffffffffffffffff166003600085815260200190815260200160002060009054906101000a900473ffffffffffffffffffffffffffffffffffffffff1673ffffffffffffffffffffffffffffffffffffffff1614610b6b576040517f08c379a0000000000000000000000000000000000000000000000000000000008152600401610b629061309c565b60405180910390fd5b610c48600260008581526020019081526020016000206001018054610b8f90613385565b80601f0160208091040260200160405190810160405280929190818152602001828054610bbb90613385565b8015610c085780601f10610bdd57610100808354040283529160200191610c08565b820191906000526020600020905b815481529060010190602001808311610beb57829003601f168201915b50505050506040518060400160405280600481526020017f6e6f6e650000000000000000000000000000000000000000000000000000000081525061267e565b610c87576040517f08c379a0000000000000000000000000000000000000000000000000000000008152600401610c7e9061303c565b60405180910390fd5b600060405180608001604052803373ffffffffffffffffffffffffffffffffffffffff1681526020018581526020018481526020016040518060400160405280600481526020017f6f70656e0000000000000000000000000000000000000000000000000000000081525081525090508060056000600454815260200190815260200160002060008201518160000160006101000a81548173ffffffffffffffffffffffffffffffffffffffff021916908373ffffffffffffffffffffffffffffffffffffffff16021790555060208201518160010155604082015181600201556060820151816003019080519060200190610d849291906126d7565b5090505060046000815480929190610d9b906133b7565b9190505550306003600086815260200190815260200160002060006101000a81548173ffffffffffffffffffffffffffffffffffffffff021916908373ffffffffffffffffffffffffffffffffffffffff1602179055503373ffffffffffffffffffffffffffffffffffffffff167f07bfee712f55f28cac8ac1eaaf90b2d2086d6b07488f352f2bf38d4a0dcf520c6001600454610e3991906132c9565b604051610e46919061311c565b60405180910390a26001600454610e5d91906132c9565b91505092915050565b60006064905090565b60006060600080600060606000600260008981526020019081526020016000206040518060c001604052908160008201548152602001600182018054610eb490613385565b80601f0160208091040260200160405190810160405280929190818152602001828054610ee090613385565b8015610f2d5780601f10610f0257610100808354040283529160200191610f2d565b820191906000526020600020905b815481529060010190602001808311610f1057829003601f168201915b505050505081526020016002820160009054906101000a900473ffffffffffffffffffffffffffffffffffffffff1673ffffffffffffffffffffffffffffffffffffffff1673ffffffffffffffffffffffffffffffffffffffff1681526020016003820160009054906101000a900473ffffffffffffffffffffffffffffffffffffffff1673ffffffffffffffffffffffffffffffffffffffff1673ffffffffffffffffffffffffffffffffffffffff16815260200160048201548152602001600582018054610ffc90613385565b80601f016020809104026020016040519081016040528092919081815260200182805461102890613385565b80156110755780601f1061104a57610100808354040283529160200191611075565b820191906000526020600020905b81548152906001019060200180831161105857829003601f168201915b5050505050815250509050806000015181602001518260400151836060015184608001518560a001519650965096509650965096505091939550919395565b600080600060606000600560008781526020019081526020016000206040518060800160405290816000820160009054906101000a900473ffffffffffffffffffffffffffffffffffffffff1673ffffffffffffffffffffffffffffffffffffffff1673ffffffffffffffffffffffffffffffffffffffff168152602001600182015481526020016002820154815260200160038201805461115590613385565b80601f016020809104026020016040519081016040528092919081815260200182805461118190613385565b80156111ce5780601f106111a3576101008083540402835291602001916111ce565b820191906000526020600020905b8154815290600101906020018083116111b157829003601f168201915b505050505081525050905080600001518160200151826040015183606001519450945094509450509193509193565b60007f0000000000000000000000000000000000000000000000000000000000000000905090565b60006003600083815260200190815260200160002060009054906101000a900473ffffffffffffffffffffffffffffffffffffffff169050919050565b6000678ac7230489e80000905090565b6000600260008381526020019081526020016000206040518060c0016040529081600082015481526020016001820180546112ac90613385565b80601f01602080910402602001604051908101604052809291908181526020018280546112d890613385565b80156113255780601f106112fa57610100808354040283529160200191611325565b820191906000526020600020905b81548152906001019060200180831161130857829003601f168201915b505050505081526020016002820160009054906101000a900473ffffffffffffffffffffffffffffffffffffffff1673ffffffffffffffffffffffffffffffffffffffff1673ffffffffffffffffffffffffffffffffffffffff1681526020016003820160009054906101000a900473ffffffffffffffffffffffffffffffffffffffff1673ffffffffffffffffffffffffffffffffffffffff1673ffffffffffffffffffffffffffffffffffffffff168152602001600482015481526020016005820180546113f490613385565b80601f016020809104026020016040519081016040528092919081815260200182805461142090613385565b801561146d5780601f106114425761010080835404028352916020019161146d565b820191906000526020600020905b81548152906001019060200180831161145057829003601f168201915b5050505050815250509050428160000151106114be576040517f08c379a00000000000000000000000000000000000000000000000000000000081526004016114b590612f9c565b60405180910390fd5b61150181602001516040518060400160405280600481526020017f6e6f6e650000000000000000000000000000000000000000000000000000000081525061267e565b611540576040517f08c379a00000000000000000000000000000000000000000000000000000000081526004016115379061305c565b60405180910390fd5b3373ffffffffffffffffffffffffffffffffffffffff16816040015173ffffffffffffffffffffffffffffffffffffffff16146115b2576040517f08c379a00000000000000000000000000000000000000000000000000000000081526004016115a990612ffc565b60405180910390fd5b6115f58160a001516040518060400160405280600481526020017f63616c6c0000000000000000000000000000000000000000000000000000000081525061267e565b156116c457806060015173ffffffffffffffffffffffffffffffffffffffff1663a9059cbb33678ac7230489e80000606460ff16611633919061326f565b6040518363ffffffff167c010000000000000000000000000000000000000000000000000000000002815260040161166c929190612ee7565b602060405180830381600087803b15801561168657600080fd5b505af115801561169a573d6000803e3d6000fd5b505050506040513d601f19601f820116820180604052508101906116be9190612803565b506117a2565b7f000000000000000000000000000000000000000000000000000000000000000073ffffffffffffffffffffffffffffffffffffffff1663a9059cbb33606460ff168460800151611715919061326f565b6040518363ffffffff167c010000000000000000000000000000000000000000000000000000000002815260040161174e929190612ee7565b602060405180830381600087803b15801561176857600080fd5b505af115801561177c573d6000803e3d6000fd5b505050506040513d601f19601f820116820180604052508101906117a09190612803565b505b6040518060400160405280600981526020017f636f6c6c656374656400000000000000000000000000000000000000000000008152506002600084815260200190815260200160002060010190805190602001906118019291906126d7565b505050565b60008062093a8085611818919061323e565b905060006206978062093a808361182f919061326f565b61183991906131e8565b90506118be88888080601f016020809104026020016040519081016040528093929190818152602001838380828437600081840152601f19601f820116905080830192505050505050506040518060400160405280600481526020017f63616c6c0000000000000000000000000000000000000000000000000000000081525061267e565b80611948575061194788888080601f016020809104026020016040519081016040528093929190818152602001838380828437600081840152601f19601f820116905080830192505050505050506040518060400160405280600381526020017f707574000000000000000000000000000000000000000000000000000000000081525061267e565b5b611987576040517f08c379a000000000000000000000000000000000000000000000000000000000815260040161197e90612f7c565b60405180910390fd5b4281116119c9576040517f08c379a00000000000000000000000000000000000000000000000000000000081526004016119c09061307c565b60405180910390fd5b60006040518060c001604052808381526020016040518060400160405280600481526020017f6e6f6e650000000000000000000000000000000000000000000000000000000081525081526020013373ffffffffffffffffffffffffffffffffffffffff1681526020018773ffffffffffffffffffffffffffffffffffffffff1681526020018681526020018a8a8080601f016020809104026020016040519081016040528093929190818152602001838380828437600081840152601f19601f820116905080830192505050505050508152509050611b2289898080601f016020809104026020016040519081016040528093929190818152602001838380828437600081840152601f19601f820116905080830192505050505050506040518060400160405280600481526020017f63616c6c0000000000000000000000000000000000000000000000000000000081525061267e565b15611bef578573ffffffffffffffffffffffffffffffffffffffff166323b872dd3330606460ff16678ac7230489e80000611b5d919061326f565b6040518463ffffffff167c0100000000000000000000000000000000000000000000000000000000028152600401611b9793929190612eb0565b602060405180830381600087803b158015611bb157600080fd5b505af1158015611bc5573d6000803e3d6000fd5b505050506040513d601f19601f82011682018060405250810190611be99190612803565b50611ccb565b7f000000000000000000000000000000000000000000000000000000000000000073ffffffffffffffffffffffffffffffffffffffff166323b872dd3330606460ff1689611c3d919061326f565b6040518463ffffffff167c0100000000000000000000000000000000000000000000000000000000028152600401611c7793929190612eb0565b602060405180830381600087803b158015611c9157600080fd5b505af1158015611ca5573d6000803e3d6000fd5b505050506040513d601f19601f82011682018060405250810190611cc99190612803565b505b80600260006001548152602001908152602001600020600082015181600001556020820151816001019080519060200190611d079291906126d7565b5060408201518160020160006101000a81548173ffffffffffffffffffffffffffffffffffffffff021916908373ffffffffffffffffffffffffffffffffffffffff16021790555060608201518160030160006101000a81548173ffffffffffffffffffffffffffffffffffffffff021916908373ffffffffffffffffffffffffffffffffffffffff1602179055506080820151816004015560a0820151816005019080519060200190611dbc9291906126d7565b509050503360036000600154815260200190815260200160002060006101000a81548173ffffffffffffffffffffffffffffffffffffffff021916908373ffffffffffffffffffffffffffffffffffffffff16021790555060016000815480929190611e27906133b7565b91905055503373ffffffffffffffffffffffffffffffffffffffff167f606b674c20bbe962b8ce1f7a665429824aed04ed5bf026fd882fd679373a73f160018054611e7291906132c9565b604051611e7f919061311c565b60405180910390a260018054611e9591906132c9565b935050505095945050505050565b6000600260008381526020019081526020016000206040518060c001604052908160008201548152602001600182018054611edd90613385565b80601f0160208091040260200160405190810160405280929190818152602001828054611f0990613385565b8015611f565780601f10611f2b57610100808354040283529160200191611f56565b820191906000526020600020905b815481529060010190602001808311611f3957829003601f168201915b505050505081526020016002820160009054906101000a900473ffffffffffffffffffffffffffffffffffffffff1673ffffffffffffffffffffffffffffffffffffffff1673ffffffffffffffffffffffffffffffffffffffff1681526020016003820160009054906101000a900473ffffffffffffffffffffffffffffffffffffffff1673ffffffffffffffffffffffffffffffffffffffff1673ffffffffffffffffffffffffffffffffffffffff1681526020016004820154815260200160058201805461202590613385565b80601f016020809104026020016040519081016040528092919081815260200182805461205190613385565b801561209e5780601f106120735761010080835404028352916020019161209e565b820191906000526020600020905b81548152906001019060200180831161208157829003601f168201915b505050505081525050905042816000015110156120f0576040517f08c379a00000000000000000000000000000000000000000000000000000000081526004016120e790612fbc565b60405180910390fd5b61213381602001516040518060400160405280600481526020017f6e6f6e650000000000000000000000000000000000000000000000000000000081525061267e565b612172576040517f08c379a0000000000000000000000000000000000000000000000000000000008152600401612169906130fc565b60405180910390fd5b3373ffffffffffffffffffffffffffffffffffffffff166003600084815260200190815260200160002060009054906101000a900473ffffffffffffffffffffffffffffffffffffffff1673ffffffffffffffffffffffffffffffffffffffff1614612213576040517f08c379a000000000000000000000000000000000000000000000000000000000815260040161220a90612fdc565b60405180910390fd5b6122568160a001516040518060400160405280600481526020017f63616c6c0000000000000000000000000000000000000000000000000000000081525061267e565b15612408577f000000000000000000000000000000000000000000000000000000000000000073ffffffffffffffffffffffffffffffffffffffff166323b872dd338360400151606460ff1685608001516122b1919061326f565b6040518463ffffffff167c01000000000000000000000000000000000000000000000000000000000281526004016122eb93929190612eb0565b602060405180830381600087803b15801561230557600080fd5b505af1158015612319573d6000803e3d6000fd5b505050506040513d601f19601f8201168201806040525081019061233d9190612803565b50806060015173ffffffffffffffffffffffffffffffffffffffff1663a9059cbb33678ac7230489e80000606460ff16612377919061326f565b6040518363ffffffff167c01000000000000000000000000000000000000000000000000000000000281526004016123b0929190612ee7565b602060405180830381600087803b1580156123ca57600080fd5b505af11580156123de573d6000803e3d6000fd5b505050506040513d601f19601f820116820180604052508101906124029190612803565b506125b1565b806060015173ffffffffffffffffffffffffffffffffffffffff166323b872dd338360400151678ac7230489e80000606460ff16612446919061326f565b6040518463ffffffff167c010000000000000000000000000000000000000000000000000000000002815260040161248093929190612eb0565b602060405180830381600087803b15801561249a57600080fd5b505af11580156124ae573d6000803e3d6000fd5b505050506040513d601f19601f820116820180604052508101906124d29190612803565b507f000000000000000000000000000000000000000000000000000000000000000073ffffffffffffffffffffffffffffffffffffffff1663a9059cbb33606460ff168460800151612524919061326f565b6040518363ffffffff167c010000000000000000000000000000000000000000000000000000000002815260040161255d929190612ee7565b602060405180830381600087803b15801561257757600080fd5b505af115801561258b573d6000803e3d6000fd5b505050506040513d601f19601f820116820180604052508101906125af9190612803565b505b6040518060400160405280600981526020017f65786572636973656400000000000000000000000000000000000000000000008152506002600084815260200190815260200160002060010190805190602001906126109291906126d7565b503373ffffffffffffffffffffffffffffffffffffffff16816040015173ffffffffffffffffffffffffffffffffffffffff167fbe38b3704166f0e904f93963eae13ca02ec939a255af46a3340dcdfeb2ee289984604051612672919061311c565b60405180910390a35050565b6000816040516020016126919190612e7e565b60405160208183030381529060405280519060200120836040516020016126b89190612e7e565b6040516020818303038152906040528051906020012014905092915050565b8280546126e390613385565b90600052602060002090601f016020900481019282612705576000855561274c565b82601f1061271e57805160ff191683800117855561274c565b8280016001018555821561274c579182015b8281111561274b578251825591602001919060010190612730565b5b509050612759919061275d565b5090565b5b8082111561277657600081600090555060010161275e565b5090565b6000813590506127898161349e565b92915050565b60008151905061279e816134b5565b92915050565b60008083601f8401126127b657600080fd5b8235905067ffffffffffffffff8111156127cf57600080fd5b6020830191508360018202830111156127e757600080fd5b9250929050565b6000813590506127fd816134cc565b92915050565b60006020828403121561281557600080fd5b60006128238482850161278f565b91505092915050565b60008060008060006080868803121561284457600080fd5b600086013567ffffffffffffffff81111561285e57600080fd5b61286a888289016127a4565b9550955050602061287d888289016127ee565b935050604061288e8882890161277a565b925050606061289f888289016127ee565b9150509295509295909350565b6000602082840312156128be57600080fd5b60006128cc848285016127ee565b91505092915050565b600080604083850312156128e857600080fd5b60006128f6858286016127ee565b9250506020612907858286016127ee565b9150509250929050565b61291a816132fd565b82525050565b600061292b826131c1565b61293581856131cc565b9350612945818560208601613352565b61294e8161348d565b840191505092915050565b6000612964826131c1565b61296e81856131dd565b935061297e818560208601613352565b80840191505092915050565b6000612997601d836131cc565b91507f54726164652068617320616c7265616479206265656e20636c6f7365640000006000830152602082019050919050565b60006129d76027836131cc565b91507f4f7074696f6e2074797065206d6179206f6e6c79206265202763616c6c27206f60008301527f72202770757427000000000000000000000000000000000000000000000000006020830152604082019050919050565b6000612a3d601a836131cc565b91507f4f7074696f6e20686173206e6f742065787069726564207965740000000000006000830152602082019050919050565b6000612a7d6012836131cc565b91507f4f7074696f6e20686173206578706972656400000000000000000000000000006000830152602082019050919050565b6000612abd602c836131cc565b91507f4f6e6c7920746865206f776e6572206f6620746865206f7074696f6e206d617960008301527f20657865726369736520697400000000000000000000000000000000000000006020830152604082019050919050565b6000612b23602d836131cc565b91507f4f6e6c792074686520777269746572206d617920636f6c6c65637420616e206560008301527f787069726564206f7074696f6e000000000000000000000000000000000000006020830152604082019050919050565b6000612b896047836131cc565b91507f547261646520706f73746572206d6179206e6f7420657865637574652074686560008301527f6972206f776e2074726164652c20757365202763616e63656c5472616465272060208301527f696e7374656164000000000000000000000000000000000000000000000000006040830152606082019050919050565b6000612c156019836131cc565b91507f43616e6e6f74206c69737420612075736564206f7074696f6e000000000000006000830152602082019050919050565b6000612c55602e836131cc565b91507f4f7074696f6e2068617320616c7265616479206265656e20657865726369736560008301527f64206f7220636f6c6c65637465640000000000000000000000000000000000006020830152604082019050919050565b6000612cbb601c836131cc565b91507f457870697279206d75737420626520696e2074686520667574757265000000006000830152602082019050919050565b6000612cfb6034836131cc565b91507f4f6e6c7920746865206f776e6572206f6620746865206f7074696f6e206d617960008301527f206f70656e206120747261646520666f722069740000000000000000000000006020830152604082019050919050565b6000612d616022836131cc565b91507f4f6e6c792074686520706f73746572206d61792063616e63656c20612074726160008301527f64650000000000000000000000000000000000000000000000000000000000006020830152604082019050919050565b6000612dc76020836131cc565b91507f4f6e6c79206f70656e20747261646573206d61792062652065786563757465646000830152602082019050919050565b6000612e076021836131cc565b91507f4f7074696f6e2068617320616c7265616479206265656e20657865726369736560008301527f64000000000000000000000000000000000000000000000000000000000000006020830152604082019050919050565b612e698161333b565b82525050565b612e7881613345565b82525050565b6000612e8a8284612959565b915081905092915050565b6000602082019050612eaa6000830184612911565b92915050565b6000606082019050612ec56000830186612911565b612ed26020830185612911565b612edf6040830184612e60565b949350505050565b6000604082019050612efc6000830185612911565b612f096020830184612e60565b9392505050565b6000608082019050612f256000830187612911565b612f326020830186612e60565b612f3f6040830185612e60565b8181036060830152612f518184612920565b905095945050505050565b60006020820190508181036000830152612f758161298a565b9050919050565b60006020820190508181036000830152612f95816129ca565b9050919050565b60006020820190508181036000830152612fb581612a30565b9050919050565b60006020820190508181036000830152612fd581612a70565b9050919050565b60006020820190508181036000830152612ff581612ab0565b9050919050565b6000602082019050818103600083015261301581612b16565b9050919050565b6000602082019050818103600083015261303581612b7c565b9050919050565b6000602082019050818103600083015261305581612c08565b9050919050565b6000602082019050818103600083015261307581612c48565b9050919050565b6000602082019050818103600083015261309581612cae565b9050919050565b600060208201905081810360008301526130b581612cee565b9050919050565b600060208201905081810360008301526130d581612d54565b9050919050565b600060208201905081810360008301526130f581612dba565b9050919050565b6000602082019050818103600083015261311581612dfa565b9050919050565b60006020820190506131316000830184612e60565b92915050565b600060c08201905061314c6000830189612e60565b818103602083015261315e8188612920565b905061316d6040830187612911565b61317a6060830186612911565b6131876080830185612e60565b81810360a08301526131998184612920565b9050979650505050505050565b60006020820190506131bb6000830184612e6f565b92915050565b600081519050919050565b600082825260208201905092915050565b600081905092915050565b60006131f38261333b565b91506131fe8361333b565b9250827fffffffffffffffffffffffffffffffffffffffffffffffffffffffffffffffff0382111561323357613232613400565b5b828201905092915050565b60006132498261333b565b91506132548361333b565b9250826132645761326361342f565b5b828204905092915050565b600061327a8261333b565b91506132858361333b565b9250817fffffffffffffffffffffffffffffffffffffffffffffffffffffffffffffffff04831182151516156132be576132bd613400565b5b828202905092915050565b60006132d48261333b565b91506132df8361333b565b9250828210156132f2576132f1613400565b5b828203905092915050565b60006133088261331b565b9050919050565b60008115159050919050565b600073ffffffffffffffffffffffffffffffffffffffff82169050919050565b6000819050919050565b600060ff82169050919050565b60005b83811015613370578082015181840152602081019050613355565b8381111561337f576000848401525b50505050565b6000600282049050600182168061339d57607f821691505b602082108114156133b1576133b061345e565b5b50919050565b60006133c28261333b565b91507fffffffffffffffffffffffffffffffffffffffffffffffffffffffffffffffff8214156133f5576133f4613400565b5b600182019050919050565b7f4e487b7100000000000000000000000000000000000000000000000000000000600052601160045260246000fd5b7f4e487b7100000000000000000000000000000000000000000000000000000000600052601260045260246000fd5b7f4e487b7100000000000000000000000000000000000000000000000000000000600052602260045260246000fd5b6000601f19601f8301169050919050565b6134a7816132fd565b81146134b257600080fd5b50565b6134be8161330f565b81146134c957600080fd5b50565b6134d58161333b565b81146134e057600080fd5b5056fea26469706673582212208e6799d71e7d13ca92e3f3c47d412b9a17fcb195b1c55c0d6c12b03229190ff364736f6c63430008000033",
  "immutableReferences": {
    "130": [
      {
        "length": 32,
        "start": 1366
      },
      {
        "length": 32,
        "start": 1574
      },
      {
        "length": 32,
        "start": 4609
      },
      {
        "length": 32,
        "start": 5830
      },
      {
        "length": 32,
        "start": 7153
      },
      {
        "length": 32,
        "start": 8797
      },
      {
        "length": 32,
        "start": 9429
      }
    ]
  },
  "source": "// SPDX-License-Identifier: GPL-3.0-only\npragma solidity ^0.8.0;\n\nimport \"@openzeppelin/contracts/token/ERC20/IERC20.sol\";\n\ncontract OptionsMarket {\n    // Admin access\n    address private owner;\n\n    // Option data\n    struct Option {\n        uint256 expiry;\n        string status; // none, exercised, collected\n        address writer;\n        address tokenAddress;\n        uint256 strikePrice;\n        string optionType; // call, put\n    }\n\n    uint256 private constant TOKEN_AMOUNT_PER_UNIT = 10e18;\n    uint8 private constant UNITS_PER_OPTION = 100;\n\n    uint256 private optionId;\n    mapping(uint256 => Option) private options;\n    mapping(uint256 => address) private optionOwners;\n\n    // Trade data\n    struct Trade {\n        address poster;\n        uint256 optionId;\n        uint256 premium;\n        string status; // open, closed, cancelled\n    }\n\n    uint256 private tradeId;\n    mapping(uint256 => Trade) private trades;\n    address private immutable tradeCurrency;\n\n    constructor(address currency) {\n        // Set the owner as the deployer of the contract and set the currency of the trades\n        owner = msg.sender;\n        tradeCurrency = currency;\n    }\n\n    // Declare events for logging data\n    event OptionWritten(uint256 optionId, address indexed writer);\n    event OptionExercised(uint256 optionId, address indexed writer, address indexed exerciser);\n    event TradeOpened(uint256 tradeId, address indexed poster);\n    event TradeExecuted(uint256 tradeId, address indexed buyer);\n    event TradeCancelled(uint256 tradeId);\n\n    // ============= Util functions =============\n\n    // Compare if two strings are equal\n    function _compareStrings(string memory a, string memory b) private pure returns (bool) {\n        return keccak256(abi.encodePacked(a)) == keccak256(abi.encodePacked(b));\n    }\n\n    // Get the trade currency of the token\n    function getTradeCurrency() external view returns (address) {\n        return tradeCurrency;\n    }\n\n    // Get the number of base units per unit for each token\n    function getTokenAmountPerUnit() external pure returns (uint256) {\n        return TOKEN_AMOUNT_PER_UNIT;\n    }\n\n    // Get the number of units contained in each option\n    function getUnitsPerOption() external pure returns (uint8) {\n        return UNITS_PER_OPTION;\n    }\n\n    // ============= Option functions =============\n\n    // Allow the address to create a new option\n    function writeOption(string calldata optionType, uint256 expiry, address tokenAddress, uint256 strikePrice) external returns (uint256) {\n        // Make the expiry weekly every friday\n        uint256 expiryTemp = expiry / (86400 * 7);\n        uint256 optionExpiry = expiryTemp * (86400 * 7) + 86400 * 5;\n        \n        // Check that the option is valid\n        require(_compareStrings(optionType, \"call\") || _compareStrings(optionType, \"put\"), \"Option type may only be 'call' or 'put'\");\n        require(optionExpiry > block.timestamp, \"Expiry must be in the future\");\n\n        // Write a new option\n        Option memory option = Option({\n            expiry: optionExpiry,\n            status: \"none\",\n            writer: msg.sender,\n            tokenAddress: tokenAddress,\n            strikePrice: strikePrice,\n            optionType: optionType\n        });\n\n        // If this is a call then transfer the amount of the token to the contract,\n        // otherwise transfer the trade currency x strike price to the contract\n        if (_compareStrings(optionType, \"call\")) {\n            IERC20(tokenAddress).transferFrom(msg.sender, address(this), TOKEN_AMOUNT_PER_UNIT * UNITS_PER_OPTION); \n        } else {\n            IERC20(tradeCurrency).transferFrom(msg.sender, address(this), strikePrice * UNITS_PER_OPTION);\n        }\n\n        // Save the option\n        options[optionId] = option;\n        optionOwners[optionId] = msg.sender;\n        optionId++;\n\n        // Emit an event and return the id of the option\n        emit OptionWritten(optionId - 1, msg.sender);\n        return optionId - 1;\n    }\n\n    // Get the data of an option\n    function getOption(uint256 _optionId) external view returns (uint256, string memory, address, address, uint256, string memory) {\n        Option memory option = options[_optionId];\n        return (option.expiry, option.status, option.writer, option.tokenAddress, option.strikePrice, option.optionType);\n    }\n\n    // Get the owner of an option\n    function getOptionOwner(uint256 _optionId) external view returns (address) {\n        return optionOwners[_optionId];\n    }\n\n    // Allow a option holder to exercise their option\n    function exerciseOption(uint256 _optionId) external {\n        // Get the data of the option\n        Option memory option = options[_optionId];\n\n        // Check that the option may be exercised\n        require(option.expiry >= block.timestamp, \"Option has expired\");\n        require(_compareStrings(option.status, \"none\"), \"Option has already been exercised\");\n        require(optionOwners[_optionId] == msg.sender, \"Only the owner of the option may exercise it\");\n\n        // If the option is a call, then charge the strike price x num tokens to receive the tokens,\n        // else if the option is a put, transfer their tokens\n        if (_compareStrings(option.optionType, \"call\")) {\n            IERC20(tradeCurrency).transferFrom(msg.sender, option.writer, option.strikePrice * UNITS_PER_OPTION);\n            IERC20(option.tokenAddress).transfer(msg.sender, UNITS_PER_OPTION * TOKEN_AMOUNT_PER_UNIT);\n        } else {\n            IERC20(option.tokenAddress).transferFrom(msg.sender, option.writer, UNITS_PER_OPTION * TOKEN_AMOUNT_PER_UNIT);\n            IERC20(tradeCurrency).transfer(msg.sender, option.strikePrice * UNITS_PER_OPTION);\n        }\n\n        // Update the status of the option and emit event\n        options[_optionId].status = \"exercised\";\n        emit OptionExercised(_optionId, option.writer, msg.sender);\n    }\n\n    // Allow a writer to collect an expired contract\n    function collectExpired(uint256 _optionId) external {\n        // Get the data of the option\n        Option memory option = options[_optionId];\n\n        // Check that the option may be collected\n        require(option.expiry < block.timestamp, \"Option has not expired yet\");\n        require(_compareStrings(option.status, \"none\"), \"Option has already been exercised or collected\");\n        require(option.writer == msg.sender, \"Only the writer may collect an expired option\");\n\n        // If the option is a call then transfer the tokens back to the writer,\n        // otherwise transfer the strike price x num tokens back to the writer\n        if (_compareStrings(option.optionType, \"call\")) {\n            IERC20(option.tokenAddress).transfer(msg.sender, UNITS_PER_OPTION * TOKEN_AMOUNT_PER_UNIT);\n        } else {\n            IERC20(tradeCurrency).transfer(msg.sender, option.strikePrice * UNITS_PER_OPTION);\n        }\n\n        // Update the status of the option\n        options[_optionId].status = \"collected\";\n    }\n\n    // ============= Marketplace functions =============\n\n    // Open a new trade for selling an option\n    function openTrade(uint256 _optionId, uint256 premium) external returns (uint256) {\n        // Check that the trade may be opened\n        require(optionOwners[_optionId] == msg.sender, \"Only the owner of the option may open a trade for it\");\n        require(_compareStrings(options[_optionId].status, \"none\"), \"Cannot list a used option\");\n\n        // Create a new trade\n        Trade memory trade = Trade({\n            poster: msg.sender,\n            optionId: _optionId,\n            premium: premium,\n            status: \"open\"\n        });\n\n        // Store the new trade\n        trades[tradeId] = trade;\n        tradeId++;\n\n        // Transfer the option to the contract\n        optionOwners[_optionId] = address(this);\n\n        // Emit an event and return the trade id\n        emit TradeOpened(tradeId - 1, msg.sender);\n        return tradeId - 1;\n    }\n\n    // Execute a trade for buying an option\n    function executeTrade(uint256 _tradeId) external {\n        // Get the trade\n        Trade memory trade = trades[_tradeId];\n\n        // Verify that the trade may be executed\n        require(_compareStrings(trade.status, \"open\"), \"Only open trades may be executed\");\n        require(msg.sender != trade.poster, \"Trade poster may not execute their own trade, use 'cancelTrade' instead\");\n\n        // Transfer the option\n        optionOwners[trade.optionId] = msg.sender;\n\n        // Charge the recipient and pay a fee to the owner\n        uint256 fee = trade.premium * UNITS_PER_OPTION * 3 / 100; \n        uint256 payout = trade.premium * UNITS_PER_OPTION - fee;\n        IERC20(tradeCurrency).transferFrom(msg.sender, trade.poster, payout);\n        IERC20(tradeCurrency).transferFrom(msg.sender, owner, fee);\n\n        // Update the status of the trade\n        trades[_tradeId].status = \"closed\";\n\n        // Emit an event\n        emit TradeExecuted(_tradeId, msg.sender);\n    }\n\n    // View a trade\n    function getTrade(uint256 _tradeId) external view returns (address, uint256, uint256, string memory) {\n        Trade memory trade = trades[_tradeId];\n        return (trade.poster, trade.optionId, trade.premium, trade.status);\n    }\n\n    // Cancel a trade\n    function cancelTrade(uint256 _tradeId) external {\n        // Get the trade\n        Trade memory trade = trades[_tradeId];\n\n        // Check that the trade may be cancelled\n        require(trade.poster == msg.sender, \"Only the poster may cancel a trade\");\n        require(!_compareStrings(trade.status, \"closed\"), \"Trade has already been closed\");\n\n        // Transfer the option back to the poster\n        optionOwners[trade.optionId] = msg.sender;\n\n        // Set status to cancelled\n        trades[_tradeId].status = \"cancelled\";\n\n        // Emit an event\n        emit TradeCancelled(_tradeId);\n    }\n}",
  "sourcePath": "/home/ben/Code/Crypto-Options/src/dapp/contracts/OptionsMarket.sol",
  "compiler": {
    "name": "solc",
    "version": "0.8.0+commit.c7dfd78e.Emscripten.clang"
  },
  "schemaVersion": "3.4.3",
  "updatedAt": "2021-09-29T05:36:12.794Z",
  "networkType": "ethereum",
  "devdoc": {
    "kind": "dev",
    "methods": {},
    "version": 1
  },
  "userdoc": {
    "kind": "user",
    "methods": {},
    "version": 1
  }
}