{
  "contractName": "OptionsMarket",
  "abi": [
    {
      "inputs": [
        {
          "internalType": "address",
          "name": "currency",
          "type": "address"
        }
      ],
      "stateMutability": "nonpayable",
      "type": "constructor"
    },
    {
      "anonymous": false,
      "inputs": [
        {
          "indexed": false,
          "internalType": "uint256",
          "name": "optionId",
          "type": "uint256"
        },
        {
          "indexed": true,
          "internalType": "address",
          "name": "writer",
          "type": "address"
        },
        {
          "indexed": true,
          "internalType": "address",
          "name": "exerciser",
          "type": "address"
        }
      ],
      "name": "OptionExercised",
      "type": "event"
    },
    {
      "anonymous": false,
      "inputs": [
        {
          "indexed": false,
          "internalType": "uint256",
          "name": "optionId",
          "type": "uint256"
        },
        {
          "indexed": true,
          "internalType": "address",
          "name": "writer",
          "type": "address"
        },
        {
          "indexed": true,
          "internalType": "string",
          "name": "optionType",
          "type": "string"
        },
        {
          "indexed": true,
          "internalType": "address",
          "name": "tokenAddress",
          "type": "address"
        }
      ],
      "name": "OptionWritten",
      "type": "event"
    },
    {
      "anonymous": false,
      "inputs": [
        {
          "indexed": false,
          "internalType": "uint256",
          "name": "tradeId",
          "type": "uint256"
        },
        {
          "indexed": true,
          "internalType": "uint256",
          "name": "optionId",
          "type": "uint256"
        },
        {
          "indexed": true,
          "internalType": "address",
          "name": "buyer",
          "type": "address"
        }
      ],
      "name": "TradeExecuted",
      "type": "event"
    },
    {
      "anonymous": false,
      "inputs": [
        {
          "indexed": false,
          "internalType": "uint256",
          "name": "tradeId",
          "type": "uint256"
        },
        {
          "indexed": true,
          "internalType": "uint256",
          "name": "optionId",
          "type": "uint256"
        },
        {
          "indexed": true,
          "internalType": "address",
          "name": "poster",
          "type": "address"
        }
      ],
      "name": "TradeOpened",
      "type": "event"
    },
    {
      "inputs": [
        {
          "internalType": "string",
          "name": "optionType",
          "type": "string"
        },
        {
          "internalType": "uint256",
          "name": "expiry",
          "type": "uint256"
        },
        {
          "internalType": "address",
          "name": "tokenAddress",
          "type": "address"
        },
        {
          "internalType": "uint256",
          "name": "amount",
          "type": "uint256"
        },
        {
          "internalType": "uint256",
          "name": "price",
          "type": "uint256"
        }
      ],
      "name": "writeOption",
      "outputs": [
        {
          "internalType": "uint256",
          "name": "",
          "type": "uint256"
        }
      ],
      "stateMutability": "nonpayable",
      "type": "function"
    },
    {
      "inputs": [
        {
          "internalType": "uint256",
          "name": "_optionId",
          "type": "uint256"
        }
      ],
      "name": "getOption",
      "outputs": [
        {
          "internalType": "uint256",
          "name": "",
          "type": "uint256"
        },
        {
          "internalType": "string",
          "name": "",
          "type": "string"
        },
        {
          "internalType": "address",
          "name": "",
          "type": "address"
        },
        {
          "internalType": "address",
          "name": "",
          "type": "address"
        },
        {
          "internalType": "uint256",
          "name": "",
          "type": "uint256"
        },
        {
          "internalType": "uint256",
          "name": "",
          "type": "uint256"
        },
        {
          "internalType": "string",
          "name": "",
          "type": "string"
        }
      ],
      "stateMutability": "view",
      "type": "function",
      "constant": true
    },
    {
      "inputs": [
        {
          "internalType": "uint256",
          "name": "_optionId",
          "type": "uint256"
        }
      ],
      "name": "getOptionOwner",
      "outputs": [
        {
          "internalType": "address",
          "name": "",
          "type": "address"
        }
      ],
      "stateMutability": "view",
      "type": "function",
      "constant": true
    },
    {
      "inputs": [
        {
          "internalType": "uint256",
          "name": "_optionId",
          "type": "uint256"
        }
      ],
      "name": "exerciseOption",
      "outputs": [],
      "stateMutability": "nonpayable",
      "type": "function"
    },
    {
      "inputs": [
        {
          "internalType": "uint256",
          "name": "_optionId",
          "type": "uint256"
        }
      ],
      "name": "collectExpired",
      "outputs": [],
      "stateMutability": "nonpayable",
      "type": "function"
    },
    {
      "inputs": [
        {
          "internalType": "uint256",
          "name": "_optionId",
          "type": "uint256"
        },
        {
          "internalType": "uint256",
          "name": "price",
          "type": "uint256"
        }
      ],
      "name": "openTrade",
      "outputs": [
        {
          "internalType": "uint256",
          "name": "",
          "type": "uint256"
        }
      ],
      "stateMutability": "nonpayable",
      "type": "function"
    },
    {
      "inputs": [
        {
          "internalType": "uint256",
          "name": "_tradeId",
          "type": "uint256"
        }
      ],
      "name": "executeTrade",
      "outputs": [],
      "stateMutability": "nonpayable",
      "type": "function"
    },
    {
      "inputs": [
        {
          "internalType": "uint256",
          "name": "_tradeId",
          "type": "uint256"
        }
      ],
      "name": "getTrade",
      "outputs": [
        {
          "internalType": "address",
          "name": "",
          "type": "address"
        },
        {
          "internalType": "uint256",
          "name": "",
          "type": "uint256"
        },
        {
          "internalType": "uint256",
          "name": "",
          "type": "uint256"
        },
        {
          "internalType": "string",
          "name": "",
          "type": "string"
        }
      ],
      "stateMutability": "view",
      "type": "function",
      "constant": true
    },
    {
      "inputs": [
        {
          "internalType": "uint256",
          "name": "_tradeId",
          "type": "uint256"
        }
      ],
      "name": "cancelTrade",
      "outputs": [],
      "stateMutability": "nonpayable",
      "type": "function"
    }
  ],
  "bytecode": "0x60a06040523480156200001157600080fd5b5060405162002f1d38038062002f1d8339818101604052810190620000379190620000cc565b336000806101000a81548173ffffffffffffffffffffffffffffffffffffffff021916908373ffffffffffffffffffffffffffffffffffffffff1602179055508073ffffffffffffffffffffffffffffffffffffffff1660808173ffffffffffffffffffffffffffffffffffffffff1660601b815250505062000146565b600081519050620000c6816200012c565b92915050565b600060208284031215620000df57600080fd5b6000620000ef84828501620000b5565b91505092915050565b600062000105826200010c565b9050919050565b600073ffffffffffffffffffffffffffffffffffffffff82169050919050565b6200013781620000f8565b81146200014357600080fd5b50565b60805160601c612d95620001886000396000818161042e015281816104e2015281816110ab015281816117d301528181611cac0152611e9b0152612d956000f3fe608060405234801561001057600080fd5b50600436106100935760003560e01c80632db25e05116100665780632db25e0514610136578063706efac5146101695780638149595314610199578063b7b4ea04146101c9578063f52f2526146101e557610093565b806302d2838b1461009857806309ec6cc7146100b45780630c493fba146100d05780631ce5e9a614610100575b600080fd5b6100b260048036038101906100ad9190612274565b610201565b005b6100ce60048036038101906100c99190612274565b610669565b005b6100ea60048036038101906100e5919061229d565b61085d565b6040516100f79190612969565b60405180910390f35b61011a60048036038101906101159190612274565b610a8e565b60405161012d9796959493929190612984565b60405180910390f35b610150600480360381019061014b9190612274565b610ce7565b60405161016094939291906127bd565b60405180910390f35b610183600480360381019061017e91906121e5565b610e30565b6040516101909190612969565b60405180910390f35b6101b360048036038101906101ae9190612274565b611367565b6040516101c09190612742565b60405180910390f35b6101e360048036038101906101de9190612274565b6113a4565b005b6101ff60048036038101906101fa9190612274565b6118e8565b005b6000600560008381526020019081526020016000206040518060800160405290816000820160009054906101000a900473ffffffffffffffffffffffffffffffffffffffff1673ffffffffffffffffffffffffffffffffffffffff1673ffffffffffffffffffffffffffffffffffffffff168152602001600182015481526020016002820154815260200160038201805461029b90612bd2565b80601f01602080910402602001604051908101604052809291908181526020018280546102c790612bd2565b80156103145780601f106102e957610100808354040283529160200191610314565b820191906000526020600020905b8154815290600101906020018083116102f757829003601f168201915b505050505081525050905061036281606001516040518060400160405280600481526020017f6f70656e00000000000000000000000000000000000000000000000000000000815250612019565b6103a1576040517f08c379a000000000000000000000000000000000000000000000000000000000815260040161039890612929565b60405180910390fd5b33600360008360200151815260200190815260200160002060006101000a81548173ffffffffffffffffffffffffffffffffffffffff021916908373ffffffffffffffffffffffffffffffffffffffff160217905550600060646003836040015161040c9190612aba565b6104169190612a89565b9050600081836040015161042a9190612b14565b90507f000000000000000000000000000000000000000000000000000000000000000073ffffffffffffffffffffffffffffffffffffffff166323b872dd338560000151846040518463ffffffff1660e01b815260040161048d9392919061275d565b602060405180830381600087803b1580156104a757600080fd5b505af11580156104bb573d6000803e3d6000fd5b505050506040513d601f19601f820116820180604052508101906104df91906121bc565b507f000000000000000000000000000000000000000000000000000000000000000073ffffffffffffffffffffffffffffffffffffffff166323b872dd3360008054906101000a900473ffffffffffffffffffffffffffffffffffffffff16856040518463ffffffff1660e01b815260040161055d9392919061275d565b602060405180830381600087803b15801561057757600080fd5b505af115801561058b573d6000803e3d6000fd5b505050506040513d601f19601f820116820180604052508101906105af91906121bc565b506040518060400160405280600681526020017f636c6f736564000000000000000000000000000000000000000000000000000081525060056000868152602001908152602001600020600301908051906020019061060f929190612072565b503373ffffffffffffffffffffffffffffffffffffffff1683602001517fcd4549424763814841fd85ada3413dd0f4ec86f6bde5a04a93f9c20e20c653cc8660405161065b9190612969565b60405180910390a350505050565b6000600560008381526020019081526020016000206040518060800160405290816000820160009054906101000a900473ffffffffffffffffffffffffffffffffffffffff1673ffffffffffffffffffffffffffffffffffffffff1673ffffffffffffffffffffffffffffffffffffffff168152602001600182015481526020016002820154815260200160038201805461070390612bd2565b80601f016020809104026020016040519081016040528092919081815260200182805461072f90612bd2565b801561077c5780601f106107515761010080835404028352916020019161077c565b820191906000526020600020905b81548152906001019060200180831161075f57829003601f168201915b50505050508152505090503373ffffffffffffffffffffffffffffffffffffffff16816000015173ffffffffffffffffffffffffffffffffffffffff16146107f9576040517f08c379a00000000000000000000000000000000000000000000000000000000081526004016107f090612909565b60405180910390fd5b6040518060400160405280600981526020017f63616e63656c6c65640000000000000000000000000000000000000000000000815250600560008481526020019081526020016000206003019080519060200190610858929190612072565b505050565b60003373ffffffffffffffffffffffffffffffffffffffff166003600085815260200190815260200160002060009054906101000a900473ffffffffffffffffffffffffffffffffffffffff1673ffffffffffffffffffffffffffffffffffffffff1614610900576040517f08c379a00000000000000000000000000000000000000000000000000000000081526004016108f7906128e9565b60405180910390fd5b600060405180608001604052803373ffffffffffffffffffffffffffffffffffffffff1681526020018581526020018481526020016040518060400160405280600481526020017f6f70656e0000000000000000000000000000000000000000000000000000000081525081525090508060056000600454815260200190815260200160002060008201518160000160006101000a81548173ffffffffffffffffffffffffffffffffffffffff021916908373ffffffffffffffffffffffffffffffffffffffff160217905550602082015181600101556040820151816002015560608201518160030190805190602001906109fd929190612072565b5090505060046000815480929190610a1490612c04565b91905055503373ffffffffffffffffffffffffffffffffffffffff16847f132feb0275d32a02a9b2a45bbcdeb49835d2b9d88b0db4f91470ca50a5ad78ce6001600454610a619190612b14565b604051610a6e9190612969565b60405180910390a36001600454610a859190612b14565b91505092915050565b6000606060008060008060606000600260008a81526020019081526020016000206040518060e001604052908160008201548152602001600182018054610ad490612bd2565b80601f0160208091040260200160405190810160405280929190818152602001828054610b0090612bd2565b8015610b4d5780601f10610b2257610100808354040283529160200191610b4d565b820191906000526020600020905b815481529060010190602001808311610b3057829003601f168201915b505050505081526020016002820160009054906101000a900473ffffffffffffffffffffffffffffffffffffffff1673ffffffffffffffffffffffffffffffffffffffff1673ffffffffffffffffffffffffffffffffffffffff1681526020016003820160009054906101000a900473ffffffffffffffffffffffffffffffffffffffff1673ffffffffffffffffffffffffffffffffffffffff1673ffffffffffffffffffffffffffffffffffffffff1681526020016004820154815260200160058201548152602001600682018054610c2690612bd2565b80601f0160208091040260200160405190810160405280929190818152602001828054610c5290612bd2565b8015610c9f5780601f10610c7457610100808354040283529160200191610c9f565b820191906000526020600020905b815481529060010190602001808311610c8257829003601f168201915b5050505050815250509050806000015181602001518260400151836060015184608001518560a001518660c00151975097509750975097509750975050919395979092949650565b600080600060606000600560008781526020019081526020016000206040518060800160405290816000820160009054906101000a900473ffffffffffffffffffffffffffffffffffffffff1673ffffffffffffffffffffffffffffffffffffffff1673ffffffffffffffffffffffffffffffffffffffff1681526020016001820154815260200160028201548152602001600382018054610d8890612bd2565b80601f0160208091040260200160405190810160405280929190818152602001828054610db490612bd2565b8015610e015780601f10610dd657610100808354040283529160200191610e01565b820191906000526020600020905b815481529060010190602001808311610de457829003601f168201915b505050505081525050905080600001518160200151826040015183606001519450945094509450509193509193565b6000610e71866040518060400160405280600481526020017f63616c6c00000000000000000000000000000000000000000000000000000000815250612019565b80610eb75750610eb6866040518060400160405280600381526020017f7075740000000000000000000000000000000000000000000000000000000000815250612019565b5b610ef6576040517f08c379a0000000000000000000000000000000000000000000000000000000008152600401610eed90612809565b60405180910390fd5b428511610f38576040517f08c379a0000000000000000000000000000000000000000000000000000000008152600401610f2f906128c9565b60405180910390fd5b60006040518060e001604052808781526020016040518060400160405280600481526020017f6e6f6e650000000000000000000000000000000000000000000000000000000081525081526020013373ffffffffffffffffffffffffffffffffffffffff1681526020018673ffffffffffffffffffffffffffffffffffffffff16815260200185815260200184815260200188815250905061100f876040518060400160405280600481526020017f63616c6c00000000000000000000000000000000000000000000000000000000815250612019565b156110a9578473ffffffffffffffffffffffffffffffffffffffff166323b872dd3330876040518463ffffffff1660e01b81526004016110519392919061275d565b602060405180830381600087803b15801561106b57600080fd5b505af115801561107f573d6000803e3d6000fd5b505050506040513d601f19601f820116820180604052508101906110a391906121bc565b5061115a565b7f000000000000000000000000000000000000000000000000000000000000000073ffffffffffffffffffffffffffffffffffffffff166323b872dd3330866040518463ffffffff1660e01b81526004016111069392919061275d565b602060405180830381600087803b15801561112057600080fd5b505af1158015611134573d6000803e3d6000fd5b505050506040513d601f19601f8201168201806040525081019061115891906121bc565b505b80600260006001548152602001908152602001600020600082015181600001556020820151816001019080519060200190611196929190612072565b5060408201518160020160006101000a81548173ffffffffffffffffffffffffffffffffffffffff021916908373ffffffffffffffffffffffffffffffffffffffff16021790555060608201518160030160006101000a81548173ffffffffffffffffffffffffffffffffffffffff021916908373ffffffffffffffffffffffffffffffffffffffff1602179055506080820151816004015560a0820151816005015560c0820151816006019080519060200190611255929190612072565b509050503360036000600154815260200190815260200160002060006101000a81548173ffffffffffffffffffffffffffffffffffffffff021916908373ffffffffffffffffffffffffffffffffffffffff160217905550600160008154809291906112c090612c04565b91905055508473ffffffffffffffffffffffffffffffffffffffff16876040516112ea919061272b565b60405180910390203373ffffffffffffffffffffffffffffffffffffffff167ffb6c2dc6b80a4b904549b8d862af0f26d0d29d2bf5249cf5753cc6be7f4a4c94600180546113389190612b14565b6040516113459190612969565b60405180910390a46001805461135b9190612b14565b91505095945050505050565b60006003600083815260200190815260200160002060009054906101000a900473ffffffffffffffffffffffffffffffffffffffff169050919050565b6000600260008381526020019081526020016000206040518060e0016040529081600082015481526020016001820180546113de90612bd2565b80601f016020809104026020016040519081016040528092919081815260200182805461140a90612bd2565b80156114575780601f1061142c57610100808354040283529160200191611457565b820191906000526020600020905b81548152906001019060200180831161143a57829003601f168201915b505050505081526020016002820160009054906101000a900473ffffffffffffffffffffffffffffffffffffffff1673ffffffffffffffffffffffffffffffffffffffff1673ffffffffffffffffffffffffffffffffffffffff1681526020016003820160009054906101000a900473ffffffffffffffffffffffffffffffffffffffff1673ffffffffffffffffffffffffffffffffffffffff1673ffffffffffffffffffffffffffffffffffffffff168152602001600482015481526020016005820154815260200160068201805461153090612bd2565b80601f016020809104026020016040519081016040528092919081815260200182805461155c90612bd2565b80156115a95780601f1061157e576101008083540402835291602001916115a9565b820191906000526020600020905b81548152906001019060200180831161158c57829003601f168201915b5050505050815250509050428160000151106115fa576040517f08c379a00000000000000000000000000000000000000000000000000000000081526004016115f190612829565b60405180910390fd5b61163d81602001516040518060400160405280600481526020017f6e6f6e6500000000000000000000000000000000000000000000000000000000815250612019565b61167c576040517f08c379a0000000000000000000000000000000000000000000000000000000008152600401611673906128a9565b60405180910390fd5b3373ffffffffffffffffffffffffffffffffffffffff16816040015173ffffffffffffffffffffffffffffffffffffffff16146116ee576040517f08c379a00000000000000000000000000000000000000000000000000000000081526004016116e590612889565b60405180910390fd5b6117318160c001516040518060400160405280600481526020017f63616c6c00000000000000000000000000000000000000000000000000000000815250612019565b156117d157806060015173ffffffffffffffffffffffffffffffffffffffff1663a9059cbb3383608001516040518363ffffffff1660e01b8152600401611779929190612794565b602060405180830381600087803b15801561179357600080fd5b505af11580156117a7573d6000803e3d6000fd5b505050506040513d601f19601f820116820180604052508101906117cb91906121bc565b50611884565b7f000000000000000000000000000000000000000000000000000000000000000073ffffffffffffffffffffffffffffffffffffffff1663a9059cbb338360a001516040518363ffffffff1660e01b8152600401611830929190612794565b602060405180830381600087803b15801561184a57600080fd5b505af115801561185e573d6000803e3d6000fd5b505050506040513d601f19601f8201168201806040525081019061188291906121bc565b505b6040518060400160405280600981526020017f636f6c6c656374656400000000000000000000000000000000000000000000008152506002600084815260200190815260200160002060010190805190602001906118e3929190612072565b505050565b6000600260008381526020019081526020016000206040518060e00160405290816000820154815260200160018201805461192290612bd2565b80601f016020809104026020016040519081016040528092919081815260200182805461194e90612bd2565b801561199b5780601f106119705761010080835404028352916020019161199b565b820191906000526020600020905b81548152906001019060200180831161197e57829003601f168201915b505050505081526020016002820160009054906101000a900473ffffffffffffffffffffffffffffffffffffffff1673ffffffffffffffffffffffffffffffffffffffff1673ffffffffffffffffffffffffffffffffffffffff1681526020016003820160009054906101000a900473ffffffffffffffffffffffffffffffffffffffff1673ffffffffffffffffffffffffffffffffffffffff1673ffffffffffffffffffffffffffffffffffffffff1681526020016004820154815260200160058201548152602001600682018054611a7490612bd2565b80601f0160208091040260200160405190810160405280929190818152602001828054611aa090612bd2565b8015611aed5780601f10611ac257610100808354040283529160200191611aed565b820191906000526020600020905b815481529060010190602001808311611ad057829003601f168201915b50505050508152505090504281600001511015611b3f576040517f08c379a0000000000000000000000000000000000000000000000000000000008152600401611b3690612849565b60405180910390fd5b611b8281602001516040518060400160405280600481526020017f6e6f6e6500000000000000000000000000000000000000000000000000000000815250612019565b611bc1576040517f08c379a0000000000000000000000000000000000000000000000000000000008152600401611bb890612949565b60405180910390fd5b3373ffffffffffffffffffffffffffffffffffffffff166003600084815260200190815260200160002060009054906101000a900473ffffffffffffffffffffffffffffffffffffffff1673ffffffffffffffffffffffffffffffffffffffff1614611c62576040517f08c379a0000000000000000000000000000000000000000000000000000000008152600401611c5990612869565b60405180910390fd5b611ca58160c001516040518060400160405280600481526020017f63616c6c00000000000000000000000000000000000000000000000000000000815250612019565b15611dfd577f000000000000000000000000000000000000000000000000000000000000000073ffffffffffffffffffffffffffffffffffffffff166323b872dd3383604001518460a001516040518463ffffffff1660e01b8152600401611d0f9392919061275d565b602060405180830381600087803b158015611d2957600080fd5b505af1158015611d3d573d6000803e3d6000fd5b505050506040513d601f19601f82011682018060405250810190611d6191906121bc565b50806060015173ffffffffffffffffffffffffffffffffffffffff1663a9059cbb3383608001516040518363ffffffff1660e01b8152600401611da5929190612794565b602060405180830381600087803b158015611dbf57600080fd5b505af1158015611dd3573d6000803e3d6000fd5b505050506040513d601f19601f82011682018060405250810190611df791906121bc565b50611f4c565b806060015173ffffffffffffffffffffffffffffffffffffffff166323b872dd33836040015184608001516040518463ffffffff1660e01b8152600401611e469392919061275d565b602060405180830381600087803b158015611e6057600080fd5b505af1158015611e74573d6000803e3d6000fd5b505050506040513d601f19601f82011682018060405250810190611e9891906121bc565b507f000000000000000000000000000000000000000000000000000000000000000073ffffffffffffffffffffffffffffffffffffffff1663a9059cbb338360a001516040518363ffffffff1660e01b8152600401611ef8929190612794565b602060405180830381600087803b158015611f1257600080fd5b505af1158015611f26573d6000803e3d6000fd5b505050506040513d601f19601f82011682018060405250810190611f4a91906121bc565b505b6040518060400160405280600981526020017f6578657263697365640000000000000000000000000000000000000000000000815250600260008481526020019081526020016000206001019080519060200190611fab929190612072565b503373ffffffffffffffffffffffffffffffffffffffff16816040015173ffffffffffffffffffffffffffffffffffffffff167fbe38b3704166f0e904f93963eae13ca02ec939a255af46a3340dcdfeb2ee28998460405161200d9190612969565b60405180910390a35050565b60008160405160200161202c919061272b565b6040516020818303038152906040528051906020012083604051602001612053919061272b565b6040516020818303038152906040528051906020012014905092915050565b82805461207e90612bd2565b90600052602060002090601f0160209004810192826120a057600085556120e7565b82601f106120b957805160ff19168380011785556120e7565b828001600101855582156120e7579182015b828111156120e65782518255916020019190600101906120cb565b5b5090506120f491906120f8565b5090565b5b808211156121115760008160009055506001016120f9565b5090565b600061212861212384612a32565b612a01565b90508281526020810184848401111561214057600080fd5b61214b848285612b90565b509392505050565b60008135905061216281612d1a565b92915050565b60008151905061217781612d31565b92915050565b600082601f83011261218e57600080fd5b813561219e848260208601612115565b91505092915050565b6000813590506121b681612d48565b92915050565b6000602082840312156121ce57600080fd5b60006121dc84828501612168565b91505092915050565b600080600080600060a086880312156121fd57600080fd5b600086013567ffffffffffffffff81111561221757600080fd5b6122238882890161217d565b9550506020612234888289016121a7565b945050604061224588828901612153565b9350506060612256888289016121a7565b9250506080612267888289016121a7565b9150509295509295909350565b60006020828403121561228657600080fd5b6000612294848285016121a7565b91505092915050565b600080604083850312156122b057600080fd5b60006122be858286016121a7565b92505060206122cf858286016121a7565b9150509250929050565b6122e281612b48565b82525050565b60006122f382612a62565b6122fd8185612a6d565b935061230d818560208601612b9f565b61231681612d09565b840191505092915050565b600061232c82612a62565b6123368185612a7e565b9350612346818560208601612b9f565b80840191505092915050565b600061235f602783612a6d565b91507f4f7074696f6e2074797065206d6179206f6e6c79206265202763616c6c27206f60008301527f72202770757427000000000000000000000000000000000000000000000000006020830152604082019050919050565b60006123c5601a83612a6d565b91507f4f7074696f6e20686173206e6f742065787069726564207965740000000000006000830152602082019050919050565b6000612405601283612a6d565b91507f4f7074696f6e20686173206578706972656400000000000000000000000000006000830152602082019050919050565b6000612445602c83612a6d565b91507f4f6e6c7920746865206f776e6572206f6620746865206f7074696f6e206d617960008301527f20657865726369736520697400000000000000000000000000000000000000006020830152604082019050919050565b60006124ab602d83612a6d565b91507f4f6e6c792074686520777269746572206d617920636f6c6c65637420616e206560008301527f787069726564206f7074696f6e000000000000000000000000000000000000006020830152604082019050919050565b6000612511602e83612a6d565b91507f4f7074696f6e2068617320616c7265616479206265656e20657865726369736560008301527f64206f7220636f6c6c65637465640000000000000000000000000000000000006020830152604082019050919050565b6000612577601c83612a6d565b91507f457870697279206d75737420626520696e2074686520667574757265000000006000830152602082019050919050565b60006125b7603483612a6d565b91507f4f6e6c7920746865206f776e6572206f6620746865206f7074696f6e206d617960008301527f206f70656e206120747261646520666f722069740000000000000000000000006020830152604082019050919050565b600061261d602283612a6d565b91507f4f6e6c792074686520706f73746572206d61792063616e63656c20612074726160008301527f64650000000000000000000000000000000000000000000000000000000000006020830152604082019050919050565b6000612683602083612a6d565b91507f4f6e6c79206f70656e20747261646573206d61792062652065786563757465646000830152602082019050919050565b60006126c3602183612a6d565b91507f4f7074696f6e2068617320616c7265616479206265656e20657865726369736560008301527f64000000000000000000000000000000000000000000000000000000000000006020830152604082019050919050565b61272581612b86565b82525050565b60006127378284612321565b915081905092915050565b600060208201905061275760008301846122d9565b92915050565b600060608201905061277260008301866122d9565b61277f60208301856122d9565b61278c604083018461271c565b949350505050565b60006040820190506127a960008301856122d9565b6127b6602083018461271c565b9392505050565b60006080820190506127d260008301876122d9565b6127df602083018661271c565b6127ec604083018561271c565b81810360608301526127fe81846122e8565b905095945050505050565b6000602082019050818103600083015261282281612352565b9050919050565b60006020820190508181036000830152612842816123b8565b9050919050565b60006020820190508181036000830152612862816123f8565b9050919050565b6000602082019050818103600083015261288281612438565b9050919050565b600060208201905081810360008301526128a28161249e565b9050919050565b600060208201905081810360008301526128c281612504565b9050919050565b600060208201905081810360008301526128e28161256a565b9050919050565b60006020820190508181036000830152612902816125aa565b9050919050565b6000602082019050818103600083015261292281612610565b9050919050565b6000602082019050818103600083015261294281612676565b9050919050565b60006020820190508181036000830152612962816126b6565b9050919050565b600060208201905061297e600083018461271c565b92915050565b600060e082019050612999600083018a61271c565b81810360208301526129ab81896122e8565b90506129ba60408301886122d9565b6129c760608301876122d9565b6129d4608083018661271c565b6129e160a083018561271c565b81810360c08301526129f381846122e8565b905098975050505050505050565b6000604051905081810181811067ffffffffffffffff82111715612a2857612a27612cda565b5b8060405250919050565b600067ffffffffffffffff821115612a4d57612a4c612cda565b5b601f19601f8301169050602081019050919050565b600081519050919050565b600082825260208201905092915050565b600081905092915050565b6000612a9482612b86565b9150612a9f83612b86565b925082612aaf57612aae612c7c565b5b828204905092915050565b6000612ac582612b86565b9150612ad083612b86565b9250817fffffffffffffffffffffffffffffffffffffffffffffffffffffffffffffffff0483118215151615612b0957612b08612c4d565b5b828202905092915050565b6000612b1f82612b86565b9150612b2a83612b86565b925082821015612b3d57612b3c612c4d565b5b828203905092915050565b6000612b5382612b66565b9050919050565b60008115159050919050565b600073ffffffffffffffffffffffffffffffffffffffff82169050919050565b6000819050919050565b82818337600083830152505050565b60005b83811015612bbd578082015181840152602081019050612ba2565b83811115612bcc576000848401525b50505050565b60006002820490506001821680612bea57607f821691505b60208210811415612bfe57612bfd612cab565b5b50919050565b6000612c0f82612b86565b91507fffffffffffffffffffffffffffffffffffffffffffffffffffffffffffffffff821415612c4257612c41612c4d565b5b600182019050919050565b7f4e487b7100000000000000000000000000000000000000000000000000000000600052601160045260246000fd5b7f4e487b7100000000000000000000000000000000000000000000000000000000600052601260045260246000fd5b7f4e487b7100000000000000000000000000000000000000000000000000000000600052602260045260246000fd5b7f4e487b7100000000000000000000000000000000000000000000000000000000600052604160045260246000fd5b6000601f19601f8301169050919050565b612d2381612b48565b8114612d2e57600080fd5b50565b612d3a81612b5a565b8114612d4557600080fd5b50565b612d5181612b86565b8114612d5c57600080fd5b5056fea26469706673582212206bb73ab461603c036dc01367de822264e921b6d98042b021aaf2d01accbdef1364736f6c63430008000033",
  "immutableReferences": {
    "159": [
      {
        "length": 32,
        "start": 1070
      },
      {
        "length": 32,
        "start": 1250
      },
      {
        "length": 32,
        "start": 4267
      },
      {
        "length": 32,
        "start": 6099
      },
      {
        "length": 32,
        "start": 7340
      },
      {
        "length": 32,
        "start": 7835
      }
    ]
  },
  "source": "// SPDX-License-Identifier: GPL-3.0-only\npragma solidity ^0.8.0;\n\nimport \"@openzeppelin/contracts/token/ERC20/IERC20.sol\";\n\ncontract OptionsMarket {\n    // Admin access\n    address private owner;\n\n    // Option data\n    struct Option {\n        uint256 expiry;\n        string status; // none, exercised, collected\n        address writer;\n        address tokenAddress;\n        uint256 amount;\n        uint256 price;\n        string optionType; // call, put\n    }\n\n    uint256 private optionId;\n    mapping(uint256 => Option) private options;\n    mapping(uint256 => address) private optionOwners;\n\n    // Trade data\n    struct Trade {\n        address poster;\n        uint256 optionId;\n        uint256 price;\n        string status; // open, closed, cancelled\n    }\n\n    uint256 private tradeId;\n    mapping(uint256 => Trade) private trades;\n    address private immutable tradeCurrency;\n\n    constructor(address currency) {\n        // Set the owner as the deployer of the contract and set the currency of the trades\n        owner = msg.sender;\n        tradeCurrency = currency;\n    }\n\n    // Declare events for logging data\n    event OptionWritten(uint256 optionId, address indexed writer, string indexed optionType, address indexed tokenAddress);\n    event OptionExercised(uint256 optionId, address indexed writer, address indexed exerciser);\n    event TradeOpened(uint256 tradeId, uint256 indexed optionId, address indexed poster);\n    event TradeExecuted(uint256 tradeId, uint256 indexed optionId, address indexed buyer);\n\n    // ============= Util functions =============\n\n    // Compare if two strings are equal\n    function _compareStrings(string memory a, string memory b) private pure returns (bool) {\n        return keccak256(abi.encodePacked(a)) == keccak256(abi.encodePacked(b));\n    }\n\n    // ============= Option functions =============\n\n    // Allow the address to create a new option\n    function writeOption(string memory optionType, uint256 expiry, address tokenAddress, uint256 amount, uint256 price) public returns (uint256) {\n        // Check that the option is valid\n        require(_compareStrings(optionType, \"call\") || _compareStrings(optionType, \"put\"), \"Option type may only be 'call' or 'put'\");\n        require(expiry > block.timestamp, \"Expiry must be in the future\");\n\n        // Write a new option\n        Option memory option = Option({\n            expiry: expiry,\n            status: \"none\",\n            writer: msg.sender,\n            tokenAddress: tokenAddress,\n            amount: amount,\n            price: price,\n            optionType: optionType\n        });\n\n        // If this is a call then transfer the amount of the token to the contract,\n        // otherwise if a put then transfer the trade currency to the contract\n        if (_compareStrings(optionType, \"call\")) {\n            IERC20(tokenAddress).transferFrom(msg.sender, address(this), amount); \n        } else {\n            IERC20(tradeCurrency).transferFrom(msg.sender, address(this), price);\n        }\n\n        // Save the option\n        options[optionId] = option;\n        optionOwners[optionId] = msg.sender;\n        optionId++;\n\n        // Emit an event and return the id of the option\n        emit OptionWritten(optionId - 1, msg.sender, optionType, tokenAddress);\n        return optionId - 1;\n    }\n\n    // Get the data of an option\n    function getOption(uint256 _optionId) public view returns (uint256, string memory, address, address, uint256, uint256, string memory) {\n        Option memory option = options[_optionId];\n        return (option.expiry, option.status, option.writer, option.tokenAddress, option.amount, option.price, option.optionType);\n    }\n\n    // Get the owner of an option\n    function getOptionOwner(uint256 _optionId) public view returns (address) {\n        return optionOwners[_optionId];\n    }\n\n    // Allow a option holder to exercise their option\n    function exerciseOption(uint256 _optionId) public {\n        // Get the data of the option\n        Option memory option = options[_optionId];\n\n        // Check that the option may be exercised\n        require(option.expiry >= block.timestamp, \"Option has expired\");\n        require(_compareStrings(option.status, \"none\"), \"Option has already been exercised\");\n        require(optionOwners[_optionId] == msg.sender, \"Only the owner of the option may exercise it\");\n\n        // If the option is a call, then charge the user the premium to receive the tokens,\n        // else if the option is a put, transfer their tokens\n        if (_compareStrings(option.optionType, \"call\")) {\n            IERC20(tradeCurrency).transferFrom(msg.sender, option.writer, option.price);\n            IERC20(option.tokenAddress).transfer(msg.sender, option.amount);\n        } else {\n            IERC20(option.tokenAddress).transferFrom(msg.sender, option.writer, option.amount);\n            IERC20(tradeCurrency).transfer(msg.sender, option.price);\n        }\n\n        // Update the status of the option and emit event\n        options[_optionId].status = \"exercised\";\n        emit OptionExercised(_optionId, option.writer, msg.sender);\n    }\n\n    // Allow a writer to collect an expired contract\n    function collectExpired(uint256 _optionId) public {\n        // Get the data of the option\n        Option memory option = options[_optionId];\n\n        // Check that the option may be collected\n        require(option.expiry < block.timestamp, \"Option has not expired yet\");\n        require(_compareStrings(option.status, \"none\"), \"Option has already been exercised or collected\");\n        require(option.writer == msg.sender, \"Only the writer may collect an expired option\");\n\n        // If the option is a call then transfer the tokens back to the writer,\n        // otherwise transfer the price back to the writer\n        if (_compareStrings(option.optionType, \"call\")) {\n            IERC20(option.tokenAddress).transfer(msg.sender, option.amount);\n        } else {\n            IERC20(tradeCurrency).transfer(msg.sender, option.price);\n        }\n\n        // Update the status of the option\n        options[_optionId].status = \"collected\";\n    }\n\n    // ============= Marketplace functions =============\n\n    // Open a new trade for selling an option\n    function openTrade(uint256 _optionId, uint256 price) public returns (uint256) {\n        // Check that the trade may be opened\n        require(optionOwners[_optionId] == msg.sender, \"Only the owner of the option may open a trade for it\");\n\n        // Create a new trade\n        Trade memory trade = Trade({\n            poster: msg.sender,\n            optionId: _optionId,\n            price: price,\n            status: \"open\"\n        });\n\n        // Store the new trade\n        trades[tradeId] = trade;\n        tradeId++;\n\n        // Emit an event and return the trade id\n        emit TradeOpened(tradeId - 1, _optionId, msg.sender);\n        return tradeId - 1;\n    }\n\n    // Execute a trade for buying an option\n    function executeTrade(uint256 _tradeId) public {\n        // Get the trade\n        Trade memory trade = trades[_tradeId];\n\n        // Verify that the trade status is valid\n        require(_compareStrings(trade.status, \"open\"), \"Only open trades may be executed\");\n\n        // Transfer the option\n        optionOwners[trade.optionId] = msg.sender;\n\n        // Charge the recipient and pay a fee to the owner\n        uint256 fee = trade.price * 3 / 100; \n        uint256 payout = trade.price - fee;\n        IERC20(tradeCurrency).transferFrom(msg.sender, trade.poster, payout);\n        IERC20(tradeCurrency).transferFrom(msg.sender, owner, fee);\n\n        // Update the status of the trade\n        trades[_tradeId].status = \"closed\";\n\n        // Emit an event\n        emit TradeExecuted(_tradeId, trade.optionId, msg.sender);\n    }\n\n    // View a trade\n    function getTrade(uint256 _tradeId) public view returns(address, uint256, uint256, string memory) {\n        Trade memory trade = trades[_tradeId];\n        return (trade.poster, trade.optionId, trade.price, trade.status);\n    }\n\n    // Cancel a trade\n    function cancelTrade(uint256 _tradeId) public {\n        // Get the trade\n        Trade memory trade = trades[_tradeId];\n\n        // Check that the poster of the trade is the sender\n        require(trade.poster == msg.sender, \"Only the poster may cancel a trade\");\n\n        // Cancel the trade\n        trades[_tradeId].status = \"cancelled\";\n    }\n}",
  "sourcePath": "/home/ben/Code/Crypto-Options/src/dapp/contracts/OptionsMarket.sol",
  "compiler": {
    "name": "solc",
    "version": "0.8.0+commit.c7dfd78e.Emscripten.clang"
  },
  "schemaVersion": "3.4.3",
  "updatedAt": "2021-09-23T02:29:27.731Z",
  "networkType": "ethereum",
  "devdoc": {
    "kind": "dev",
    "methods": {},
    "version": 1
  },
  "userdoc": {
    "kind": "user",
    "methods": {},
    "version": 1
  }
}