{
  "contractName": "OptionsMarket",
  "abi": [
    {
      "inputs": [
        {
          "internalType": "address",
          "name": "currency",
          "type": "address"
        }
      ],
      "stateMutability": "nonpayable",
      "type": "constructor"
    },
    {
      "anonymous": false,
      "inputs": [
        {
          "indexed": false,
          "internalType": "uint256",
          "name": "optionId",
          "type": "uint256"
        },
        {
          "indexed": true,
          "internalType": "address",
          "name": "writer",
          "type": "address"
        },
        {
          "indexed": true,
          "internalType": "address",
          "name": "exerciser",
          "type": "address"
        }
      ],
      "name": "OptionExercised",
      "type": "event"
    },
    {
      "anonymous": false,
      "inputs": [
        {
          "indexed": false,
          "internalType": "uint256",
          "name": "optionId",
          "type": "uint256"
        },
        {
          "indexed": true,
          "internalType": "address",
          "name": "writer",
          "type": "address"
        }
      ],
      "name": "OptionWritten",
      "type": "event"
    },
    {
      "anonymous": false,
      "inputs": [
        {
          "indexed": false,
          "internalType": "uint256",
          "name": "tradeId",
          "type": "uint256"
        }
      ],
      "name": "TradeCancelled",
      "type": "event"
    },
    {
      "anonymous": false,
      "inputs": [
        {
          "indexed": false,
          "internalType": "uint256",
          "name": "tradeId",
          "type": "uint256"
        },
        {
          "indexed": true,
          "internalType": "address",
          "name": "buyer",
          "type": "address"
        }
      ],
      "name": "TradeExecuted",
      "type": "event"
    },
    {
      "anonymous": false,
      "inputs": [
        {
          "indexed": false,
          "internalType": "uint256",
          "name": "tradeId",
          "type": "uint256"
        },
        {
          "indexed": true,
          "internalType": "address",
          "name": "poster",
          "type": "address"
        }
      ],
      "name": "TradeOpened",
      "type": "event"
    },
    {
      "inputs": [],
      "name": "getTradeCurrency",
      "outputs": [
        {
          "internalType": "address",
          "name": "",
          "type": "address"
        }
      ],
      "stateMutability": "view",
      "type": "function",
      "constant": true
    },
    {
      "inputs": [],
      "name": "getBaseUnitAmount",
      "outputs": [
        {
          "internalType": "uint256",
          "name": "",
          "type": "uint256"
        }
      ],
      "stateMutability": "pure",
      "type": "function",
      "constant": true
    },
    {
      "inputs": [
        {
          "internalType": "string",
          "name": "optionType",
          "type": "string"
        },
        {
          "internalType": "uint256",
          "name": "expiry",
          "type": "uint256"
        },
        {
          "internalType": "address",
          "name": "tokenAddress",
          "type": "address"
        },
        {
          "internalType": "uint256",
          "name": "strikePrice",
          "type": "uint256"
        }
      ],
      "name": "writeOption",
      "outputs": [
        {
          "internalType": "uint256",
          "name": "",
          "type": "uint256"
        }
      ],
      "stateMutability": "nonpayable",
      "type": "function"
    },
    {
      "inputs": [
        {
          "internalType": "uint256",
          "name": "_optionId",
          "type": "uint256"
        }
      ],
      "name": "getOption",
      "outputs": [
        {
          "internalType": "uint256",
          "name": "",
          "type": "uint256"
        },
        {
          "internalType": "string",
          "name": "",
          "type": "string"
        },
        {
          "internalType": "address",
          "name": "",
          "type": "address"
        },
        {
          "internalType": "address",
          "name": "",
          "type": "address"
        },
        {
          "internalType": "uint256",
          "name": "",
          "type": "uint256"
        },
        {
          "internalType": "string",
          "name": "",
          "type": "string"
        }
      ],
      "stateMutability": "view",
      "type": "function",
      "constant": true
    },
    {
      "inputs": [
        {
          "internalType": "uint256",
          "name": "_optionId",
          "type": "uint256"
        }
      ],
      "name": "getOptionOwner",
      "outputs": [
        {
          "internalType": "address",
          "name": "",
          "type": "address"
        }
      ],
      "stateMutability": "view",
      "type": "function",
      "constant": true
    },
    {
      "inputs": [
        {
          "internalType": "uint256",
          "name": "_optionId",
          "type": "uint256"
        }
      ],
      "name": "exerciseOption",
      "outputs": [],
      "stateMutability": "nonpayable",
      "type": "function"
    },
    {
      "inputs": [
        {
          "internalType": "uint256",
          "name": "_optionId",
          "type": "uint256"
        }
      ],
      "name": "collectExpired",
      "outputs": [],
      "stateMutability": "nonpayable",
      "type": "function"
    },
    {
      "inputs": [
        {
          "internalType": "uint256",
          "name": "_optionId",
          "type": "uint256"
        },
        {
          "internalType": "uint256",
          "name": "premium",
          "type": "uint256"
        }
      ],
      "name": "openTrade",
      "outputs": [
        {
          "internalType": "uint256",
          "name": "",
          "type": "uint256"
        }
      ],
      "stateMutability": "nonpayable",
      "type": "function"
    },
    {
      "inputs": [
        {
          "internalType": "uint256",
          "name": "_tradeId",
          "type": "uint256"
        }
      ],
      "name": "executeTrade",
      "outputs": [],
      "stateMutability": "nonpayable",
      "type": "function"
    },
    {
      "inputs": [
        {
          "internalType": "uint256",
          "name": "_tradeId",
          "type": "uint256"
        }
      ],
      "name": "getTrade",
      "outputs": [
        {
          "internalType": "address",
          "name": "",
          "type": "address"
        },
        {
          "internalType": "uint256",
          "name": "",
          "type": "uint256"
        },
        {
          "internalType": "uint256",
          "name": "",
          "type": "uint256"
        },
        {
          "internalType": "string",
          "name": "",
          "type": "string"
        }
      ],
      "stateMutability": "view",
      "type": "function",
      "constant": true
    },
    {
      "inputs": [
        {
          "internalType": "uint256",
          "name": "_tradeId",
          "type": "uint256"
        }
      ],
      "name": "cancelTrade",
      "outputs": [],
      "stateMutability": "nonpayable",
      "type": "function"
    }
  ],
  "bytecode": "0x60a06040523480156200001157600080fd5b50604051620035e1380380620035e18339818101604052810190620000379190620000d8565b336000806101000a81548173ffffffffffffffffffffffffffffffffffffffff021916908373ffffffffffffffffffffffffffffffffffffffff1602179055508073ffffffffffffffffffffffffffffffffffffffff1660808173ffffffffffffffffffffffffffffffffffffffff166c0100000000000000000000000002815250505062000152565b600081519050620000d28162000138565b92915050565b600060208284031215620000eb57600080fd5b6000620000fb84828501620000c1565b91505092915050565b6000620001118262000118565b9050919050565b600073ffffffffffffffffffffffffffffffffffffffff82169050919050565b620001438162000104565b81146200014f57600080fd5b50565b6080516c010000000000000000000000009004613439620001a86000396000818161050f015281816105df015281816111b10152818161165201528181611b68015281816121d3015261242201526134396000f3fe608060405234801561001057600080fd5b50600436106100c6576000357c0100000000000000000000000000000000000000000000000000000000900480637f03e1ab1161008e5780637f03e1ab1461019b57806381495953146101b9578063b7b4ea04146101e9578063c727010d14610205578063f52f252614610235578063fe7e30b414610251576100c6565b806302d2838b146100cb57806309ec6cc7146100e75780630c493fba146101035780631ce5e9a6146101335780632db25e0514610168575b600080fd5b6100e560048036038101906100e09190612803565b61026f565b005b61010160048036038101906100fc9190612803565b61077d565b005b61011d6004803603810190610118919061282c565b610a81565b60405161012a9190613064565b60405180910390f35b61014d60048036038101906101489190612803565b610e1f565b60405161015f9695949392919061307f565b60405180910390f35b610182600480360381019061017d9190612803565b611064565b6040516101929493929190612e58565b60405180910390f35b6101a36111ad565b6040516101b09190612ddd565b60405180910390f35b6101d360048036038101906101ce9190612803565b6111d5565b6040516101e09190612ddd565b60405180910390f35b61020360048036038101906101fe9190612803565b611212565b005b61021f600480360381019061021a9190612783565b611791565b60405161022c9190613064565b60405180910390f35b61024f600480360381019061024a9190612803565b611e19565b005b6102596125ca565b6040516102669190613064565b60405180910390f35b6000600560008381526020019081526020016000206040518060800160405290816000820160009054906101000a900473ffffffffffffffffffffffffffffffffffffffff1673ffffffffffffffffffffffffffffffffffffffff1673ffffffffffffffffffffffffffffffffffffffff1681526020016001820154815260200160028201548152602001600382018054610309906132a5565b80601f0160208091040260200160405190810160405280929190818152602001828054610335906132a5565b80156103825780601f1061035757610100808354040283529160200191610382565b820191906000526020600020905b81548152906001019060200180831161036557829003601f168201915b50505050508152505090506103d081606001516040518060400160405280600481526020017f6f70656e000000000000000000000000000000000000000000000000000000008152506125d5565b61040f576040517f08c379a000000000000000000000000000000000000000000000000000000000815260040161040690613024565b60405180910390fd5b806000015173ffffffffffffffffffffffffffffffffffffffff163373ffffffffffffffffffffffffffffffffffffffff161415610482576040517f08c379a000000000000000000000000000000000000000000000000000000000815260040161047990612f64565b60405180910390fd5b33600360008360200151815260200190815260200160002060006101000a81548173ffffffffffffffffffffffffffffffffffffffff021916908373ffffffffffffffffffffffffffffffffffffffff16021790555060006064600383604001516104ed919061319c565b6104f7919061316b565b9050600081836040015161050b91906131f6565b90507f000000000000000000000000000000000000000000000000000000000000000073ffffffffffffffffffffffffffffffffffffffff166323b872dd338560000151846040518463ffffffff167c010000000000000000000000000000000000000000000000000000000002815260040161058a93929190612df8565b602060405180830381600087803b1580156105a457600080fd5b505af11580156105b8573d6000803e3d6000fd5b505050506040513d601f19601f820116820180604052508101906105dc919061275a565b507f000000000000000000000000000000000000000000000000000000000000000073ffffffffffffffffffffffffffffffffffffffff166323b872dd3360008054906101000a900473ffffffffffffffffffffffffffffffffffffffff16856040518463ffffffff167c010000000000000000000000000000000000000000000000000000000002815260040161067693929190612df8565b602060405180830381600087803b15801561069057600080fd5b505af11580156106a4573d6000803e3d6000fd5b505050506040513d601f19601f820116820180604052508101906106c8919061275a565b506040518060400160405280600681526020017f636c6f736564000000000000000000000000000000000000000000000000000081525060056000868152602001908152602001600020600301908051906020019061072892919061262e565b503373ffffffffffffffffffffffffffffffffffffffff167f2f999a7ea97ae4d5b2ee9cc0c93865dc0eeff8748b89107bda512070e182276b8560405161076f9190613064565b60405180910390a250505050565b6000600560008381526020019081526020016000206040518060800160405290816000820160009054906101000a900473ffffffffffffffffffffffffffffffffffffffff1673ffffffffffffffffffffffffffffffffffffffff1673ffffffffffffffffffffffffffffffffffffffff1681526020016001820154815260200160028201548152602001600382018054610817906132a5565b80601f0160208091040260200160405190810160405280929190818152602001828054610843906132a5565b80156108905780601f1061086557610100808354040283529160200191610890565b820191906000526020600020905b81548152906001019060200180831161087357829003601f168201915b50505050508152505090503373ffffffffffffffffffffffffffffffffffffffff16816000015173ffffffffffffffffffffffffffffffffffffffff161461090d576040517f08c379a000000000000000000000000000000000000000000000000000000000815260040161090490613004565b60405180910390fd5b61095081606001516040518060400160405280600681526020017f636c6f73656400000000000000000000000000000000000000000000000000008152506125d5565b15610990576040517f08c379a000000000000000000000000000000000000000000000000000000000815260040161098790612ea4565b60405180910390fd5b33600360008360200151815260200190815260200160002060006101000a81548173ffffffffffffffffffffffffffffffffffffffff021916908373ffffffffffffffffffffffffffffffffffffffff1602179055506040518060400160405280600981526020017f63616e63656c6c65640000000000000000000000000000000000000000000000815250600560008481526020019081526020016000206003019080519060200190610a4592919061262e565b507f4e02dcf02d8510f6c8a6878a3c54ae6e2bfbf552df29221d7a1eed173a6b1ae782604051610a759190613064565b60405180910390a15050565b60003373ffffffffffffffffffffffffffffffffffffffff166003600085815260200190815260200160002060009054906101000a900473ffffffffffffffffffffffffffffffffffffffff1673ffffffffffffffffffffffffffffffffffffffff1614610b24576040517f08c379a0000000000000000000000000000000000000000000000000000000008152600401610b1b90612fe4565b60405180910390fd5b610c01600260008581526020019081526020016000206001018054610b48906132a5565b80601f0160208091040260200160405190810160405280929190818152602001828054610b74906132a5565b8015610bc15780601f10610b9657610100808354040283529160200191610bc1565b820191906000526020600020905b815481529060010190602001808311610ba457829003601f168201915b50505050506040518060400160405280600481526020017f6e6f6e65000000000000000000000000000000000000000000000000000000008152506125d5565b610c40576040517f08c379a0000000000000000000000000000000000000000000000000000000008152600401610c3790612f84565b60405180910390fd5b600060405180608001604052803373ffffffffffffffffffffffffffffffffffffffff1681526020018581526020018481526020016040518060400160405280600481526020017f6f70656e0000000000000000000000000000000000000000000000000000000081525081525090508060056000600454815260200190815260200160002060008201518160000160006101000a81548173ffffffffffffffffffffffffffffffffffffffff021916908373ffffffffffffffffffffffffffffffffffffffff16021790555060208201518160010155604082015181600201556060820151816003019080519060200190610d3d92919061262e565b5090505060046000815480929190610d54906132d7565b9190505550306003600086815260200190815260200160002060006101000a81548173ffffffffffffffffffffffffffffffffffffffff021916908373ffffffffffffffffffffffffffffffffffffffff1602179055503373ffffffffffffffffffffffffffffffffffffffff167f07bfee712f55f28cac8ac1eaaf90b2d2086d6b07488f352f2bf38d4a0dcf520c6001600454610df291906131f6565b604051610dff9190613064565b60405180910390a26001600454610e1691906131f6565b91505092915050565b60006060600080600060606000600260008981526020019081526020016000206040518060c001604052908160008201548152602001600182018054610e64906132a5565b80601f0160208091040260200160405190810160405280929190818152602001828054610e90906132a5565b8015610edd5780601f10610eb257610100808354040283529160200191610edd565b820191906000526020600020905b815481529060010190602001808311610ec057829003601f168201915b505050505081526020016002820160009054906101000a900473ffffffffffffffffffffffffffffffffffffffff1673ffffffffffffffffffffffffffffffffffffffff1673ffffffffffffffffffffffffffffffffffffffff1681526020016003820160009054906101000a900473ffffffffffffffffffffffffffffffffffffffff1673ffffffffffffffffffffffffffffffffffffffff1673ffffffffffffffffffffffffffffffffffffffff16815260200160048201548152602001600582018054610fac906132a5565b80601f0160208091040260200160405190810160405280929190818152602001828054610fd8906132a5565b80156110255780601f10610ffa57610100808354040283529160200191611025565b820191906000526020600020905b81548152906001019060200180831161100857829003601f168201915b5050505050815250509050806000015181602001518260400151836060015184608001518560a001519650965096509650965096505091939550919395565b600080600060606000600560008781526020019081526020016000206040518060800160405290816000820160009054906101000a900473ffffffffffffffffffffffffffffffffffffffff1673ffffffffffffffffffffffffffffffffffffffff1673ffffffffffffffffffffffffffffffffffffffff1681526020016001820154815260200160028201548152602001600382018054611105906132a5565b80601f0160208091040260200160405190810160405280929190818152602001828054611131906132a5565b801561117e5780601f106111535761010080835404028352916020019161117e565b820191906000526020600020905b81548152906001019060200180831161116157829003601f168201915b505050505081525050905080600001518160200151826040015183606001519450945094509450509193509193565b60007f0000000000000000000000000000000000000000000000000000000000000000905090565b60006003600083815260200190815260200160002060009054906101000a900473ffffffffffffffffffffffffffffffffffffffff169050919050565b6000600260008381526020019081526020016000206040518060c00160405290816000820154815260200160018201805461124c906132a5565b80601f0160208091040260200160405190810160405280929190818152602001828054611278906132a5565b80156112c55780601f1061129a576101008083540402835291602001916112c5565b820191906000526020600020905b8154815290600101906020018083116112a857829003601f168201915b505050505081526020016002820160009054906101000a900473ffffffffffffffffffffffffffffffffffffffff1673ffffffffffffffffffffffffffffffffffffffff1673ffffffffffffffffffffffffffffffffffffffff1681526020016003820160009054906101000a900473ffffffffffffffffffffffffffffffffffffffff1673ffffffffffffffffffffffffffffffffffffffff1673ffffffffffffffffffffffffffffffffffffffff16815260200160048201548152602001600582018054611394906132a5565b80601f01602080910402602001604051908101604052809291908181526020018280546113c0906132a5565b801561140d5780601f106113e25761010080835404028352916020019161140d565b820191906000526020600020905b8154815290600101906020018083116113f057829003601f168201915b50505050508152505090504281600001511061145e576040517f08c379a000000000000000000000000000000000000000000000000000000000815260040161145590612ee4565b60405180910390fd5b6114a181602001516040518060400160405280600481526020017f6e6f6e65000000000000000000000000000000000000000000000000000000008152506125d5565b6114e0576040517f08c379a00000000000000000000000000000000000000000000000000000000081526004016114d790612fa4565b60405180910390fd5b3373ffffffffffffffffffffffffffffffffffffffff16816040015173ffffffffffffffffffffffffffffffffffffffff1614611552576040517f08c379a000000000000000000000000000000000000000000000000000000000815260040161154990612f44565b60405180910390fd5b6115958160a001516040518060400160405280600481526020017f63616c6c000000000000000000000000000000000000000000000000000000008152506125d5565b1561165057806060015173ffffffffffffffffffffffffffffffffffffffff1663a9059cbb33629896806040518363ffffffff167c01000000000000000000000000000000000000000000000000000000000281526004016115f8929190612e2f565b602060405180830381600087803b15801561161257600080fd5b505af1158015611626573d6000803e3d6000fd5b505050506040513d601f19601f8201168201806040525081019061164a919061275a565b5061172d565b7f000000000000000000000000000000000000000000000000000000000000000073ffffffffffffffffffffffffffffffffffffffff1663a9059cbb336298968084608001516116a0919061319c565b6040518363ffffffff167c01000000000000000000000000000000000000000000000000000000000281526004016116d9929190612e2f565b602060405180830381600087803b1580156116f357600080fd5b505af1158015611707573d6000803e3d6000fd5b505050506040513d601f19601f8201168201806040525081019061172b919061275a565b505b6040518060400160405280600981526020017f636f6c6c6563746564000000000000000000000000000000000000000000000081525060026000848152602001908152602001600020600101908051906020019061178c92919061262e565b505050565b60008062093a80856117a3919061316b565b905060006206978062093a80836117ba919061319c565b6117c49190613115565b905061184988888080601f016020809104026020016040519081016040528093929190818152602001838380828437600081840152601f19601f820116905080830192505050505050506040518060400160405280600481526020017f63616c6c000000000000000000000000000000000000000000000000000000008152506125d5565b806118d357506118d288888080601f016020809104026020016040519081016040528093929190818152602001838380828437600081840152601f19601f820116905080830192505050505050506040518060400160405280600381526020017f70757400000000000000000000000000000000000000000000000000000000008152506125d5565b5b611912576040517f08c379a000000000000000000000000000000000000000000000000000000000815260040161190990612ec4565b60405180910390fd5b428111611954576040517f08c379a000000000000000000000000000000000000000000000000000000000815260040161194b90612fc4565b60405180910390fd5b60006040518060c001604052808381526020016040518060400160405280600481526020017f6e6f6e650000000000000000000000000000000000000000000000000000000081525081526020013373ffffffffffffffffffffffffffffffffffffffff1681526020018773ffffffffffffffffffffffffffffffffffffffff1681526020018681526020018a8a8080601f016020809104026020016040519081016040528093929190818152602001838380828437600081840152601f19601f820116905080830192505050505050508152509050611aad89898080601f016020809104026020016040519081016040528093929190818152602001838380828437600081840152601f19601f820116905080830192505050505050506040518060400160405280600481526020017f63616c6c000000000000000000000000000000000000000000000000000000008152506125d5565b15611b66578573ffffffffffffffffffffffffffffffffffffffff166323b872dd3330629896806040518463ffffffff167c0100000000000000000000000000000000000000000000000000000000028152600401611b0e93929190612df8565b602060405180830381600087803b158015611b2857600080fd5b505af1158015611b3c573d6000803e3d6000fd5b505050506040513d601f19601f82011682018060405250810190611b60919061275a565b50611c41565b7f000000000000000000000000000000000000000000000000000000000000000073ffffffffffffffffffffffffffffffffffffffff166323b872dd33306298968089611bb3919061319c565b6040518463ffffffff167c0100000000000000000000000000000000000000000000000000000000028152600401611bed93929190612df8565b602060405180830381600087803b158015611c0757600080fd5b505af1158015611c1b573d6000803e3d6000fd5b505050506040513d601f19601f82011682018060405250810190611c3f919061275a565b505b80600260006001548152602001908152602001600020600082015181600001556020820151816001019080519060200190611c7d92919061262e565b5060408201518160020160006101000a81548173ffffffffffffffffffffffffffffffffffffffff021916908373ffffffffffffffffffffffffffffffffffffffff16021790555060608201518160030160006101000a81548173ffffffffffffffffffffffffffffffffffffffff021916908373ffffffffffffffffffffffffffffffffffffffff1602179055506080820151816004015560a0820151816005019080519060200190611d3292919061262e565b509050503360036000600154815260200190815260200160002060006101000a81548173ffffffffffffffffffffffffffffffffffffffff021916908373ffffffffffffffffffffffffffffffffffffffff16021790555060016000815480929190611d9d906132d7565b91905055503373ffffffffffffffffffffffffffffffffffffffff167f606b674c20bbe962b8ce1f7a665429824aed04ed5bf026fd882fd679373a73f160018054611de891906131f6565b604051611df59190613064565b60405180910390a260018054611e0b91906131f6565b935050505095945050505050565b6000600260008381526020019081526020016000206040518060c001604052908160008201548152602001600182018054611e53906132a5565b80601f0160208091040260200160405190810160405280929190818152602001828054611e7f906132a5565b8015611ecc5780601f10611ea157610100808354040283529160200191611ecc565b820191906000526020600020905b815481529060010190602001808311611eaf57829003601f168201915b505050505081526020016002820160009054906101000a900473ffffffffffffffffffffffffffffffffffffffff1673ffffffffffffffffffffffffffffffffffffffff1673ffffffffffffffffffffffffffffffffffffffff1681526020016003820160009054906101000a900473ffffffffffffffffffffffffffffffffffffffff1673ffffffffffffffffffffffffffffffffffffffff1673ffffffffffffffffffffffffffffffffffffffff16815260200160048201548152602001600582018054611f9b906132a5565b80601f0160208091040260200160405190810160405280929190818152602001828054611fc7906132a5565b80156120145780601f10611fe957610100808354040283529160200191612014565b820191906000526020600020905b815481529060010190602001808311611ff757829003601f168201915b50505050508152505090504281600001511015612066576040517f08c379a000000000000000000000000000000000000000000000000000000000815260040161205d90612f04565b60405180910390fd5b6120a981602001516040518060400160405280600481526020017f6e6f6e65000000000000000000000000000000000000000000000000000000008152506125d5565b6120e8576040517f08c379a00000000000000000000000000000000000000000000000000000000081526004016120df90613044565b60405180910390fd5b3373ffffffffffffffffffffffffffffffffffffffff166003600084815260200190815260200160002060009054906101000a900473ffffffffffffffffffffffffffffffffffffffff1673ffffffffffffffffffffffffffffffffffffffff1614612189576040517f08c379a000000000000000000000000000000000000000000000000000000000815260040161218090612f24565b60405180910390fd5b6121cc8160a001516040518060400160405280600481526020017f63616c6c000000000000000000000000000000000000000000000000000000008152506125d5565b15612369577f000000000000000000000000000000000000000000000000000000000000000073ffffffffffffffffffffffffffffffffffffffff166323b872dd338360400151629896808560800151612226919061319c565b6040518463ffffffff167c010000000000000000000000000000000000000000000000000000000002815260040161226093929190612df8565b602060405180830381600087803b15801561227a57600080fd5b505af115801561228e573d6000803e3d6000fd5b505050506040513d601f19601f820116820180604052508101906122b2919061275a565b50806060015173ffffffffffffffffffffffffffffffffffffffff1663a9059cbb33629896806040518363ffffffff167c0100000000000000000000000000000000000000000000000000000000028152600401612311929190612e2f565b602060405180830381600087803b15801561232b57600080fd5b505af115801561233f573d6000803e3d6000fd5b505050506040513d601f19601f82011682018060405250810190612363919061275a565b506124fd565b806060015173ffffffffffffffffffffffffffffffffffffffff166323b872dd338360400151629896806040518463ffffffff167c01000000000000000000000000000000000000000000000000000000000281526004016123cd93929190612df8565b602060405180830381600087803b1580156123e757600080fd5b505af11580156123fb573d6000803e3d6000fd5b505050506040513d601f19601f8201168201806040525081019061241f919061275a565b507f000000000000000000000000000000000000000000000000000000000000000073ffffffffffffffffffffffffffffffffffffffff1663a9059cbb33629896808460800151612470919061319c565b6040518363ffffffff167c01000000000000000000000000000000000000000000000000000000000281526004016124a9929190612e2f565b602060405180830381600087803b1580156124c357600080fd5b505af11580156124d7573d6000803e3d6000fd5b505050506040513d601f19601f820116820180604052508101906124fb919061275a565b505b6040518060400160405280600981526020017f657865726369736564000000000000000000000000000000000000000000000081525060026000848152602001908152602001600020600101908051906020019061255c92919061262e565b503373ffffffffffffffffffffffffffffffffffffffff16816040015173ffffffffffffffffffffffffffffffffffffffff167fbe38b3704166f0e904f93963eae13ca02ec939a255af46a3340dcdfeb2ee2899846040516125be9190613064565b60405180910390a35050565b600062989680905090565b6000816040516020016125e89190612dc6565b604051602081830303815290604052805190602001208360405160200161260f9190612dc6565b6040516020818303038152906040528051906020012014905092915050565b82805461263a906132a5565b90600052602060002090601f01602090048101928261265c57600085556126a3565b82601f1061267557805160ff19168380011785556126a3565b828001600101855582156126a3579182015b828111156126a2578251825591602001919060010190612687565b5b5090506126b091906126b4565b5090565b5b808211156126cd5760008160009055506001016126b5565b5090565b6000813590506126e0816133be565b92915050565b6000815190506126f5816133d5565b92915050565b60008083601f84011261270d57600080fd5b8235905067ffffffffffffffff81111561272657600080fd5b60208301915083600182028301111561273e57600080fd5b9250929050565b600081359050612754816133ec565b92915050565b60006020828403121561276c57600080fd5b600061277a848285016126e6565b91505092915050565b60008060008060006080868803121561279b57600080fd5b600086013567ffffffffffffffff8111156127b557600080fd5b6127c1888289016126fb565b955095505060206127d488828901612745565b93505060406127e5888289016126d1565b92505060606127f688828901612745565b9150509295509295909350565b60006020828403121561281557600080fd5b600061282384828501612745565b91505092915050565b6000806040838503121561283f57600080fd5b600061284d85828601612745565b925050602061285e85828601612745565b9150509250929050565b6128718161322a565b82525050565b6000612882826130ee565b61288c81856130f9565b935061289c818560208601613272565b6128a5816133ad565b840191505092915050565b60006128bb826130ee565b6128c5818561310a565b93506128d5818560208601613272565b80840191505092915050565b60006128ee601d836130f9565b91507f54726164652068617320616c7265616479206265656e20636c6f7365640000006000830152602082019050919050565b600061292e6027836130f9565b91507f4f7074696f6e2074797065206d6179206f6e6c79206265202763616c6c27206f60008301527f72202770757427000000000000000000000000000000000000000000000000006020830152604082019050919050565b6000612994601a836130f9565b91507f4f7074696f6e20686173206e6f742065787069726564207965740000000000006000830152602082019050919050565b60006129d46012836130f9565b91507f4f7074696f6e20686173206578706972656400000000000000000000000000006000830152602082019050919050565b6000612a14602c836130f9565b91507f4f6e6c7920746865206f776e6572206f6620746865206f7074696f6e206d617960008301527f20657865726369736520697400000000000000000000000000000000000000006020830152604082019050919050565b6000612a7a602d836130f9565b91507f4f6e6c792074686520777269746572206d617920636f6c6c65637420616e206560008301527f787069726564206f7074696f6e000000000000000000000000000000000000006020830152604082019050919050565b6000612ae06047836130f9565b91507f547261646520706f73746572206d6179206e6f7420657865637574652074686560008301527f6972206f776e2074726164652c20757365202763616e63656c5472616465272060208301527f696e7374656164000000000000000000000000000000000000000000000000006040830152606082019050919050565b6000612b6c6019836130f9565b91507f43616e6e6f74206c69737420612075736564206f7074696f6e000000000000006000830152602082019050919050565b6000612bac602e836130f9565b91507f4f7074696f6e2068617320616c7265616479206265656e20657865726369736560008301527f64206f7220636f6c6c65637465640000000000000000000000000000000000006020830152604082019050919050565b6000612c12601c836130f9565b91507f457870697279206d75737420626520696e2074686520667574757265000000006000830152602082019050919050565b6000612c526034836130f9565b91507f4f6e6c7920746865206f776e6572206f6620746865206f7074696f6e206d617960008301527f206f70656e206120747261646520666f722069740000000000000000000000006020830152604082019050919050565b6000612cb86022836130f9565b91507f4f6e6c792074686520706f73746572206d61792063616e63656c20612074726160008301527f64650000000000000000000000000000000000000000000000000000000000006020830152604082019050919050565b6000612d1e6020836130f9565b91507f4f6e6c79206f70656e20747261646573206d61792062652065786563757465646000830152602082019050919050565b6000612d5e6021836130f9565b91507f4f7074696f6e2068617320616c7265616479206265656e20657865726369736560008301527f64000000000000000000000000000000000000000000000000000000000000006020830152604082019050919050565b612dc081613268565b82525050565b6000612dd282846128b0565b915081905092915050565b6000602082019050612df26000830184612868565b92915050565b6000606082019050612e0d6000830186612868565b612e1a6020830185612868565b612e276040830184612db7565b949350505050565b6000604082019050612e446000830185612868565b612e516020830184612db7565b9392505050565b6000608082019050612e6d6000830187612868565b612e7a6020830186612db7565b612e876040830185612db7565b8181036060830152612e998184612877565b905095945050505050565b60006020820190508181036000830152612ebd816128e1565b9050919050565b60006020820190508181036000830152612edd81612921565b9050919050565b60006020820190508181036000830152612efd81612987565b9050919050565b60006020820190508181036000830152612f1d816129c7565b9050919050565b60006020820190508181036000830152612f3d81612a07565b9050919050565b60006020820190508181036000830152612f5d81612a6d565b9050919050565b60006020820190508181036000830152612f7d81612ad3565b9050919050565b60006020820190508181036000830152612f9d81612b5f565b9050919050565b60006020820190508181036000830152612fbd81612b9f565b9050919050565b60006020820190508181036000830152612fdd81612c05565b9050919050565b60006020820190508181036000830152612ffd81612c45565b9050919050565b6000602082019050818103600083015261301d81612cab565b9050919050565b6000602082019050818103600083015261303d81612d11565b9050919050565b6000602082019050818103600083015261305d81612d51565b9050919050565b60006020820190506130796000830184612db7565b92915050565b600060c0820190506130946000830189612db7565b81810360208301526130a68188612877565b90506130b56040830187612868565b6130c26060830186612868565b6130cf6080830185612db7565b81810360a08301526130e18184612877565b9050979650505050505050565b600081519050919050565b600082825260208201905092915050565b600081905092915050565b600061312082613268565b915061312b83613268565b9250827fffffffffffffffffffffffffffffffffffffffffffffffffffffffffffffffff038211156131605761315f613320565b5b828201905092915050565b600061317682613268565b915061318183613268565b9250826131915761319061334f565b5b828204905092915050565b60006131a782613268565b91506131b283613268565b9250817fffffffffffffffffffffffffffffffffffffffffffffffffffffffffffffffff04831182151516156131eb576131ea613320565b5b828202905092915050565b600061320182613268565b915061320c83613268565b92508282101561321f5761321e613320565b5b828203905092915050565b600061323582613248565b9050919050565b60008115159050919050565b600073ffffffffffffffffffffffffffffffffffffffff82169050919050565b6000819050919050565b60005b83811015613290578082015181840152602081019050613275565b8381111561329f576000848401525b50505050565b600060028204905060018216806132bd57607f821691505b602082108114156132d1576132d061337e565b5b50919050565b60006132e282613268565b91507fffffffffffffffffffffffffffffffffffffffffffffffffffffffffffffffff82141561331557613314613320565b5b600182019050919050565b7f4e487b7100000000000000000000000000000000000000000000000000000000600052601160045260246000fd5b7f4e487b7100000000000000000000000000000000000000000000000000000000600052601260045260246000fd5b7f4e487b7100000000000000000000000000000000000000000000000000000000600052602260045260246000fd5b6000601f19601f8301169050919050565b6133c78161322a565b81146133d257600080fd5b50565b6133de8161323c565b81146133e957600080fd5b50565b6133f581613268565b811461340057600080fd5b5056fea2646970667358221220e0d1c055b3f9c623166265ae403183fa2566d24e87ab265bf379304639438b0464736f6c63430008000033",
  "immutableReferences": {
    "160": [
      {
        "length": 32,
        "start": 1295
      },
      {
        "length": 32,
        "start": 1503
      },
      {
        "length": 32,
        "start": 4529
      },
      {
        "length": 32,
        "start": 5714
      },
      {
        "length": 32,
        "start": 7016
      },
      {
        "length": 32,
        "start": 8659
      },
      {
        "length": 32,
        "start": 9250
      }
    ]
  },
  "source": "// SPDX-License-Identifier: GPL-3.0-only\npragma solidity ^0.8.0;\n\nimport \"@openzeppelin/contracts/token/ERC20/IERC20.sol\";\n\ncontract OptionsMarket {\n    // Admin access\n    address private owner;\n\n    // Option data\n    struct Option {\n        uint256 expiry;\n        string status; // none, exercised, collected\n        address writer;\n        address tokenAddress;\n        uint256 strikePrice;\n        string optionType; // call, put\n    }\n\n    uint256 private constant BASE_UNIT_AMOUNT = 10e6;\n    uint256 private optionId;\n    mapping(uint256 => Option) private options;\n    mapping(uint256 => address) private optionOwners;\n\n    // Trade data\n    struct Trade {\n        address poster;\n        uint256 optionId;\n        uint256 premium;\n        string status; // open, closed, cancelled\n    }\n\n    uint256 private tradeId;\n    mapping(uint256 => Trade) private trades;\n    address private immutable tradeCurrency;\n\n    constructor(address currency) {\n        // Set the owner as the deployer of the contract and set the currency of the trades\n        owner = msg.sender;\n        tradeCurrency = currency;\n    }\n\n    // Declare events for logging data\n    event OptionWritten(uint256 optionId, address indexed writer);\n    event OptionExercised(uint256 optionId, address indexed writer, address indexed exerciser);\n    event TradeOpened(uint256 tradeId, address indexed poster);\n    event TradeExecuted(uint256 tradeId, address indexed buyer);\n    event TradeCancelled(uint256 tradeId);\n\n    // ============= Util functions =============\n\n    // Compare if two strings are equal\n    function _compareStrings(string memory a, string memory b) private pure returns (bool) {\n        return keccak256(abi.encodePacked(a)) == keccak256(abi.encodePacked(b));\n    }\n\n    // Get the trade currency of the token\n    function getTradeCurrency() external view returns (address) {\n        return tradeCurrency;\n    }\n\n    // Get the number of base units of the token traded per option\n    function getBaseUnitAmount() external pure returns (uint256) {\n        return BASE_UNIT_AMOUNT;\n    }\n\n    // ============= Option functions =============\n\n    // Allow the address to create a new option\n    function writeOption(string calldata optionType, uint256 expiry, address tokenAddress, uint256 strikePrice) external returns (uint256) {\n        // Make the expiry weekly every friday\n        uint256 expiryTemp = expiry / (86400 * 7);\n        uint256 optionExpiry = expiryTemp * (86400 * 7) + 86400 * 5;\n        \n        // Check that the option is valid\n        require(_compareStrings(optionType, \"call\") || _compareStrings(optionType, \"put\"), \"Option type may only be 'call' or 'put'\");\n        require(optionExpiry > block.timestamp, \"Expiry must be in the future\");\n\n        // Write a new option\n        Option memory option = Option({\n            expiry: optionExpiry,\n            status: \"none\",\n            writer: msg.sender,\n            tokenAddress: tokenAddress,\n            strikePrice: strikePrice,\n            optionType: optionType\n        });\n\n        // If this is a call then transfer the amount of the token to the contract,\n        // otherwise transfer the trade currency x strike price to the contract\n        if (_compareStrings(optionType, \"call\")) {\n            IERC20(tokenAddress).transferFrom(msg.sender, address(this), BASE_UNIT_AMOUNT); \n        } else {\n            IERC20(tradeCurrency).transferFrom(msg.sender, address(this), strikePrice * BASE_UNIT_AMOUNT);\n        }\n\n        // Save the option\n        options[optionId] = option;\n        optionOwners[optionId] = msg.sender;\n        optionId++;\n\n        // Emit an event and return the id of the option\n        emit OptionWritten(optionId - 1, msg.sender);\n        return optionId - 1;\n    }\n\n    // Get the data of an option\n    function getOption(uint256 _optionId) external view returns (uint256, string memory, address, address, uint256, string memory) {\n        Option memory option = options[_optionId];\n        return (option.expiry, option.status, option.writer, option.tokenAddress, option.strikePrice, option.optionType);\n    }\n\n    // Get the owner of an option\n    function getOptionOwner(uint256 _optionId) external view returns (address) {\n        return optionOwners[_optionId];\n    }\n\n    // Allow a option holder to exercise their option\n    function exerciseOption(uint256 _optionId) external {\n        // Get the data of the option\n        Option memory option = options[_optionId];\n\n        // Check that the option may be exercised\n        require(option.expiry >= block.timestamp, \"Option has expired\");\n        require(_compareStrings(option.status, \"none\"), \"Option has already been exercised\");\n        require(optionOwners[_optionId] == msg.sender, \"Only the owner of the option may exercise it\");\n\n        // If the option is a call, then charge the strike price x num tokens to receive the tokens,\n        // else if the option is a put, transfer their tokens\n        if (_compareStrings(option.optionType, \"call\")) {\n            IERC20(tradeCurrency).transferFrom(msg.sender, option.writer, option.strikePrice * BASE_UNIT_AMOUNT);\n            IERC20(option.tokenAddress).transfer(msg.sender, BASE_UNIT_AMOUNT);\n        } else {\n            IERC20(option.tokenAddress).transferFrom(msg.sender, option.writer, BASE_UNIT_AMOUNT);\n            IERC20(tradeCurrency).transfer(msg.sender, option.strikePrice * BASE_UNIT_AMOUNT);\n        }\n\n        // Update the status of the option and emit event\n        options[_optionId].status = \"exercised\";\n        emit OptionExercised(_optionId, option.writer, msg.sender);\n    }\n\n    // Allow a writer to collect an expired contract\n    function collectExpired(uint256 _optionId) external {\n        // Get the data of the option\n        Option memory option = options[_optionId];\n\n        // Check that the option may be collected\n        require(option.expiry < block.timestamp, \"Option has not expired yet\");\n        require(_compareStrings(option.status, \"none\"), \"Option has already been exercised or collected\");\n        require(option.writer == msg.sender, \"Only the writer may collect an expired option\");\n\n        // If the option is a call then transfer the tokens back to the writer,\n        // otherwise transfer the strike price x num tokens back to the writer\n        if (_compareStrings(option.optionType, \"call\")) {\n            IERC20(option.tokenAddress).transfer(msg.sender, BASE_UNIT_AMOUNT);\n        } else {\n            IERC20(tradeCurrency).transfer(msg.sender, option.strikePrice * BASE_UNIT_AMOUNT);\n        }\n\n        // Update the status of the option\n        options[_optionId].status = \"collected\";\n    }\n\n    // ============= Marketplace functions =============\n\n    // Open a new trade for selling an option\n    function openTrade(uint256 _optionId, uint256 premium) external returns (uint256) {\n        // Check that the trade may be opened\n        require(optionOwners[_optionId] == msg.sender, \"Only the owner of the option may open a trade for it\");\n        require(_compareStrings(options[_optionId].status, \"none\"), \"Cannot list a used option\");\n\n        // Create a new trade\n        Trade memory trade = Trade({\n            poster: msg.sender,\n            optionId: _optionId,\n            premium: premium,\n            status: \"open\"\n        });\n\n        // Store the new trade\n        trades[tradeId] = trade;\n        tradeId++;\n\n        // Transfer the option to the contract\n        optionOwners[_optionId] = address(this);\n\n        // Emit an event and return the trade id\n        emit TradeOpened(tradeId - 1, msg.sender);\n        return tradeId - 1;\n    }\n\n    // Execute a trade for buying an option\n    function executeTrade(uint256 _tradeId) external {\n        // Get the trade\n        Trade memory trade = trades[_tradeId];\n\n        // Verify that the trade may be executed\n        require(_compareStrings(trade.status, \"open\"), \"Only open trades may be executed\");\n        require(msg.sender != trade.poster, \"Trade poster may not execute their own trade, use 'cancelTrade' instead\");\n\n        // Transfer the option\n        optionOwners[trade.optionId] = msg.sender;\n\n        // Charge the recipient and pay a fee to the owner\n        uint256 fee = trade.premium * 3 / 100; \n        uint256 payout = trade.premium - fee;\n        IERC20(tradeCurrency).transferFrom(msg.sender, trade.poster, payout);\n        IERC20(tradeCurrency).transferFrom(msg.sender, owner, fee);\n\n        // Update the status of the trade\n        trades[_tradeId].status = \"closed\";\n\n        // Emit an event\n        emit TradeExecuted(_tradeId, msg.sender);\n    }\n\n    // View a trade\n    function getTrade(uint256 _tradeId) external view returns (address, uint256, uint256, string memory) {\n        Trade memory trade = trades[_tradeId];\n        return (trade.poster, trade.optionId, trade.premium, trade.status);\n    }\n\n    // Cancel a trade\n    function cancelTrade(uint256 _tradeId) external {\n        // Get the trade\n        Trade memory trade = trades[_tradeId];\n\n        // Check that the trade may be cancelled\n        require(trade.poster == msg.sender, \"Only the poster may cancel a trade\");\n        require(!_compareStrings(trade.status, \"closed\"), \"Trade has already been closed\");\n\n        // Transfer the option back to the poster\n        optionOwners[trade.optionId] = msg.sender;\n\n        // Set status to cancelled\n        trades[_tradeId].status = \"cancelled\";\n\n        // Emit an event\n        emit TradeCancelled(_tradeId);\n    }\n}",
  "sourcePath": "/home/ben/Code/Crypto-Options/src/dapp/contracts/OptionsMarket.sol",
  "compiler": {
    "name": "solc",
    "version": "0.8.0+commit.c7dfd78e.Emscripten.clang"
  },
  "schemaVersion": "3.4.3",
  "updatedAt": "2021-09-28T10:31:31.202Z",
  "networkType": "ethereum",
  "devdoc": {
    "kind": "dev",
    "methods": {},
    "version": 1
  },
  "userdoc": {
    "kind": "user",
    "methods": {},
    "version": 1
  }
}