{
  "contractName": "OptionsMarket",
  "abi": [
    {
      "inputs": [
        {
          "internalType": "address",
          "name": "currency",
          "type": "address"
        }
      ],
      "stateMutability": "nonpayable",
      "type": "constructor"
    },
    {
      "anonymous": false,
      "inputs": [
        {
          "indexed": false,
          "internalType": "uint256",
          "name": "optionId",
          "type": "uint256"
        },
        {
          "indexed": true,
          "internalType": "address",
          "name": "writer",
          "type": "address"
        },
        {
          "indexed": true,
          "internalType": "address",
          "name": "exerciser",
          "type": "address"
        }
      ],
      "name": "OptionExercised",
      "type": "event"
    },
    {
      "anonymous": false,
      "inputs": [
        {
          "indexed": false,
          "internalType": "uint256",
          "name": "optionId",
          "type": "uint256"
        },
        {
          "indexed": true,
          "internalType": "address",
          "name": "writer",
          "type": "address"
        }
      ],
      "name": "OptionWritten",
      "type": "event"
    },
    {
      "anonymous": false,
      "inputs": [
        {
          "indexed": false,
          "internalType": "uint256",
          "name": "tradeId",
          "type": "uint256"
        },
        {
          "indexed": false,
          "internalType": "uint256",
          "name": "optionId",
          "type": "uint256"
        },
        {
          "indexed": true,
          "internalType": "address",
          "name": "buyer",
          "type": "address"
        }
      ],
      "name": "TradeExecuted",
      "type": "event"
    },
    {
      "anonymous": false,
      "inputs": [
        {
          "indexed": false,
          "internalType": "uint256",
          "name": "tradeId",
          "type": "uint256"
        },
        {
          "indexed": false,
          "internalType": "uint256",
          "name": "optionId",
          "type": "uint256"
        },
        {
          "indexed": true,
          "internalType": "address",
          "name": "poster",
          "type": "address"
        }
      ],
      "name": "TradeOpened",
      "type": "event"
    },
    {
      "inputs": [],
      "name": "getTradeCurrency",
      "outputs": [
        {
          "internalType": "address",
          "name": "",
          "type": "address"
        }
      ],
      "stateMutability": "view",
      "type": "function",
      "constant": true
    },
    {
      "inputs": [
        {
          "internalType": "string",
          "name": "optionType",
          "type": "string"
        },
        {
          "internalType": "uint256",
          "name": "expiry",
          "type": "uint256"
        },
        {
          "internalType": "address",
          "name": "tokenAddress",
          "type": "address"
        },
        {
          "internalType": "uint256",
          "name": "amount",
          "type": "uint256"
        },
        {
          "internalType": "uint256",
          "name": "price",
          "type": "uint256"
        }
      ],
      "name": "writeOption",
      "outputs": [
        {
          "internalType": "uint256",
          "name": "",
          "type": "uint256"
        }
      ],
      "stateMutability": "nonpayable",
      "type": "function"
    },
    {
      "inputs": [
        {
          "internalType": "uint256",
          "name": "_optionId",
          "type": "uint256"
        }
      ],
      "name": "getOption",
      "outputs": [
        {
          "internalType": "uint256",
          "name": "",
          "type": "uint256"
        },
        {
          "internalType": "string",
          "name": "",
          "type": "string"
        },
        {
          "internalType": "address",
          "name": "",
          "type": "address"
        },
        {
          "internalType": "address",
          "name": "",
          "type": "address"
        },
        {
          "internalType": "uint256",
          "name": "",
          "type": "uint256"
        },
        {
          "internalType": "uint256",
          "name": "",
          "type": "uint256"
        },
        {
          "internalType": "string",
          "name": "",
          "type": "string"
        }
      ],
      "stateMutability": "view",
      "type": "function",
      "constant": true
    },
    {
      "inputs": [
        {
          "internalType": "uint256",
          "name": "_optionId",
          "type": "uint256"
        }
      ],
      "name": "getOptionOwner",
      "outputs": [
        {
          "internalType": "address",
          "name": "",
          "type": "address"
        }
      ],
      "stateMutability": "view",
      "type": "function",
      "constant": true
    },
    {
      "inputs": [
        {
          "internalType": "uint256",
          "name": "_optionId",
          "type": "uint256"
        }
      ],
      "name": "exerciseOption",
      "outputs": [],
      "stateMutability": "nonpayable",
      "type": "function"
    },
    {
      "inputs": [
        {
          "internalType": "uint256",
          "name": "_optionId",
          "type": "uint256"
        }
      ],
      "name": "collectExpired",
      "outputs": [],
      "stateMutability": "nonpayable",
      "type": "function"
    },
    {
      "inputs": [
        {
          "internalType": "uint256",
          "name": "_optionId",
          "type": "uint256"
        },
        {
          "internalType": "uint256",
          "name": "price",
          "type": "uint256"
        }
      ],
      "name": "openTrade",
      "outputs": [
        {
          "internalType": "uint256",
          "name": "",
          "type": "uint256"
        }
      ],
      "stateMutability": "nonpayable",
      "type": "function"
    },
    {
      "inputs": [
        {
          "internalType": "uint256",
          "name": "_tradeId",
          "type": "uint256"
        }
      ],
      "name": "executeTrade",
      "outputs": [],
      "stateMutability": "nonpayable",
      "type": "function"
    },
    {
      "inputs": [
        {
          "internalType": "uint256",
          "name": "_tradeId",
          "type": "uint256"
        }
      ],
      "name": "getTrade",
      "outputs": [
        {
          "internalType": "address",
          "name": "",
          "type": "address"
        },
        {
          "internalType": "uint256",
          "name": "",
          "type": "uint256"
        },
        {
          "internalType": "uint256",
          "name": "",
          "type": "uint256"
        },
        {
          "internalType": "string",
          "name": "",
          "type": "string"
        }
      ],
      "stateMutability": "view",
      "type": "function",
      "constant": true
    },
    {
      "inputs": [
        {
          "internalType": "uint256",
          "name": "_tradeId",
          "type": "uint256"
        }
      ],
      "name": "cancelTrade",
      "outputs": [],
      "stateMutability": "nonpayable",
      "type": "function"
    }
  ],
  "bytecode": "0x60a06040523480156200001157600080fd5b50604051620030fe380380620030fe8339818101604052810190620000379190620000cc565b336000806101000a81548173ffffffffffffffffffffffffffffffffffffffff021916908373ffffffffffffffffffffffffffffffffffffffff1602179055508073ffffffffffffffffffffffffffffffffffffffff1660808173ffffffffffffffffffffffffffffffffffffffff1660601b815250505062000146565b600081519050620000c6816200012c565b92915050565b600060208284031215620000df57600080fd5b6000620000ef84828501620000b5565b91505092915050565b600062000105826200010c565b9050919050565b600073ffffffffffffffffffffffffffffffffffffffff82169050919050565b6200013781620000f8565b81146200014357600080fd5b50565b60805160601c612f6f6200018f600039600081816104570152818161050b01528181611201015281816114940152818161192401528181611dfd0152611fec0152612f6f6000f3fe608060405234801561001057600080fd5b506004361061009e5760003560e01c8063706efac511610066578063706efac5146101745780637f03e1ab146101a457806381495953146101c2578063b7b4ea04146101f2578063f52f25261461020e5761009e565b806302d2838b146100a357806309ec6cc7146100bf5780630c493fba146100db5780631ce5e9a61461010b5780632db25e0514610141575b600080fd5b6100bd60048036038101906100b891906123c5565b61022a565b005b6100d960048036038101906100d491906123c5565b610693565b005b6100f560048036038101906100f091906123ee565b610960565b6040516101029190612b1a565b60405180910390f35b610125600480360381019061012091906123c5565b610be4565b6040516101389796959493929190612b35565b60405180910390f35b61015b600480360381019061015691906123c5565b610e3d565b60405161016b949392919061294e565b60405180910390f35b61018e60048036038101906101899190612336565b610f86565b60405161019b9190612b1a565b60405180910390f35b6101ac611490565b6040516101b991906128d3565b60405180910390f35b6101dc60048036038101906101d791906123c5565b6114b8565b6040516101e991906128d3565b60405180910390f35b61020c600480360381019061020791906123c5565b6114f5565b005b610228600480360381019061022391906123c5565b611a39565b005b6000600560008381526020019081526020016000206040518060800160405290816000820160009054906101000a900473ffffffffffffffffffffffffffffffffffffffff1673ffffffffffffffffffffffffffffffffffffffff1673ffffffffffffffffffffffffffffffffffffffff16815260200160018201548152602001600282015481526020016003820180546102c490612dac565b80601f01602080910402602001604051908101604052809291908181526020018280546102f090612dac565b801561033d5780601f106103125761010080835404028352916020019161033d565b820191906000526020600020905b81548152906001019060200180831161032057829003601f168201915b505050505081525050905061038b81606001516040518060400160405280600481526020017f6f70656e0000000000000000000000000000000000000000000000000000000081525061216a565b6103ca576040517f08c379a00000000000000000000000000000000000000000000000000000000081526004016103c190612ada565b60405180910390fd5b33600360008360200151815260200190815260200160002060006101000a81548173ffffffffffffffffffffffffffffffffffffffff021916908373ffffffffffffffffffffffffffffffffffffffff16021790555060006064600383604001516104359190612c94565b61043f9190612c63565b905060008183604001516104539190612cee565b90507f000000000000000000000000000000000000000000000000000000000000000073ffffffffffffffffffffffffffffffffffffffff166323b872dd338560000151846040518463ffffffff1660e01b81526004016104b6939291906128ee565b602060405180830381600087803b1580156104d057600080fd5b505af11580156104e4573d6000803e3d6000fd5b505050506040513d601f19601f82011682018060405250810190610508919061230d565b507f000000000000000000000000000000000000000000000000000000000000000073ffffffffffffffffffffffffffffffffffffffff166323b872dd3360008054906101000a900473ffffffffffffffffffffffffffffffffffffffff16856040518463ffffffff1660e01b8152600401610586939291906128ee565b602060405180830381600087803b1580156105a057600080fd5b505af11580156105b4573d6000803e3d6000fd5b505050506040513d601f19601f820116820180604052508101906105d8919061230d565b506040518060400160405280600681526020017f636c6f73656400000000000000000000000000000000000000000000000000008152506005600086815260200190815260200160002060030190805190602001906106389291906121c3565b503373ffffffffffffffffffffffffffffffffffffffff167fcd4549424763814841fd85ada3413dd0f4ec86f6bde5a04a93f9c20e20c653cc858560200151604051610685929190612bb2565b60405180910390a250505050565b6000600560008381526020019081526020016000206040518060800160405290816000820160009054906101000a900473ffffffffffffffffffffffffffffffffffffffff1673ffffffffffffffffffffffffffffffffffffffff1673ffffffffffffffffffffffffffffffffffffffff168152602001600182015481526020016002820154815260200160038201805461072d90612dac565b80601f016020809104026020016040519081016040528092919081815260200182805461075990612dac565b80156107a65780601f1061077b576101008083540402835291602001916107a6565b820191906000526020600020905b81548152906001019060200180831161078957829003601f168201915b50505050508152505090503373ffffffffffffffffffffffffffffffffffffffff16816000015173ffffffffffffffffffffffffffffffffffffffff1614610823576040517f08c379a000000000000000000000000000000000000000000000000000000000815260040161081a90612aba565b60405180910390fd5b61086681606001516040518060400160405280600681526020017f636c6f736564000000000000000000000000000000000000000000000000000081525061216a565b156108a6576040517f08c379a000000000000000000000000000000000000000000000000000000000815260040161089d9061299a565b60405180910390fd5b33600360008360200151815260200190815260200160002060006101000a81548173ffffffffffffffffffffffffffffffffffffffff021916908373ffffffffffffffffffffffffffffffffffffffff1602179055506040518060400160405280600981526020017f63616e63656c6c6564000000000000000000000000000000000000000000000081525060056000848152602001908152602001600020600301908051906020019061095b9291906121c3565b505050565b60003373ffffffffffffffffffffffffffffffffffffffff166003600085815260200190815260200160002060009054906101000a900473ffffffffffffffffffffffffffffffffffffffff1673ffffffffffffffffffffffffffffffffffffffff1614610a03576040517f08c379a00000000000000000000000000000000000000000000000000000000081526004016109fa90612a9a565b60405180910390fd5b600060405180608001604052803373ffffffffffffffffffffffffffffffffffffffff1681526020018581526020018481526020016040518060400160405280600481526020017f6f70656e0000000000000000000000000000000000000000000000000000000081525081525090508060056000600454815260200190815260200160002060008201518160000160006101000a81548173ffffffffffffffffffffffffffffffffffffffff021916908373ffffffffffffffffffffffffffffffffffffffff16021790555060208201518160010155604082015181600201556060820151816003019080519060200190610b009291906121c3565b5090505060046000815480929190610b1790612dde565b9190505550306003600086815260200190815260200160002060006101000a81548173ffffffffffffffffffffffffffffffffffffffff021916908373ffffffffffffffffffffffffffffffffffffffff1602179055503373ffffffffffffffffffffffffffffffffffffffff167f132feb0275d32a02a9b2a45bbcdeb49835d2b9d88b0db4f91470ca50a5ad78ce6001600454610bb59190612cee565b86604051610bc4929190612bb2565b60405180910390a26001600454610bdb9190612cee565b91505092915050565b6000606060008060008060606000600260008a81526020019081526020016000206040518060e001604052908160008201548152602001600182018054610c2a90612dac565b80601f0160208091040260200160405190810160405280929190818152602001828054610c5690612dac565b8015610ca35780601f10610c7857610100808354040283529160200191610ca3565b820191906000526020600020905b815481529060010190602001808311610c8657829003601f168201915b505050505081526020016002820160009054906101000a900473ffffffffffffffffffffffffffffffffffffffff1673ffffffffffffffffffffffffffffffffffffffff1673ffffffffffffffffffffffffffffffffffffffff1681526020016003820160009054906101000a900473ffffffffffffffffffffffffffffffffffffffff1673ffffffffffffffffffffffffffffffffffffffff1673ffffffffffffffffffffffffffffffffffffffff1681526020016004820154815260200160058201548152602001600682018054610d7c90612dac565b80601f0160208091040260200160405190810160405280929190818152602001828054610da890612dac565b8015610df55780601f10610dca57610100808354040283529160200191610df5565b820191906000526020600020905b815481529060010190602001808311610dd857829003601f168201915b5050505050815250509050806000015181602001518260400151836060015184608001518560a001518660c00151975097509750975097509750975050919395979092949650565b600080600060606000600560008781526020019081526020016000206040518060800160405290816000820160009054906101000a900473ffffffffffffffffffffffffffffffffffffffff1673ffffffffffffffffffffffffffffffffffffffff1673ffffffffffffffffffffffffffffffffffffffff1681526020016001820154815260200160028201548152602001600382018054610ede90612dac565b80601f0160208091040260200160405190810160405280929190818152602001828054610f0a90612dac565b8015610f575780601f10610f2c57610100808354040283529160200191610f57565b820191906000526020600020905b815481529060010190602001808311610f3a57829003601f168201915b505050505081525050905080600001518160200151826040015183606001519450945094509450509193509193565b6000610fc7866040518060400160405280600481526020017f63616c6c0000000000000000000000000000000000000000000000000000000081525061216a565b8061100d575061100c866040518060400160405280600381526020017f707574000000000000000000000000000000000000000000000000000000000081525061216a565b5b61104c576040517f08c379a0000000000000000000000000000000000000000000000000000000008152600401611043906129ba565b60405180910390fd5b42851161108e576040517f08c379a000000000000000000000000000000000000000000000000000000000815260040161108590612a7a565b60405180910390fd5b60006040518060e001604052808781526020016040518060400160405280600481526020017f6e6f6e650000000000000000000000000000000000000000000000000000000081525081526020013373ffffffffffffffffffffffffffffffffffffffff1681526020018673ffffffffffffffffffffffffffffffffffffffff168152602001858152602001848152602001888152509050611165876040518060400160405280600481526020017f63616c6c0000000000000000000000000000000000000000000000000000000081525061216a565b156111ff578473ffffffffffffffffffffffffffffffffffffffff166323b872dd3330876040518463ffffffff1660e01b81526004016111a7939291906128ee565b602060405180830381600087803b1580156111c157600080fd5b505af11580156111d5573d6000803e3d6000fd5b505050506040513d601f19601f820116820180604052508101906111f9919061230d565b506112b0565b7f000000000000000000000000000000000000000000000000000000000000000073ffffffffffffffffffffffffffffffffffffffff166323b872dd3330866040518463ffffffff1660e01b815260040161125c939291906128ee565b602060405180830381600087803b15801561127657600080fd5b505af115801561128a573d6000803e3d6000fd5b505050506040513d601f19601f820116820180604052508101906112ae919061230d565b505b806002600060015481526020019081526020016000206000820151816000015560208201518160010190805190602001906112ec9291906121c3565b5060408201518160020160006101000a81548173ffffffffffffffffffffffffffffffffffffffff021916908373ffffffffffffffffffffffffffffffffffffffff16021790555060608201518160030160006101000a81548173ffffffffffffffffffffffffffffffffffffffff021916908373ffffffffffffffffffffffffffffffffffffffff1602179055506080820151816004015560a0820151816005015560c08201518160060190805190602001906113ab9291906121c3565b509050503360036000600154815260200190815260200160002060006101000a81548173ffffffffffffffffffffffffffffffffffffffff021916908373ffffffffffffffffffffffffffffffffffffffff1602179055506001600081548092919061141690612dde565b91905055503373ffffffffffffffffffffffffffffffffffffffff167f606b674c20bbe962b8ce1f7a665429824aed04ed5bf026fd882fd679373a73f1600180546114619190612cee565b60405161146e9190612b1a565b60405180910390a2600180546114849190612cee565b91505095945050505050565b60007f0000000000000000000000000000000000000000000000000000000000000000905090565b60006003600083815260200190815260200160002060009054906101000a900473ffffffffffffffffffffffffffffffffffffffff169050919050565b6000600260008381526020019081526020016000206040518060e00160405290816000820154815260200160018201805461152f90612dac565b80601f016020809104026020016040519081016040528092919081815260200182805461155b90612dac565b80156115a85780601f1061157d576101008083540402835291602001916115a8565b820191906000526020600020905b81548152906001019060200180831161158b57829003601f168201915b505050505081526020016002820160009054906101000a900473ffffffffffffffffffffffffffffffffffffffff1673ffffffffffffffffffffffffffffffffffffffff1673ffffffffffffffffffffffffffffffffffffffff1681526020016003820160009054906101000a900473ffffffffffffffffffffffffffffffffffffffff1673ffffffffffffffffffffffffffffffffffffffff1673ffffffffffffffffffffffffffffffffffffffff168152602001600482015481526020016005820154815260200160068201805461168190612dac565b80601f01602080910402602001604051908101604052809291908181526020018280546116ad90612dac565b80156116fa5780601f106116cf576101008083540402835291602001916116fa565b820191906000526020600020905b8154815290600101906020018083116116dd57829003601f168201915b50505050508152505090504281600001511061174b576040517f08c379a0000000000000000000000000000000000000000000000000000000008152600401611742906129da565b60405180910390fd5b61178e81602001516040518060400160405280600481526020017f6e6f6e650000000000000000000000000000000000000000000000000000000081525061216a565b6117cd576040517f08c379a00000000000000000000000000000000000000000000000000000000081526004016117c490612a5a565b60405180910390fd5b3373ffffffffffffffffffffffffffffffffffffffff16816040015173ffffffffffffffffffffffffffffffffffffffff161461183f576040517f08c379a000000000000000000000000000000000000000000000000000000000815260040161183690612a3a565b60405180910390fd5b6118828160c001516040518060400160405280600481526020017f63616c6c0000000000000000000000000000000000000000000000000000000081525061216a565b1561192257806060015173ffffffffffffffffffffffffffffffffffffffff1663a9059cbb3383608001516040518363ffffffff1660e01b81526004016118ca929190612925565b602060405180830381600087803b1580156118e457600080fd5b505af11580156118f8573d6000803e3d6000fd5b505050506040513d601f19601f8201168201806040525081019061191c919061230d565b506119d5565b7f000000000000000000000000000000000000000000000000000000000000000073ffffffffffffffffffffffffffffffffffffffff1663a9059cbb338360a001516040518363ffffffff1660e01b8152600401611981929190612925565b602060405180830381600087803b15801561199b57600080fd5b505af11580156119af573d6000803e3d6000fd5b505050506040513d601f19601f820116820180604052508101906119d3919061230d565b505b6040518060400160405280600981526020017f636f6c6c65637465640000000000000000000000000000000000000000000000815250600260008481526020019081526020016000206001019080519060200190611a349291906121c3565b505050565b6000600260008381526020019081526020016000206040518060e001604052908160008201548152602001600182018054611a7390612dac565b80601f0160208091040260200160405190810160405280929190818152602001828054611a9f90612dac565b8015611aec5780601f10611ac157610100808354040283529160200191611aec565b820191906000526020600020905b815481529060010190602001808311611acf57829003601f168201915b505050505081526020016002820160009054906101000a900473ffffffffffffffffffffffffffffffffffffffff1673ffffffffffffffffffffffffffffffffffffffff1673ffffffffffffffffffffffffffffffffffffffff1681526020016003820160009054906101000a900473ffffffffffffffffffffffffffffffffffffffff1673ffffffffffffffffffffffffffffffffffffffff1673ffffffffffffffffffffffffffffffffffffffff1681526020016004820154815260200160058201548152602001600682018054611bc590612dac565b80601f0160208091040260200160405190810160405280929190818152602001828054611bf190612dac565b8015611c3e5780601f10611c1357610100808354040283529160200191611c3e565b820191906000526020600020905b815481529060010190602001808311611c2157829003601f168201915b50505050508152505090504281600001511015611c90576040517f08c379a0000000000000000000000000000000000000000000000000000000008152600401611c87906129fa565b60405180910390fd5b611cd381602001516040518060400160405280600481526020017f6e6f6e650000000000000000000000000000000000000000000000000000000081525061216a565b611d12576040517f08c379a0000000000000000000000000000000000000000000000000000000008152600401611d0990612afa565b60405180910390fd5b3373ffffffffffffffffffffffffffffffffffffffff166003600084815260200190815260200160002060009054906101000a900473ffffffffffffffffffffffffffffffffffffffff1673ffffffffffffffffffffffffffffffffffffffff1614611db3576040517f08c379a0000000000000000000000000000000000000000000000000000000008152600401611daa90612a1a565b60405180910390fd5b611df68160c001516040518060400160405280600481526020017f63616c6c0000000000000000000000000000000000000000000000000000000081525061216a565b15611f4e577f000000000000000000000000000000000000000000000000000000000000000073ffffffffffffffffffffffffffffffffffffffff166323b872dd3383604001518460a001516040518463ffffffff1660e01b8152600401611e60939291906128ee565b602060405180830381600087803b158015611e7a57600080fd5b505af1158015611e8e573d6000803e3d6000fd5b505050506040513d601f19601f82011682018060405250810190611eb2919061230d565b50806060015173ffffffffffffffffffffffffffffffffffffffff1663a9059cbb3383608001516040518363ffffffff1660e01b8152600401611ef6929190612925565b602060405180830381600087803b158015611f1057600080fd5b505af1158015611f24573d6000803e3d6000fd5b505050506040513d601f19601f82011682018060405250810190611f48919061230d565b5061209d565b806060015173ffffffffffffffffffffffffffffffffffffffff166323b872dd33836040015184608001516040518463ffffffff1660e01b8152600401611f97939291906128ee565b602060405180830381600087803b158015611fb157600080fd5b505af1158015611fc5573d6000803e3d6000fd5b505050506040513d601f19601f82011682018060405250810190611fe9919061230d565b507f000000000000000000000000000000000000000000000000000000000000000073ffffffffffffffffffffffffffffffffffffffff1663a9059cbb338360a001516040518363ffffffff1660e01b8152600401612049929190612925565b602060405180830381600087803b15801561206357600080fd5b505af1158015612077573d6000803e3d6000fd5b505050506040513d601f19601f8201168201806040525081019061209b919061230d565b505b6040518060400160405280600981526020017f65786572636973656400000000000000000000000000000000000000000000008152506002600084815260200190815260200160002060010190805190602001906120fc9291906121c3565b503373ffffffffffffffffffffffffffffffffffffffff16816040015173ffffffffffffffffffffffffffffffffffffffff167fbe38b3704166f0e904f93963eae13ca02ec939a255af46a3340dcdfeb2ee28998460405161215e9190612b1a565b60405180910390a35050565b60008160405160200161217d91906128bc565b60405160208183030381529060405280519060200120836040516020016121a491906128bc565b6040516020818303038152906040528051906020012014905092915050565b8280546121cf90612dac565b90600052602060002090601f0160209004810192826121f15760008555612238565b82601f1061220a57805160ff1916838001178555612238565b82800160010185558215612238579182015b8281111561223757825182559160200191906001019061221c565b5b5090506122459190612249565b5090565b5b8082111561226257600081600090555060010161224a565b5090565b600061227961227484612c0c565b612bdb565b90508281526020810184848401111561229157600080fd5b61229c848285612d6a565b509392505050565b6000813590506122b381612ef4565b92915050565b6000815190506122c881612f0b565b92915050565b600082601f8301126122df57600080fd5b81356122ef848260208601612266565b91505092915050565b60008135905061230781612f22565b92915050565b60006020828403121561231f57600080fd5b600061232d848285016122b9565b91505092915050565b600080600080600060a0868803121561234e57600080fd5b600086013567ffffffffffffffff81111561236857600080fd5b612374888289016122ce565b9550506020612385888289016122f8565b9450506040612396888289016122a4565b93505060606123a7888289016122f8565b92505060806123b8888289016122f8565b9150509295509295909350565b6000602082840312156123d757600080fd5b60006123e5848285016122f8565b91505092915050565b6000806040838503121561240157600080fd5b600061240f858286016122f8565b9250506020612420858286016122f8565b9150509250929050565b61243381612d22565b82525050565b600061244482612c3c565b61244e8185612c47565b935061245e818560208601612d79565b61246781612ee3565b840191505092915050565b600061247d82612c3c565b6124878185612c58565b9350612497818560208601612d79565b80840191505092915050565b60006124b0601d83612c47565b91507f54726164652068617320616c7265616479206265656e20636c6f7365640000006000830152602082019050919050565b60006124f0602783612c47565b91507f4f7074696f6e2074797065206d6179206f6e6c79206265202763616c6c27206f60008301527f72202770757427000000000000000000000000000000000000000000000000006020830152604082019050919050565b6000612556601a83612c47565b91507f4f7074696f6e20686173206e6f742065787069726564207965740000000000006000830152602082019050919050565b6000612596601283612c47565b91507f4f7074696f6e20686173206578706972656400000000000000000000000000006000830152602082019050919050565b60006125d6602c83612c47565b91507f4f6e6c7920746865206f776e6572206f6620746865206f7074696f6e206d617960008301527f20657865726369736520697400000000000000000000000000000000000000006020830152604082019050919050565b600061263c602d83612c47565b91507f4f6e6c792074686520777269746572206d617920636f6c6c65637420616e206560008301527f787069726564206f7074696f6e000000000000000000000000000000000000006020830152604082019050919050565b60006126a2602e83612c47565b91507f4f7074696f6e2068617320616c7265616479206265656e20657865726369736560008301527f64206f7220636f6c6c65637465640000000000000000000000000000000000006020830152604082019050919050565b6000612708601c83612c47565b91507f457870697279206d75737420626520696e2074686520667574757265000000006000830152602082019050919050565b6000612748603483612c47565b91507f4f6e6c7920746865206f776e6572206f6620746865206f7074696f6e206d617960008301527f206f70656e206120747261646520666f722069740000000000000000000000006020830152604082019050919050565b60006127ae602283612c47565b91507f4f6e6c792074686520706f73746572206d61792063616e63656c20612074726160008301527f64650000000000000000000000000000000000000000000000000000000000006020830152604082019050919050565b6000612814602083612c47565b91507f4f6e6c79206f70656e20747261646573206d61792062652065786563757465646000830152602082019050919050565b6000612854602183612c47565b91507f4f7074696f6e2068617320616c7265616479206265656e20657865726369736560008301527f64000000000000000000000000000000000000000000000000000000000000006020830152604082019050919050565b6128b681612d60565b82525050565b60006128c88284612472565b915081905092915050565b60006020820190506128e8600083018461242a565b92915050565b6000606082019050612903600083018661242a565b612910602083018561242a565b61291d60408301846128ad565b949350505050565b600060408201905061293a600083018561242a565b61294760208301846128ad565b9392505050565b6000608082019050612963600083018761242a565b61297060208301866128ad565b61297d60408301856128ad565b818103606083015261298f8184612439565b905095945050505050565b600060208201905081810360008301526129b3816124a3565b9050919050565b600060208201905081810360008301526129d3816124e3565b9050919050565b600060208201905081810360008301526129f381612549565b9050919050565b60006020820190508181036000830152612a1381612589565b9050919050565b60006020820190508181036000830152612a33816125c9565b9050919050565b60006020820190508181036000830152612a538161262f565b9050919050565b60006020820190508181036000830152612a7381612695565b9050919050565b60006020820190508181036000830152612a93816126fb565b9050919050565b60006020820190508181036000830152612ab38161273b565b9050919050565b60006020820190508181036000830152612ad3816127a1565b9050919050565b60006020820190508181036000830152612af381612807565b9050919050565b60006020820190508181036000830152612b1381612847565b9050919050565b6000602082019050612b2f60008301846128ad565b92915050565b600060e082019050612b4a600083018a6128ad565b8181036020830152612b5c8189612439565b9050612b6b604083018861242a565b612b78606083018761242a565b612b8560808301866128ad565b612b9260a08301856128ad565b81810360c0830152612ba48184612439565b905098975050505050505050565b6000604082019050612bc760008301856128ad565b612bd460208301846128ad565b9392505050565b6000604051905081810181811067ffffffffffffffff82111715612c0257612c01612eb4565b5b8060405250919050565b600067ffffffffffffffff821115612c2757612c26612eb4565b5b601f19601f8301169050602081019050919050565b600081519050919050565b600082825260208201905092915050565b600081905092915050565b6000612c6e82612d60565b9150612c7983612d60565b925082612c8957612c88612e56565b5b828204905092915050565b6000612c9f82612d60565b9150612caa83612d60565b9250817fffffffffffffffffffffffffffffffffffffffffffffffffffffffffffffffff0483118215151615612ce357612ce2612e27565b5b828202905092915050565b6000612cf982612d60565b9150612d0483612d60565b925082821015612d1757612d16612e27565b5b828203905092915050565b6000612d2d82612d40565b9050919050565b60008115159050919050565b600073ffffffffffffffffffffffffffffffffffffffff82169050919050565b6000819050919050565b82818337600083830152505050565b60005b83811015612d97578082015181840152602081019050612d7c565b83811115612da6576000848401525b50505050565b60006002820490506001821680612dc457607f821691505b60208210811415612dd857612dd7612e85565b5b50919050565b6000612de982612d60565b91507fffffffffffffffffffffffffffffffffffffffffffffffffffffffffffffffff821415612e1c57612e1b612e27565b5b600182019050919050565b7f4e487b7100000000000000000000000000000000000000000000000000000000600052601160045260246000fd5b7f4e487b7100000000000000000000000000000000000000000000000000000000600052601260045260246000fd5b7f4e487b7100000000000000000000000000000000000000000000000000000000600052602260045260246000fd5b7f4e487b7100000000000000000000000000000000000000000000000000000000600052604160045260246000fd5b6000601f19601f8301169050919050565b612efd81612d22565b8114612f0857600080fd5b50565b612f1481612d34565b8114612f1f57600080fd5b50565b612f2b81612d60565b8114612f3657600080fd5b5056fea2646970667358221220b64d895640006ff22714a2f58c20324906ab83658ab8ab1c4fdbfc1a8c8c4aeb64736f6c63430008000033",
  "immutableReferences": {
    "126": [
      {
        "length": 32,
        "start": 1111
      },
      {
        "length": 32,
        "start": 1291
      },
      {
        "length": 32,
        "start": 4609
      },
      {
        "length": 32,
        "start": 5268
      },
      {
        "length": 32,
        "start": 6436
      },
      {
        "length": 32,
        "start": 7677
      },
      {
        "length": 32,
        "start": 8172
      }
    ]
  },
  "source": "// SPDX-License-Identifier: GPL-3.0-only\npragma solidity ^0.8.0;\n\nimport \"@openzeppelin/contracts/token/ERC20/IERC20.sol\";\n\ncontract OptionsMarket {\n    // Admin access\n    address private owner;\n\n    // Option data\n    struct Option {\n        uint256 expiry;\n        string status; // none, exercised, collected\n        address writer;\n        address tokenAddress;\n        uint256 amount;\n        uint256 price;\n        string optionType; // call, put\n    }\n\n    uint256 private optionId;\n    mapping(uint256 => Option) private options;\n    mapping(uint256 => address) private optionOwners;\n\n    // Trade data\n    struct Trade {\n        address poster;\n        uint256 optionId;\n        uint256 price;\n        string status; // open, closed, cancelled\n    }\n\n    uint256 private tradeId;\n    mapping(uint256 => Trade) private trades;\n    address private immutable tradeCurrency;\n\n    constructor(address currency) {\n        // Set the owner as the deployer of the contract and set the currency of the trades\n        owner = msg.sender;\n        tradeCurrency = currency;\n    }\n\n    // Declare events for logging data\n    event OptionWritten(uint256 optionId, address indexed writer);\n    event OptionExercised(uint256 optionId, address indexed writer, address indexed exerciser);\n    event TradeOpened(uint256 tradeId, uint256 optionId, address indexed poster);\n    event TradeExecuted(uint256 tradeId, uint256 optionId, address indexed buyer);\n\n    // ============= Util functions =============\n\n    // Compare if two strings are equal\n    function _compareStrings(string memory a, string memory b) private pure returns (bool) {\n        return keccak256(abi.encodePacked(a)) == keccak256(abi.encodePacked(b));\n    }\n\n    // Get the trade currency of the token\n    function getTradeCurrency() public view returns (address) {\n        return tradeCurrency;\n    }\n\n    // ============= Option functions =============\n\n    // Allow the address to create a new option\n    function writeOption(string memory optionType, uint256 expiry, address tokenAddress, uint256 amount, uint256 price) public returns (uint256) {\n        // Check that the option is valid\n        require(_compareStrings(optionType, \"call\") || _compareStrings(optionType, \"put\"), \"Option type may only be 'call' or 'put'\");\n        require(expiry > block.timestamp, \"Expiry must be in the future\");\n\n        // Write a new option\n        Option memory option = Option({\n            expiry: expiry,\n            status: \"none\",\n            writer: msg.sender,\n            tokenAddress: tokenAddress,\n            amount: amount,\n            price: price,\n            optionType: optionType\n        });\n\n        // If this is a call then transfer the amount of the token to the contract,\n        // otherwise if a put then transfer the trade currency to the contract\n        if (_compareStrings(optionType, \"call\")) {\n            IERC20(tokenAddress).transferFrom(msg.sender, address(this), amount); \n        } else {\n            IERC20(tradeCurrency).transferFrom(msg.sender, address(this), price);\n        }\n\n        // Save the option\n        options[optionId] = option;\n        optionOwners[optionId] = msg.sender;\n        optionId++;\n\n        // Emit an event and return the id of the option\n        emit OptionWritten(optionId - 1, msg.sender);\n        return optionId - 1;\n    }\n\n    // Get the data of an option\n    function getOption(uint256 _optionId) public view returns (uint256, string memory, address, address, uint256, uint256, string memory) {\n        Option memory option = options[_optionId];\n        return (option.expiry, option.status, option.writer, option.tokenAddress, option.amount, option.price, option.optionType);\n    }\n\n    // Get the owner of an option\n    function getOptionOwner(uint256 _optionId) public view returns (address) {\n        return optionOwners[_optionId];\n    }\n\n    // Allow a option holder to exercise their option\n    function exerciseOption(uint256 _optionId) public {\n        // Get the data of the option\n        Option memory option = options[_optionId];\n\n        // Check that the option may be exercised\n        require(option.expiry >= block.timestamp, \"Option has expired\");\n        require(_compareStrings(option.status, \"none\"), \"Option has already been exercised\");\n        require(optionOwners[_optionId] == msg.sender, \"Only the owner of the option may exercise it\");\n\n        // If the option is a call, then charge the user the premium to receive the tokens,\n        // else if the option is a put, transfer their tokens\n        if (_compareStrings(option.optionType, \"call\")) {\n            IERC20(tradeCurrency).transferFrom(msg.sender, option.writer, option.price);\n            IERC20(option.tokenAddress).transfer(msg.sender, option.amount);\n        } else {\n            IERC20(option.tokenAddress).transferFrom(msg.sender, option.writer, option.amount);\n            IERC20(tradeCurrency).transfer(msg.sender, option.price);\n        }\n\n        // Update the status of the option and emit event\n        options[_optionId].status = \"exercised\";\n        emit OptionExercised(_optionId, option.writer, msg.sender);\n    }\n\n    // Allow a writer to collect an expired contract\n    function collectExpired(uint256 _optionId) public {\n        // Get the data of the option\n        Option memory option = options[_optionId];\n\n        // Check that the option may be collected\n        require(option.expiry < block.timestamp, \"Option has not expired yet\");\n        require(_compareStrings(option.status, \"none\"), \"Option has already been exercised or collected\");\n        require(option.writer == msg.sender, \"Only the writer may collect an expired option\");\n\n        // If the option is a call then transfer the tokens back to the writer,\n        // otherwise transfer the price back to the writer\n        if (_compareStrings(option.optionType, \"call\")) {\n            IERC20(option.tokenAddress).transfer(msg.sender, option.amount);\n        } else {\n            IERC20(tradeCurrency).transfer(msg.sender, option.price);\n        }\n\n        // Update the status of the option\n        options[_optionId].status = \"collected\";\n    }\n\n    // ============= Marketplace functions =============\n\n    // Open a new trade for selling an option\n    function openTrade(uint256 _optionId, uint256 price) public returns (uint256) {\n        // Check that the trade may be opened\n        require(optionOwners[_optionId] == msg.sender, \"Only the owner of the option may open a trade for it\");\n\n        // Create a new trade\n        Trade memory trade = Trade({\n            poster: msg.sender,\n            optionId: _optionId,\n            price: price,\n            status: \"open\"\n        });\n\n        // Store the new trade\n        trades[tradeId] = trade;\n        tradeId++;\n\n        // Transfer the option to the contract\n        optionOwners[_optionId] = address(this);\n\n        // Emit an event and return the trade id\n        emit TradeOpened(tradeId - 1, _optionId, msg.sender);\n        return tradeId - 1;\n    }\n\n    // Execute a trade for buying an option\n    function executeTrade(uint256 _tradeId) public {\n        // Get the trade\n        Trade memory trade = trades[_tradeId];\n\n        // Verify that the trade status is valid\n        require(_compareStrings(trade.status, \"open\"), \"Only open trades may be executed\");\n\n        // Transfer the option\n        optionOwners[trade.optionId] = msg.sender;\n\n        // Charge the recipient and pay a fee to the owner\n        uint256 fee = trade.price * 3 / 100; \n        uint256 payout = trade.price - fee;\n        IERC20(tradeCurrency).transferFrom(msg.sender, trade.poster, payout);\n        IERC20(tradeCurrency).transferFrom(msg.sender, owner, fee);\n\n        // Update the status of the trade\n        trades[_tradeId].status = \"closed\";\n\n        // Emit an event\n        emit TradeExecuted(_tradeId, trade.optionId, msg.sender);\n    }\n\n    // View a trade\n    function getTrade(uint256 _tradeId) public view returns(address, uint256, uint256, string memory) {\n        Trade memory trade = trades[_tradeId];\n        return (trade.poster, trade.optionId, trade.price, trade.status);\n    }\n\n    // Cancel a trade\n    function cancelTrade(uint256 _tradeId) public {\n        // Get the trade\n        Trade memory trade = trades[_tradeId];\n\n        // Check that the trade may be cancelled\n        require(trade.poster == msg.sender, \"Only the poster may cancel a trade\");\n        require(!_compareStrings(trade.status, \"closed\"), \"Trade has already been closed\");\n\n        // Transfer the option back to the poster\n        optionOwners[trade.optionId] = msg.sender;\n\n        // Cancel the trade\n        trades[_tradeId].status = \"cancelled\";\n    }\n}",
  "sourcePath": "/home/ben/Code/Crypto-Options/src/dapp/contracts/OptionsMarket.sol",
  "compiler": {
    "name": "solc",
    "version": "0.8.0+commit.c7dfd78e.Emscripten.clang"
  },
  "schemaVersion": "3.4.3",
  "updatedAt": "2021-09-26T08:54:17.320Z",
  "networkType": "ethereum",
  "devdoc": {
    "kind": "dev",
    "methods": {},
    "version": 1
  },
  "userdoc": {
    "kind": "user",
    "methods": {},
    "version": 1
  }
}