{
  "contractName": "OptionsMarket",
  "abi": [
    {
      "inputs": [
        {
          "internalType": "address",
          "name": "currency",
          "type": "address"
        }
      ],
      "stateMutability": "nonpayable",
      "type": "constructor"
    },
    {
      "anonymous": false,
      "inputs": [
        {
          "indexed": false,
          "internalType": "uint256",
          "name": "optionId",
          "type": "uint256"
        },
        {
          "indexed": true,
          "internalType": "address",
          "name": "writer",
          "type": "address"
        },
        {
          "indexed": true,
          "internalType": "address",
          "name": "exerciser",
          "type": "address"
        }
      ],
      "name": "OptionExercised",
      "type": "event"
    },
    {
      "anonymous": false,
      "inputs": [
        {
          "indexed": false,
          "internalType": "uint256",
          "name": "optionId",
          "type": "uint256"
        },
        {
          "indexed": true,
          "internalType": "address",
          "name": "writer",
          "type": "address"
        },
        {
          "indexed": true,
          "internalType": "string",
          "name": "optionType",
          "type": "string"
        },
        {
          "indexed": true,
          "internalType": "address",
          "name": "tokenAddress",
          "type": "address"
        }
      ],
      "name": "OptionWritten",
      "type": "event"
    },
    {
      "anonymous": false,
      "inputs": [
        {
          "indexed": false,
          "internalType": "uint256",
          "name": "tradeId",
          "type": "uint256"
        },
        {
          "indexed": true,
          "internalType": "uint256",
          "name": "optionId",
          "type": "uint256"
        },
        {
          "indexed": true,
          "internalType": "address",
          "name": "buyer",
          "type": "address"
        }
      ],
      "name": "TradeExecuted",
      "type": "event"
    },
    {
      "anonymous": false,
      "inputs": [
        {
          "indexed": false,
          "internalType": "uint256",
          "name": "tradeId",
          "type": "uint256"
        },
        {
          "indexed": true,
          "internalType": "uint256",
          "name": "optionId",
          "type": "uint256"
        },
        {
          "indexed": true,
          "internalType": "address",
          "name": "poster",
          "type": "address"
        }
      ],
      "name": "TradeOpened",
      "type": "event"
    },
    {
      "inputs": [
        {
          "internalType": "string",
          "name": "optionType",
          "type": "string"
        },
        {
          "internalType": "uint256",
          "name": "expiry",
          "type": "uint256"
        },
        {
          "internalType": "address",
          "name": "tokenAddress",
          "type": "address"
        },
        {
          "internalType": "uint256",
          "name": "amount",
          "type": "uint256"
        },
        {
          "internalType": "uint256",
          "name": "price",
          "type": "uint256"
        }
      ],
      "name": "writeOption",
      "outputs": [
        {
          "internalType": "uint256",
          "name": "",
          "type": "uint256"
        }
      ],
      "stateMutability": "nonpayable",
      "type": "function"
    },
    {
      "inputs": [
        {
          "internalType": "uint256",
          "name": "_optionId",
          "type": "uint256"
        }
      ],
      "name": "getOption",
      "outputs": [
        {
          "internalType": "uint256",
          "name": "",
          "type": "uint256"
        },
        {
          "internalType": "string",
          "name": "",
          "type": "string"
        },
        {
          "internalType": "address",
          "name": "",
          "type": "address"
        },
        {
          "internalType": "address",
          "name": "",
          "type": "address"
        },
        {
          "internalType": "uint256",
          "name": "",
          "type": "uint256"
        },
        {
          "internalType": "uint256",
          "name": "",
          "type": "uint256"
        },
        {
          "internalType": "string",
          "name": "",
          "type": "string"
        }
      ],
      "stateMutability": "view",
      "type": "function"
    },
    {
      "inputs": [
        {
          "internalType": "uint256",
          "name": "_optionId",
          "type": "uint256"
        }
      ],
      "name": "exerciseOption",
      "outputs": [],
      "stateMutability": "nonpayable",
      "type": "function"
    },
    {
      "inputs": [
        {
          "internalType": "uint256",
          "name": "_optionId",
          "type": "uint256"
        }
      ],
      "name": "collectExpired",
      "outputs": [],
      "stateMutability": "nonpayable",
      "type": "function"
    },
    {
      "inputs": [
        {
          "internalType": "uint256",
          "name": "_optionId",
          "type": "uint256"
        },
        {
          "internalType": "uint256",
          "name": "price",
          "type": "uint256"
        }
      ],
      "name": "openTrade",
      "outputs": [
        {
          "internalType": "uint256",
          "name": "",
          "type": "uint256"
        }
      ],
      "stateMutability": "nonpayable",
      "type": "function"
    },
    {
      "inputs": [
        {
          "internalType": "uint256",
          "name": "_tradeId",
          "type": "uint256"
        }
      ],
      "name": "executeTrade",
      "outputs": [],
      "stateMutability": "nonpayable",
      "type": "function"
    },
    {
      "inputs": [
        {
          "internalType": "uint256",
          "name": "_tradeId",
          "type": "uint256"
        }
      ],
      "name": "getTrade",
      "outputs": [
        {
          "internalType": "address",
          "name": "",
          "type": "address"
        },
        {
          "internalType": "uint256",
          "name": "",
          "type": "uint256"
        },
        {
          "internalType": "uint256",
          "name": "",
          "type": "uint256"
        },
        {
          "internalType": "string",
          "name": "",
          "type": "string"
        }
      ],
      "stateMutability": "view",
      "type": "function"
    },
    {
      "inputs": [
        {
          "internalType": "uint256",
          "name": "_tradeId",
          "type": "uint256"
        }
      ],
      "name": "cancelTrade",
      "outputs": [],
      "stateMutability": "nonpayable",
      "type": "function"
    }
  ],
  "bytecode": "0x60a06040523480156200001157600080fd5b5060405162002e8638038062002e868339818101604052810190620000379190620000cc565b336000806101000a81548173ffffffffffffffffffffffffffffffffffffffff021916908373ffffffffffffffffffffffffffffffffffffffff1602179055508073ffffffffffffffffffffffffffffffffffffffff1660808173ffffffffffffffffffffffffffffffffffffffff1660601b815250505062000146565b600081519050620000c6816200012c565b92915050565b600060208284031215620000df57600080fd5b6000620000ef84828501620000b5565b91505092915050565b600062000105826200010c565b9050919050565b600073ffffffffffffffffffffffffffffffffffffffff82169050919050565b6200013781620000f8565b81146200014357600080fd5b50565b60805160601c612cfe62000188600039600081816103ef015281816104a30152818161106c0152818161175701528181611c300152611e1f0152612cfe6000f3fe608060405234801561001057600080fd5b50600436106100885760003560e01c80632db25e051161005b5780632db25e051461012b578063706efac51461015e578063b7b4ea041461018e578063f52f2526146101aa57610088565b806302d2838b1461008d57806309ec6cc7146100a95780630c493fba146100c55780631ce5e9a6146100f5575b600080fd5b6100a760048036038101906100a291906121f8565b6101c6565b005b6100c360048036038101906100be91906121f8565b61062a565b005b6100df60048036038101906100da9190612221565b61081e565b6040516100ec91906128d2565b60405180910390f35b61010f600480360381019061010a91906121f8565b610a4f565b60405161012297969594939291906128ed565b60405180910390f35b610145600480360381019061014091906121f8565b610ca8565b6040516101559493929190612726565b60405180910390f35b61017860048036038101906101739190612169565b610df1565b60405161018591906128d2565b60405180910390f35b6101a860048036038101906101a391906121f8565b611328565b005b6101c460048036038101906101bf91906121f8565b61186c565b005b6000600560008381526020019081526020016000206040518060800160405290816000820160009054906101000a900473ffffffffffffffffffffffffffffffffffffffff1673ffffffffffffffffffffffffffffffffffffffff1673ffffffffffffffffffffffffffffffffffffffff168152602001600182015481526020016002820154815260200160038201805461026090612b3b565b80601f016020809104026020016040519081016040528092919081815260200182805461028c90612b3b565b80156102d95780601f106102ae576101008083540402835291602001916102d9565b820191906000526020600020905b8154815290600101906020018083116102bc57829003601f168201915b505050505081525050905061032781606001516040518060400160405280600481526020017f6f70656e00000000000000000000000000000000000000000000000000000000815250611f9d565b610366576040517f08c379a000000000000000000000000000000000000000000000000000000000815260040161035d90612892565b60405180910390fd5b336003600084815260200190815260200160002060006101000a81548173ffffffffffffffffffffffffffffffffffffffff021916908373ffffffffffffffffffffffffffffffffffffffff16021790555060006064600383604001516103cd9190612a23565b6103d791906129f2565b905060008183604001516103eb9190612a7d565b90507f000000000000000000000000000000000000000000000000000000000000000073ffffffffffffffffffffffffffffffffffffffff166323b872dd338560000151846040518463ffffffff1660e01b815260040161044e939291906126c6565b602060405180830381600087803b15801561046857600080fd5b505af115801561047c573d6000803e3d6000fd5b505050506040513d601f19601f820116820180604052508101906104a09190612140565b507f000000000000000000000000000000000000000000000000000000000000000073ffffffffffffffffffffffffffffffffffffffff166323b872dd3360008054906101000a900473ffffffffffffffffffffffffffffffffffffffff16856040518463ffffffff1660e01b815260040161051e939291906126c6565b602060405180830381600087803b15801561053857600080fd5b505af115801561054c573d6000803e3d6000fd5b505050506040513d601f19601f820116820180604052508101906105709190612140565b506040518060400160405280600681526020017f636c6f73656400000000000000000000000000000000000000000000000000008152506005600086815260200190815260200160002060030190805190602001906105d0929190611ff6565b503373ffffffffffffffffffffffffffffffffffffffff1683602001517fcd4549424763814841fd85ada3413dd0f4ec86f6bde5a04a93f9c20e20c653cc8660405161061c91906128d2565b60405180910390a350505050565b6000600560008381526020019081526020016000206040518060800160405290816000820160009054906101000a900473ffffffffffffffffffffffffffffffffffffffff1673ffffffffffffffffffffffffffffffffffffffff1673ffffffffffffffffffffffffffffffffffffffff16815260200160018201548152602001600282015481526020016003820180546106c490612b3b565b80601f01602080910402602001604051908101604052809291908181526020018280546106f090612b3b565b801561073d5780601f106107125761010080835404028352916020019161073d565b820191906000526020600020905b81548152906001019060200180831161072057829003601f168201915b50505050508152505090503373ffffffffffffffffffffffffffffffffffffffff16816000015173ffffffffffffffffffffffffffffffffffffffff16146107ba576040517f08c379a00000000000000000000000000000000000000000000000000000000081526004016107b190612872565b60405180910390fd5b6040518060400160405280600981526020017f63616e63656c6c65640000000000000000000000000000000000000000000000815250600560008481526020019081526020016000206003019080519060200190610819929190611ff6565b505050565b60003373ffffffffffffffffffffffffffffffffffffffff166003600085815260200190815260200160002060009054906101000a900473ffffffffffffffffffffffffffffffffffffffff1673ffffffffffffffffffffffffffffffffffffffff16146108c1576040517f08c379a00000000000000000000000000000000000000000000000000000000081526004016108b890612852565b60405180910390fd5b600060405180608001604052803373ffffffffffffffffffffffffffffffffffffffff1681526020018581526020018481526020016040518060400160405280600481526020017f6f70656e0000000000000000000000000000000000000000000000000000000081525081525090508060056000600454815260200190815260200160002060008201518160000160006101000a81548173ffffffffffffffffffffffffffffffffffffffff021916908373ffffffffffffffffffffffffffffffffffffffff160217905550602082015181600101556040820151816002015560608201518160030190805190602001906109be929190611ff6565b50905050600460008154809291906109d590612b6d565b91905055503373ffffffffffffffffffffffffffffffffffffffff16847f132feb0275d32a02a9b2a45bbcdeb49835d2b9d88b0db4f91470ca50a5ad78ce6001600454610a229190612a7d565b604051610a2f91906128d2565b60405180910390a36001600454610a469190612a7d565b91505092915050565b6000606060008060008060606000600260008a81526020019081526020016000206040518060e001604052908160008201548152602001600182018054610a9590612b3b565b80601f0160208091040260200160405190810160405280929190818152602001828054610ac190612b3b565b8015610b0e5780601f10610ae357610100808354040283529160200191610b0e565b820191906000526020600020905b815481529060010190602001808311610af157829003601f168201915b505050505081526020016002820160009054906101000a900473ffffffffffffffffffffffffffffffffffffffff1673ffffffffffffffffffffffffffffffffffffffff1673ffffffffffffffffffffffffffffffffffffffff1681526020016003820160009054906101000a900473ffffffffffffffffffffffffffffffffffffffff1673ffffffffffffffffffffffffffffffffffffffff1673ffffffffffffffffffffffffffffffffffffffff1681526020016004820154815260200160058201548152602001600682018054610be790612b3b565b80601f0160208091040260200160405190810160405280929190818152602001828054610c1390612b3b565b8015610c605780601f10610c3557610100808354040283529160200191610c60565b820191906000526020600020905b815481529060010190602001808311610c4357829003601f168201915b5050505050815250509050806000015181602001518260400151836060015184608001518560a001518660c00151975097509750975097509750975050919395979092949650565b600080600060606000600560008781526020019081526020016000206040518060800160405290816000820160009054906101000a900473ffffffffffffffffffffffffffffffffffffffff1673ffffffffffffffffffffffffffffffffffffffff1673ffffffffffffffffffffffffffffffffffffffff1681526020016001820154815260200160028201548152602001600382018054610d4990612b3b565b80601f0160208091040260200160405190810160405280929190818152602001828054610d7590612b3b565b8015610dc25780601f10610d9757610100808354040283529160200191610dc2565b820191906000526020600020905b815481529060010190602001808311610da557829003601f168201915b505050505081525050905080600001518160200151826040015183606001519450945094509450509193509193565b6000610e32866040518060400160405280600481526020017f63616c6c00000000000000000000000000000000000000000000000000000000815250611f9d565b80610e785750610e77866040518060400160405280600381526020017f7075740000000000000000000000000000000000000000000000000000000000815250611f9d565b5b610eb7576040517f08c379a0000000000000000000000000000000000000000000000000000000008152600401610eae90612772565b60405180910390fd5b428511610ef9576040517f08c379a0000000000000000000000000000000000000000000000000000000008152600401610ef090612832565b60405180910390fd5b60006040518060e001604052808781526020016040518060400160405280600481526020017f6e6f6e650000000000000000000000000000000000000000000000000000000081525081526020013373ffffffffffffffffffffffffffffffffffffffff1681526020018673ffffffffffffffffffffffffffffffffffffffff168152602001858152602001848152602001888152509050610fd0876040518060400160405280600481526020017f63616c6c00000000000000000000000000000000000000000000000000000000815250611f9d565b1561106a578473ffffffffffffffffffffffffffffffffffffffff166323b872dd3330876040518463ffffffff1660e01b8152600401611012939291906126c6565b602060405180830381600087803b15801561102c57600080fd5b505af1158015611040573d6000803e3d6000fd5b505050506040513d601f19601f820116820180604052508101906110649190612140565b5061111b565b7f000000000000000000000000000000000000000000000000000000000000000073ffffffffffffffffffffffffffffffffffffffff166323b872dd3330866040518463ffffffff1660e01b81526004016110c7939291906126c6565b602060405180830381600087803b1580156110e157600080fd5b505af11580156110f5573d6000803e3d6000fd5b505050506040513d601f19601f820116820180604052508101906111199190612140565b505b80600260006001548152602001908152602001600020600082015181600001556020820151816001019080519060200190611157929190611ff6565b5060408201518160020160006101000a81548173ffffffffffffffffffffffffffffffffffffffff021916908373ffffffffffffffffffffffffffffffffffffffff16021790555060608201518160030160006101000a81548173ffffffffffffffffffffffffffffffffffffffff021916908373ffffffffffffffffffffffffffffffffffffffff1602179055506080820151816004015560a0820151816005015560c0820151816006019080519060200190611216929190611ff6565b509050503360036000600154815260200190815260200160002060006101000a81548173ffffffffffffffffffffffffffffffffffffffff021916908373ffffffffffffffffffffffffffffffffffffffff1602179055506001600081548092919061128190612b6d565b91905055508473ffffffffffffffffffffffffffffffffffffffff16876040516112ab91906126af565b60405180910390203373ffffffffffffffffffffffffffffffffffffffff167ffb6c2dc6b80a4b904549b8d862af0f26d0d29d2bf5249cf5753cc6be7f4a4c94600180546112f99190612a7d565b60405161130691906128d2565b60405180910390a46001805461131c9190612a7d565b91505095945050505050565b6000600260008381526020019081526020016000206040518060e00160405290816000820154815260200160018201805461136290612b3b565b80601f016020809104026020016040519081016040528092919081815260200182805461138e90612b3b565b80156113db5780601f106113b0576101008083540402835291602001916113db565b820191906000526020600020905b8154815290600101906020018083116113be57829003601f168201915b505050505081526020016002820160009054906101000a900473ffffffffffffffffffffffffffffffffffffffff1673ffffffffffffffffffffffffffffffffffffffff1673ffffffffffffffffffffffffffffffffffffffff1681526020016003820160009054906101000a900473ffffffffffffffffffffffffffffffffffffffff1673ffffffffffffffffffffffffffffffffffffffff1673ffffffffffffffffffffffffffffffffffffffff16815260200160048201548152602001600582015481526020016006820180546114b490612b3b565b80601f01602080910402602001604051908101604052809291908181526020018280546114e090612b3b565b801561152d5780601f106115025761010080835404028352916020019161152d565b820191906000526020600020905b81548152906001019060200180831161151057829003601f168201915b50505050508152505090504281600001511161157e576040517f08c379a000000000000000000000000000000000000000000000000000000000815260040161157590612792565b60405180910390fd5b6115c181602001516040518060400160405280600481526020017f6e6f6e6500000000000000000000000000000000000000000000000000000000815250611f9d565b611600576040517f08c379a00000000000000000000000000000000000000000000000000000000081526004016115f790612812565b60405180910390fd5b3373ffffffffffffffffffffffffffffffffffffffff16816040015173ffffffffffffffffffffffffffffffffffffffff1614611672576040517f08c379a0000000000000000000000000000000000000000000000000000000008152600401611669906127f2565b60405180910390fd5b6116b58160c001516040518060400160405280600481526020017f63616c6c00000000000000000000000000000000000000000000000000000000815250611f9d565b1561175557806060015173ffffffffffffffffffffffffffffffffffffffff1663a9059cbb3383608001516040518363ffffffff1660e01b81526004016116fd9291906126fd565b602060405180830381600087803b15801561171757600080fd5b505af115801561172b573d6000803e3d6000fd5b505050506040513d601f19601f8201168201806040525081019061174f9190612140565b50611808565b7f000000000000000000000000000000000000000000000000000000000000000073ffffffffffffffffffffffffffffffffffffffff1663a9059cbb338360a001516040518363ffffffff1660e01b81526004016117b49291906126fd565b602060405180830381600087803b1580156117ce57600080fd5b505af11580156117e2573d6000803e3d6000fd5b505050506040513d601f19601f820116820180604052508101906118069190612140565b505b6040518060400160405280600981526020017f636f6c6c65637465640000000000000000000000000000000000000000000000815250600260008481526020019081526020016000206001019080519060200190611867929190611ff6565b505050565b6000600260008381526020019081526020016000206040518060e0016040529081600082015481526020016001820180546118a690612b3b565b80601f01602080910402602001604051908101604052809291908181526020018280546118d290612b3b565b801561191f5780601f106118f45761010080835404028352916020019161191f565b820191906000526020600020905b81548152906001019060200180831161190257829003601f168201915b505050505081526020016002820160009054906101000a900473ffffffffffffffffffffffffffffffffffffffff1673ffffffffffffffffffffffffffffffffffffffff1673ffffffffffffffffffffffffffffffffffffffff1681526020016003820160009054906101000a900473ffffffffffffffffffffffffffffffffffffffff1673ffffffffffffffffffffffffffffffffffffffff1673ffffffffffffffffffffffffffffffffffffffff16815260200160048201548152602001600582015481526020016006820180546119f890612b3b565b80601f0160208091040260200160405190810160405280929190818152602001828054611a2490612b3b565b8015611a715780601f10611a4657610100808354040283529160200191611a71565b820191906000526020600020905b815481529060010190602001808311611a5457829003601f168201915b50505050508152505090504281600001511115611ac3576040517f08c379a0000000000000000000000000000000000000000000000000000000008152600401611aba906127b2565b60405180910390fd5b611b0681602001516040518060400160405280600481526020017f6e6f6e6500000000000000000000000000000000000000000000000000000000815250611f9d565b611b45576040517f08c379a0000000000000000000000000000000000000000000000000000000008152600401611b3c906128b2565b60405180910390fd5b3373ffffffffffffffffffffffffffffffffffffffff166003600084815260200190815260200160002060009054906101000a900473ffffffffffffffffffffffffffffffffffffffff1673ffffffffffffffffffffffffffffffffffffffff1614611be6576040517f08c379a0000000000000000000000000000000000000000000000000000000008152600401611bdd906127d2565b60405180910390fd5b611c298160c001516040518060400160405280600481526020017f63616c6c00000000000000000000000000000000000000000000000000000000815250611f9d565b15611d81577f000000000000000000000000000000000000000000000000000000000000000073ffffffffffffffffffffffffffffffffffffffff166323b872dd3383604001518460a001516040518463ffffffff1660e01b8152600401611c93939291906126c6565b602060405180830381600087803b158015611cad57600080fd5b505af1158015611cc1573d6000803e3d6000fd5b505050506040513d601f19601f82011682018060405250810190611ce59190612140565b50806060015173ffffffffffffffffffffffffffffffffffffffff1663a9059cbb3383608001516040518363ffffffff1660e01b8152600401611d299291906126fd565b602060405180830381600087803b158015611d4357600080fd5b505af1158015611d57573d6000803e3d6000fd5b505050506040513d601f19601f82011682018060405250810190611d7b9190612140565b50611ed0565b806060015173ffffffffffffffffffffffffffffffffffffffff166323b872dd33836040015184608001516040518463ffffffff1660e01b8152600401611dca939291906126c6565b602060405180830381600087803b158015611de457600080fd5b505af1158015611df8573d6000803e3d6000fd5b505050506040513d601f19601f82011682018060405250810190611e1c9190612140565b507f000000000000000000000000000000000000000000000000000000000000000073ffffffffffffffffffffffffffffffffffffffff1663a9059cbb338360a001516040518363ffffffff1660e01b8152600401611e7c9291906126fd565b602060405180830381600087803b158015611e9657600080fd5b505af1158015611eaa573d6000803e3d6000fd5b505050506040513d601f19601f82011682018060405250810190611ece9190612140565b505b6040518060400160405280600981526020017f6578657263697365640000000000000000000000000000000000000000000000815250600260008481526020019081526020016000206001019080519060200190611f2f929190611ff6565b503373ffffffffffffffffffffffffffffffffffffffff16816040015173ffffffffffffffffffffffffffffffffffffffff167fbe38b3704166f0e904f93963eae13ca02ec939a255af46a3340dcdfeb2ee289984604051611f9191906128d2565b60405180910390a35050565b600081604051602001611fb091906126af565b6040516020818303038152906040528051906020012083604051602001611fd791906126af565b6040516020818303038152906040528051906020012014905092915050565b82805461200290612b3b565b90600052602060002090601f016020900481019282612024576000855561206b565b82601f1061203d57805160ff191683800117855561206b565b8280016001018555821561206b579182015b8281111561206a57825182559160200191906001019061204f565b5b509050612078919061207c565b5090565b5b8082111561209557600081600090555060010161207d565b5090565b60006120ac6120a78461299b565b61296a565b9050828152602081018484840111156120c457600080fd5b6120cf848285612af9565b509392505050565b6000813590506120e681612c83565b92915050565b6000815190506120fb81612c9a565b92915050565b600082601f83011261211257600080fd5b8135612122848260208601612099565b91505092915050565b60008135905061213a81612cb1565b92915050565b60006020828403121561215257600080fd5b6000612160848285016120ec565b91505092915050565b600080600080600060a0868803121561218157600080fd5b600086013567ffffffffffffffff81111561219b57600080fd5b6121a788828901612101565b95505060206121b88882890161212b565b94505060406121c9888289016120d7565b93505060606121da8882890161212b565b92505060806121eb8882890161212b565b9150509295509295909350565b60006020828403121561220a57600080fd5b60006122188482850161212b565b91505092915050565b6000806040838503121561223457600080fd5b60006122428582860161212b565b92505060206122538582860161212b565b9150509250929050565b61226681612ab1565b82525050565b6000612277826129cb565b61228181856129d6565b9350612291818560208601612b08565b61229a81612c72565b840191505092915050565b60006122b0826129cb565b6122ba81856129e7565b93506122ca818560208601612b08565b80840191505092915050565b60006122e36027836129d6565b91507f4f7074696f6e2074797065206d6179206f6e6c79206265202763616c6c27206f60008301527f72202770757427000000000000000000000000000000000000000000000000006020830152604082019050919050565b6000612349601a836129d6565b91507f4f7074696f6e20686173206e6f742065787069726564207965740000000000006000830152602082019050919050565b60006123896012836129d6565b91507f4f7074696f6e20686173206578706972656400000000000000000000000000006000830152602082019050919050565b60006123c9602c836129d6565b91507f4f6e6c7920746865206f776e6572206f6620746865206f7074696f6e206d617960008301527f20657865726369736520697400000000000000000000000000000000000000006020830152604082019050919050565b600061242f602d836129d6565b91507f4f6e6c792074686520777269746572206d617920636f6c6c65637420616e206560008301527f787069726564206f7074696f6e000000000000000000000000000000000000006020830152604082019050919050565b6000612495602e836129d6565b91507f4f7074696f6e2068617320616c7265616479206265656e20657865726369736560008301527f64206f7220636f6c6c65637465640000000000000000000000000000000000006020830152604082019050919050565b60006124fb601c836129d6565b91507f457870697279206d75737420626520696e2074686520667574757265000000006000830152602082019050919050565b600061253b6034836129d6565b91507f4f6e6c7920746865206f776e6572206f6620746865206f7074696f6e206d617960008301527f206f70656e206120747261646520666f722069740000000000000000000000006020830152604082019050919050565b60006125a16022836129d6565b91507f4f6e6c792074686520706f73746572206d61792063616e63656c20612074726160008301527f64650000000000000000000000000000000000000000000000000000000000006020830152604082019050919050565b60006126076020836129d6565b91507f4f6e6c79206f70656e20747261646573206d61792062652065786563757465646000830152602082019050919050565b60006126476021836129d6565b91507f4f7074696f6e2068617320616c7265616479206265656e20657865726369736560008301527f64000000000000000000000000000000000000000000000000000000000000006020830152604082019050919050565b6126a981612aef565b82525050565b60006126bb82846122a5565b915081905092915050565b60006060820190506126db600083018661225d565b6126e8602083018561225d565b6126f560408301846126a0565b949350505050565b6000604082019050612712600083018561225d565b61271f60208301846126a0565b9392505050565b600060808201905061273b600083018761225d565b61274860208301866126a0565b61275560408301856126a0565b8181036060830152612767818461226c565b905095945050505050565b6000602082019050818103600083015261278b816122d6565b9050919050565b600060208201905081810360008301526127ab8161233c565b9050919050565b600060208201905081810360008301526127cb8161237c565b9050919050565b600060208201905081810360008301526127eb816123bc565b9050919050565b6000602082019050818103600083015261280b81612422565b9050919050565b6000602082019050818103600083015261282b81612488565b9050919050565b6000602082019050818103600083015261284b816124ee565b9050919050565b6000602082019050818103600083015261286b8161252e565b9050919050565b6000602082019050818103600083015261288b81612594565b9050919050565b600060208201905081810360008301526128ab816125fa565b9050919050565b600060208201905081810360008301526128cb8161263a565b9050919050565b60006020820190506128e760008301846126a0565b92915050565b600060e082019050612902600083018a6126a0565b8181036020830152612914818961226c565b9050612923604083018861225d565b612930606083018761225d565b61293d60808301866126a0565b61294a60a08301856126a0565b81810360c083015261295c818461226c565b905098975050505050505050565b6000604051905081810181811067ffffffffffffffff8211171561299157612990612c43565b5b8060405250919050565b600067ffffffffffffffff8211156129b6576129b5612c43565b5b601f19601f8301169050602081019050919050565b600081519050919050565b600082825260208201905092915050565b600081905092915050565b60006129fd82612aef565b9150612a0883612aef565b925082612a1857612a17612be5565b5b828204905092915050565b6000612a2e82612aef565b9150612a3983612aef565b9250817fffffffffffffffffffffffffffffffffffffffffffffffffffffffffffffffff0483118215151615612a7257612a71612bb6565b5b828202905092915050565b6000612a8882612aef565b9150612a9383612aef565b925082821015612aa657612aa5612bb6565b5b828203905092915050565b6000612abc82612acf565b9050919050565b60008115159050919050565b600073ffffffffffffffffffffffffffffffffffffffff82169050919050565b6000819050919050565b82818337600083830152505050565b60005b83811015612b26578082015181840152602081019050612b0b565b83811115612b35576000848401525b50505050565b60006002820490506001821680612b5357607f821691505b60208210811415612b6757612b66612c14565b5b50919050565b6000612b7882612aef565b91507fffffffffffffffffffffffffffffffffffffffffffffffffffffffffffffffff821415612bab57612baa612bb6565b5b600182019050919050565b7f4e487b7100000000000000000000000000000000000000000000000000000000600052601160045260246000fd5b7f4e487b7100000000000000000000000000000000000000000000000000000000600052601260045260246000fd5b7f4e487b7100000000000000000000000000000000000000000000000000000000600052602260045260246000fd5b7f4e487b7100000000000000000000000000000000000000000000000000000000600052604160045260246000fd5b6000601f19601f8301169050919050565b612c8c81612ab1565b8114612c9757600080fd5b50565b612ca381612ac3565b8114612cae57600080fd5b50565b612cba81612aef565b8114612cc557600080fd5b5056fea2646970667358221220a305cad97203be59bd3950449e1dde950a52b0957254682ffcc2900794beac4264736f6c63430008000033",
  "immutableReferences": {
    "126": [
      {
        "length": 32,
        "start": 1007
      },
      {
        "length": 32,
        "start": 1187
      },
      {
        "length": 32,
        "start": 4204
      },
      {
        "length": 32,
        "start": 5975
      },
      {
        "length": 32,
        "start": 7216
      },
      {
        "length": 32,
        "start": 7711
      }
    ]
  },
  "source": "// SPDX-License-Identifier: GPL-3.0-only\npragma solidity ^0.8.0;\n\nimport \"@openzeppelin/contracts/token/ERC20/IERC20.sol\";\n\ncontract OptionsMarket {\n    // Admin access\n    address private owner;\n\n    // Option data\n    struct Option {\n        uint256 expiry;\n        string status; // none, exercised, collected\n        address writer;\n        address tokenAddress;\n        uint256 amount;\n        uint256 price;\n        string optionType; // call, put\n    }\n\n    uint256 private optionId;\n    mapping(uint256 => Option) private options;\n    mapping(uint256 => address) private optionOwners;\n\n    // Trade data\n    struct Trade {\n        address poster;\n        uint256 optionId;\n        uint256 price;\n        string status; // open, closed, cancelled\n    }\n\n    uint256 private tradeId;\n    mapping(uint256 => Trade) private trades;\n    address private immutable tradeCurrency;\n\n    constructor(address currency) {\n        // Set the owner as the deployer of the contract and set the currency of the trades\n        owner = msg.sender;\n        tradeCurrency = currency;\n    }\n\n    // Declare events for logging data\n    event OptionWritten(uint256 optionId, address indexed writer, string indexed optionType, address indexed tokenAddress);\n    event OptionExercised(uint256 optionId, address indexed writer, address indexed exerciser);\n    event TradeOpened(uint256 tradeId, uint256 indexed optionId, address indexed poster);\n    event TradeExecuted(uint256 tradeId, uint256 indexed optionId, address indexed buyer);\n\n    // ============= Util functions =============\n\n    // Compare if two strings are equal\n    function _compareStrings(string memory a, string memory b) private pure returns (bool) {\n        return keccak256(abi.encodePacked(a)) == keccak256(abi.encodePacked(b));\n    }\n\n    // ============= Option functions =============\n\n    // Allow the address to create a new option\n    function writeOption(string memory optionType, uint256 expiry, address tokenAddress, uint256 amount, uint256 price) public returns (uint256) {\n        // Check that the option is valid\n        require(_compareStrings(optionType, \"call\") || _compareStrings(optionType, \"put\"), \"Option type may only be 'call' or 'put'\");\n        require(expiry > block.timestamp, \"Expiry must be in the future\");\n\n        // Write a new option\n        Option memory option = Option({\n            expiry: expiry,\n            status: \"none\",\n            writer: msg.sender,\n            tokenAddress: tokenAddress,\n            amount: amount,\n            price: price,\n            optionType: optionType\n        });\n\n        // If this is a call then transfer the amount of the token to the contract,\n        // otherwise if a put then transfer the trade currency to the contract\n        if (_compareStrings(optionType, \"call\")) {\n            IERC20(tokenAddress).transferFrom(msg.sender, address(this), amount); \n        } else {\n            IERC20(tradeCurrency).transferFrom(msg.sender, address(this), price);\n        }\n\n        // Save the option\n        options[optionId] = option;\n        optionOwners[optionId] = msg.sender;\n        optionId++;\n\n        // Emit an event and return the id of the option\n        emit OptionWritten(optionId - 1, msg.sender, optionType, tokenAddress);\n        return optionId - 1;\n    }\n\n    // Get the data of an option\n    function getOption(uint256 _optionId) public view returns (uint256, string memory, address, address, uint256, uint256, string memory) {\n        Option memory option = options[_optionId];\n        return (option.expiry, option.status, option.writer, option.tokenAddress, option.amount, option.price, option.optionType);\n    }\n\n    // Allow a option holder to exercise their option\n    function exerciseOption(uint256 _optionId) public {\n        // Get the data of the option\n        Option memory option = options[_optionId];\n\n        // Check that the option may be exercised\n        require(option.expiry <= block.timestamp, \"Option has expired\");\n        require(_compareStrings(option.status, \"none\"), \"Option has already been exercised\");\n        require(optionOwners[_optionId] == msg.sender, \"Only the owner of the option may exercise it\");\n\n        // If the option is a call, then charge the user the premium to receive the tokens,\n        // else if the option is a put, transfer their tokens\n        if (_compareStrings(option.optionType, \"call\")) {\n            IERC20(tradeCurrency).transferFrom(msg.sender, option.writer, option.price);\n            IERC20(option.tokenAddress).transfer(msg.sender, option.amount);\n        } else {\n            IERC20(option.tokenAddress).transferFrom(msg.sender, option.writer, option.amount);\n            IERC20(tradeCurrency).transfer(msg.sender, option.price);\n        }\n\n        // Update the status of the option and emit event\n        options[_optionId].status = \"exercised\";\n        emit OptionExercised(_optionId, option.writer, msg.sender);\n    }\n\n    // Allow a writer to collect an expired contract\n    function collectExpired(uint256 _optionId) public {\n        // Get the data of the option\n        Option memory option = options[_optionId];\n\n        // Check that the option may be collected\n        require(option.expiry > block.timestamp, \"Option has not expired yet\");\n        require(_compareStrings(option.status, \"none\"), \"Option has already been exercised or collected\");\n        require(option.writer == msg.sender, \"Only the writer may collect an expired option\");\n\n        // If the option is a call then transfer the tokens back to the writer,\n        // otherwise transfer the price back to the writer\n        if (_compareStrings(option.optionType, \"call\")) {\n            IERC20(option.tokenAddress).transfer(msg.sender, option.amount);\n        } else {\n            IERC20(tradeCurrency).transfer(msg.sender, option.price);\n        }\n\n        // Update the status of the option\n        options[_optionId].status = \"collected\";\n    }\n\n    // ============= Marketplace functions =============\n\n    // Open a new trade for selling an option\n    function openTrade(uint256 _optionId, uint256 price) public returns (uint256) {\n        // Check that the trade may be opened\n        require(optionOwners[_optionId] == msg.sender, \"Only the owner of the option may open a trade for it\");\n\n        // Create a new trade\n        Trade memory trade = Trade({\n            poster: msg.sender,\n            optionId: _optionId,\n            price: price,\n            status: \"open\"\n        });\n\n        // Store the new trade\n        trades[tradeId] = trade;\n        tradeId++;\n\n        // Emit an event and return the trade id\n        emit TradeOpened(tradeId - 1, _optionId, msg.sender);\n        return tradeId - 1;\n    }\n\n    // Execute a trade for buying an option\n    function executeTrade(uint256 _tradeId) public {\n        // Get the trade\n        Trade memory trade = trades[_tradeId];\n\n        // Verify that the trade status is valid\n        require(_compareStrings(trade.status, \"open\"), \"Only open trades may be executed\");\n\n        // Transfer the option\n        optionOwners[_tradeId] = msg.sender;\n\n        // Charge the recipient and pay a fee to the owner\n        uint256 fee = trade.price * 3 / 100; \n        uint256 payout = trade.price - fee;\n        IERC20(tradeCurrency).transferFrom(msg.sender, trade.poster, payout);\n        IERC20(tradeCurrency).transferFrom(msg.sender, owner, fee);\n\n        // Update the status of the trade\n        trades[_tradeId].status = \"closed\";\n\n        // Emit an event\n        emit TradeExecuted(_tradeId, trade.optionId, msg.sender);\n    }\n\n    // View a trade\n    function getTrade(uint256 _tradeId) public view returns(address, uint256, uint256, string memory) {\n        Trade memory trade = trades[_tradeId];\n        return (trade.poster, trade.optionId, trade.price, trade.status);\n    }\n\n    // Cancel a trade\n    function cancelTrade(uint256 _tradeId) public {\n        // Get the trade\n        Trade memory trade = trades[_tradeId];\n\n        // Check that the poster of the trade is the sender\n        require(trade.poster == msg.sender, \"Only the poster may cancel a trade\");\n\n        // Cancel the trade\n        trades[_tradeId].status = \"cancelled\";\n    }\n}",
  "sourcePath": "/home/ben/Code/Crypto-Options/src/contracts/OptionsMarket.sol",
  "compiler": {
    "name": "solc",
    "version": "0.8.0+commit.c7dfd78e.Emscripten.clang"
  },
  "schemaVersion": "3.4.3",
  "updatedAt": "2021-09-21T12:05:23.478Z",
  "devdoc": {
    "kind": "dev",
    "methods": {},
    "version": 1
  },
  "userdoc": {
    "kind": "user",
    "methods": {},
    "version": 1
  }
}