{
  "contractName": "OptionsMarket",
  "abi": [
    {
      "inputs": [
        {
          "internalType": "address",
          "name": "currency",
          "type": "address"
        }
      ],
      "stateMutability": "nonpayable",
      "type": "constructor"
    },
    {
      "anonymous": false,
      "inputs": [
        {
          "indexed": false,
          "internalType": "uint256",
          "name": "optionId",
          "type": "uint256"
        },
        {
          "indexed": true,
          "internalType": "address",
          "name": "writer",
          "type": "address"
        },
        {
          "indexed": true,
          "internalType": "address",
          "name": "exerciser",
          "type": "address"
        }
      ],
      "name": "OptionExercised",
      "type": "event"
    },
    {
      "anonymous": false,
      "inputs": [
        {
          "indexed": false,
          "internalType": "uint256",
          "name": "optionId",
          "type": "uint256"
        },
        {
          "indexed": true,
          "internalType": "address",
          "name": "writer",
          "type": "address"
        },
        {
          "indexed": true,
          "internalType": "string",
          "name": "optionType",
          "type": "string"
        },
        {
          "indexed": true,
          "internalType": "address",
          "name": "tokenAddress",
          "type": "address"
        }
      ],
      "name": "OptionWritten",
      "type": "event"
    },
    {
      "anonymous": false,
      "inputs": [
        {
          "indexed": false,
          "internalType": "uint256",
          "name": "tradeId",
          "type": "uint256"
        },
        {
          "indexed": true,
          "internalType": "uint256",
          "name": "optionId",
          "type": "uint256"
        },
        {
          "indexed": true,
          "internalType": "address",
          "name": "buyer",
          "type": "address"
        }
      ],
      "name": "TradeExecuted",
      "type": "event"
    },
    {
      "anonymous": false,
      "inputs": [
        {
          "indexed": false,
          "internalType": "uint256",
          "name": "tradeId",
          "type": "uint256"
        },
        {
          "indexed": true,
          "internalType": "uint256",
          "name": "optionId",
          "type": "uint256"
        },
        {
          "indexed": true,
          "internalType": "address",
          "name": "poster",
          "type": "address"
        }
      ],
      "name": "TradeOpened",
      "type": "event"
    },
    {
      "inputs": [
        {
          "internalType": "string",
          "name": "optionType",
          "type": "string"
        },
        {
          "internalType": "uint256",
          "name": "expiry",
          "type": "uint256"
        },
        {
          "internalType": "address",
          "name": "tokenAddress",
          "type": "address"
        },
        {
          "internalType": "uint256",
          "name": "amount",
          "type": "uint256"
        },
        {
          "internalType": "uint256",
          "name": "price",
          "type": "uint256"
        }
      ],
      "name": "writeOption",
      "outputs": [
        {
          "internalType": "uint256",
          "name": "",
          "type": "uint256"
        }
      ],
      "stateMutability": "nonpayable",
      "type": "function"
    },
    {
      "inputs": [
        {
          "internalType": "uint256",
          "name": "_optionId",
          "type": "uint256"
        }
      ],
      "name": "getOption",
      "outputs": [
        {
          "internalType": "uint256",
          "name": "",
          "type": "uint256"
        },
        {
          "internalType": "string",
          "name": "",
          "type": "string"
        },
        {
          "internalType": "address",
          "name": "",
          "type": "address"
        },
        {
          "internalType": "address",
          "name": "",
          "type": "address"
        },
        {
          "internalType": "uint256",
          "name": "",
          "type": "uint256"
        },
        {
          "internalType": "uint256",
          "name": "",
          "type": "uint256"
        },
        {
          "internalType": "string",
          "name": "",
          "type": "string"
        }
      ],
      "stateMutability": "view",
      "type": "function"
    },
    {
      "inputs": [
        {
          "internalType": "uint256",
          "name": "_optionId",
          "type": "uint256"
        }
      ],
      "name": "exerciseOption",
      "outputs": [],
      "stateMutability": "nonpayable",
      "type": "function"
    },
    {
      "inputs": [
        {
          "internalType": "uint256",
          "name": "_optionId",
          "type": "uint256"
        }
      ],
      "name": "collectExpired",
      "outputs": [],
      "stateMutability": "nonpayable",
      "type": "function"
    },
    {
      "inputs": [
        {
          "internalType": "uint256",
          "name": "_optionId",
          "type": "uint256"
        },
        {
          "internalType": "uint256",
          "name": "price",
          "type": "uint256"
        }
      ],
      "name": "openTrade",
      "outputs": [
        {
          "internalType": "uint256",
          "name": "",
          "type": "uint256"
        }
      ],
      "stateMutability": "nonpayable",
      "type": "function"
    },
    {
      "inputs": [
        {
          "internalType": "uint256",
          "name": "_tradeId",
          "type": "uint256"
        }
      ],
      "name": "executeTrade",
      "outputs": [],
      "stateMutability": "nonpayable",
      "type": "function"
    },
    {
      "inputs": [
        {
          "internalType": "uint256",
          "name": "_tradeId",
          "type": "uint256"
        }
      ],
      "name": "viewTrade",
      "outputs": [
        {
          "internalType": "address",
          "name": "",
          "type": "address"
        },
        {
          "internalType": "uint256",
          "name": "",
          "type": "uint256"
        },
        {
          "internalType": "uint256",
          "name": "",
          "type": "uint256"
        },
        {
          "internalType": "string",
          "name": "",
          "type": "string"
        }
      ],
      "stateMutability": "view",
      "type": "function"
    },
    {
      "inputs": [
        {
          "internalType": "uint256",
          "name": "_tradeId",
          "type": "uint256"
        }
      ],
      "name": "cancelTrade",
      "outputs": [],
      "stateMutability": "nonpayable",
      "type": "function"
    }
  ],
  "bytecode": "0x60a06040523480156200001157600080fd5b5060405162002d4438038062002d448339818101604052810190620000379190620000cc565b336000806101000a81548173ffffffffffffffffffffffffffffffffffffffff021916908373ffffffffffffffffffffffffffffffffffffffff1602179055508073ffffffffffffffffffffffffffffffffffffffff1660808173ffffffffffffffffffffffffffffffffffffffff1660601b815250505062000146565b600081519050620000c6816200012c565b92915050565b600060208284031215620000df57600080fd5b6000620000ef84828501620000b5565b91505092915050565b600062000105826200010c565b9050919050565b600073ffffffffffffffffffffffffffffffffffffffff82169050919050565b6200013781620000f8565b81146200014357600080fd5b50565b60805160601c612bbc620001886000396000818161036d0152818161042101528181610f8a0152818161167501528181611b4e0152611d3d0152612bbc6000f3fe608060405234801561001057600080fd5b50600436106100885760003560e01c806365b6c33d1161005b57806365b6c33d1461012b578063706efac51461015e578063b7b4ea041461018e578063f52f2526146101aa57610088565b806302d2838b1461008d57806309ec6cc7146100a95780630c493fba146100c55780631ce5e9a6146100f5575b600080fd5b6100a760048036038101906100a29190612116565b6101c6565b005b6100c360048036038101906100be9190612116565b610548565b005b6100df60048036038101906100da919061213f565b61073c565b6040516100ec9190612790565b60405180910390f35b61010f600480360381019061010a9190612116565b61096d565b60405161012297969594939291906127ab565b60405180910390f35b61014560048036038101906101409190612116565b610bc6565b6040516101559493929190612604565b60405180910390f35b61017860048036038101906101739190612087565b610d0f565b6040516101859190612790565b60405180910390f35b6101a860048036038101906101a39190612116565b611246565b005b6101c460048036038101906101bf9190612116565b61178a565b005b6000600560008381526020019081526020016000206040518060800160405290816000820160009054906101000a900473ffffffffffffffffffffffffffffffffffffffff1673ffffffffffffffffffffffffffffffffffffffff1673ffffffffffffffffffffffffffffffffffffffff1681526020016001820154815260200160028201548152602001600382018054610260906129f9565b80601f016020809104026020016040519081016040528092919081815260200182805461028c906129f9565b80156102d95780601f106102ae576101008083540402835291602001916102d9565b820191906000526020600020905b8154815290600101906020018083116102bc57829003601f168201915b5050505050815250509050336003600084815260200190815260200160002060006101000a81548173ffffffffffffffffffffffffffffffffffffffff021916908373ffffffffffffffffffffffffffffffffffffffff160217905550600060646003836040015161034b91906128e1565b61035591906128b0565b90506000818360400151610369919061293b565b90507f000000000000000000000000000000000000000000000000000000000000000073ffffffffffffffffffffffffffffffffffffffff166323b872dd338560000151846040518463ffffffff1660e01b81526004016103cc939291906125a4565b602060405180830381600087803b1580156103e657600080fd5b505af11580156103fa573d6000803e3d6000fd5b505050506040513d601f19601f8201168201806040525081019061041e919061205e565b507f000000000000000000000000000000000000000000000000000000000000000073ffffffffffffffffffffffffffffffffffffffff166323b872dd3360008054906101000a900473ffffffffffffffffffffffffffffffffffffffff16856040518463ffffffff1660e01b815260040161049c939291906125a4565b602060405180830381600087803b1580156104b657600080fd5b505af11580156104ca573d6000803e3d6000fd5b505050506040513d601f19601f820116820180604052508101906104ee919061205e565b503373ffffffffffffffffffffffffffffffffffffffff1683602001517fcd4549424763814841fd85ada3413dd0f4ec86f6bde5a04a93f9c20e20c653cc8660405161053a9190612790565b60405180910390a350505050565b6000600560008381526020019081526020016000206040518060800160405290816000820160009054906101000a900473ffffffffffffffffffffffffffffffffffffffff1673ffffffffffffffffffffffffffffffffffffffff1673ffffffffffffffffffffffffffffffffffffffff16815260200160018201548152602001600282015481526020016003820180546105e2906129f9565b80601f016020809104026020016040519081016040528092919081815260200182805461060e906129f9565b801561065b5780601f106106305761010080835404028352916020019161065b565b820191906000526020600020905b81548152906001019060200180831161063e57829003601f168201915b50505050508152505090503373ffffffffffffffffffffffffffffffffffffffff16816000015173ffffffffffffffffffffffffffffffffffffffff16146106d8576040517f08c379a00000000000000000000000000000000000000000000000000000000081526004016106cf90612750565b60405180910390fd5b6040518060400160405280600981526020017f63616e63656c6c65640000000000000000000000000000000000000000000000815250600560008481526020019081526020016000206003019080519060200190610737929190611f14565b505050565b60003373ffffffffffffffffffffffffffffffffffffffff166003600085815260200190815260200160002060009054906101000a900473ffffffffffffffffffffffffffffffffffffffff1673ffffffffffffffffffffffffffffffffffffffff16146107df576040517f08c379a00000000000000000000000000000000000000000000000000000000081526004016107d690612730565b60405180910390fd5b600060405180608001604052803373ffffffffffffffffffffffffffffffffffffffff1681526020018581526020018481526020016040518060400160405280600481526020017f6f70656e0000000000000000000000000000000000000000000000000000000081525081525090508060056000600454815260200190815260200160002060008201518160000160006101000a81548173ffffffffffffffffffffffffffffffffffffffff021916908373ffffffffffffffffffffffffffffffffffffffff160217905550602082015181600101556040820151816002015560608201518160030190805190602001906108dc929190611f14565b50905050600460008154809291906108f390612a2b565b91905055503373ffffffffffffffffffffffffffffffffffffffff16847f132feb0275d32a02a9b2a45bbcdeb49835d2b9d88b0db4f91470ca50a5ad78ce6001600454610940919061293b565b60405161094d9190612790565b60405180910390a36001600454610964919061293b565b91505092915050565b6000606060008060008060606000600260008a81526020019081526020016000206040518060e0016040529081600082015481526020016001820180546109b3906129f9565b80601f01602080910402602001604051908101604052809291908181526020018280546109df906129f9565b8015610a2c5780601f10610a0157610100808354040283529160200191610a2c565b820191906000526020600020905b815481529060010190602001808311610a0f57829003601f168201915b505050505081526020016002820160009054906101000a900473ffffffffffffffffffffffffffffffffffffffff1673ffffffffffffffffffffffffffffffffffffffff1673ffffffffffffffffffffffffffffffffffffffff1681526020016003820160009054906101000a900473ffffffffffffffffffffffffffffffffffffffff1673ffffffffffffffffffffffffffffffffffffffff1673ffffffffffffffffffffffffffffffffffffffff1681526020016004820154815260200160058201548152602001600682018054610b05906129f9565b80601f0160208091040260200160405190810160405280929190818152602001828054610b31906129f9565b8015610b7e5780601f10610b5357610100808354040283529160200191610b7e565b820191906000526020600020905b815481529060010190602001808311610b6157829003601f168201915b5050505050815250509050806000015181602001518260400151836060015184608001518560a001518660c00151975097509750975097509750975050919395979092949650565b600080600060606000600560008781526020019081526020016000206040518060800160405290816000820160009054906101000a900473ffffffffffffffffffffffffffffffffffffffff1673ffffffffffffffffffffffffffffffffffffffff1673ffffffffffffffffffffffffffffffffffffffff1681526020016001820154815260200160028201548152602001600382018054610c67906129f9565b80601f0160208091040260200160405190810160405280929190818152602001828054610c93906129f9565b8015610ce05780601f10610cb557610100808354040283529160200191610ce0565b820191906000526020600020905b815481529060010190602001808311610cc357829003601f168201915b505050505081525050905080600001518160200151826040015183606001519450945094509450509193509193565b6000610d50866040518060400160405280600481526020017f63616c6c00000000000000000000000000000000000000000000000000000000815250611ebb565b80610d965750610d95866040518060400160405280600381526020017f7075740000000000000000000000000000000000000000000000000000000000815250611ebb565b5b610dd5576040517f08c379a0000000000000000000000000000000000000000000000000000000008152600401610dcc90612650565b60405180910390fd5b428511610e17576040517f08c379a0000000000000000000000000000000000000000000000000000000008152600401610e0e90612710565b60405180910390fd5b60006040518060e001604052808781526020016040518060400160405280600481526020017f6e6f6e650000000000000000000000000000000000000000000000000000000081525081526020013373ffffffffffffffffffffffffffffffffffffffff1681526020018673ffffffffffffffffffffffffffffffffffffffff168152602001858152602001848152602001888152509050610eee876040518060400160405280600481526020017f63616c6c00000000000000000000000000000000000000000000000000000000815250611ebb565b15610f88578473ffffffffffffffffffffffffffffffffffffffff166323b872dd3330876040518463ffffffff1660e01b8152600401610f30939291906125a4565b602060405180830381600087803b158015610f4a57600080fd5b505af1158015610f5e573d6000803e3d6000fd5b505050506040513d601f19601f82011682018060405250810190610f82919061205e565b50611039565b7f000000000000000000000000000000000000000000000000000000000000000073ffffffffffffffffffffffffffffffffffffffff166323b872dd3330866040518463ffffffff1660e01b8152600401610fe5939291906125a4565b602060405180830381600087803b158015610fff57600080fd5b505af1158015611013573d6000803e3d6000fd5b505050506040513d601f19601f82011682018060405250810190611037919061205e565b505b80600260006001548152602001908152602001600020600082015181600001556020820151816001019080519060200190611075929190611f14565b5060408201518160020160006101000a81548173ffffffffffffffffffffffffffffffffffffffff021916908373ffffffffffffffffffffffffffffffffffffffff16021790555060608201518160030160006101000a81548173ffffffffffffffffffffffffffffffffffffffff021916908373ffffffffffffffffffffffffffffffffffffffff1602179055506080820151816004015560a0820151816005015560c0820151816006019080519060200190611134929190611f14565b509050503360036000600154815260200190815260200160002060006101000a81548173ffffffffffffffffffffffffffffffffffffffff021916908373ffffffffffffffffffffffffffffffffffffffff1602179055506001600081548092919061119f90612a2b565b91905055508473ffffffffffffffffffffffffffffffffffffffff16876040516111c9919061258d565b60405180910390203373ffffffffffffffffffffffffffffffffffffffff167ffb6c2dc6b80a4b904549b8d862af0f26d0d29d2bf5249cf5753cc6be7f4a4c9460018054611217919061293b565b6040516112249190612790565b60405180910390a46001805461123a919061293b565b91505095945050505050565b6000600260008381526020019081526020016000206040518060e001604052908160008201548152602001600182018054611280906129f9565b80601f01602080910402602001604051908101604052809291908181526020018280546112ac906129f9565b80156112f95780601f106112ce576101008083540402835291602001916112f9565b820191906000526020600020905b8154815290600101906020018083116112dc57829003601f168201915b505050505081526020016002820160009054906101000a900473ffffffffffffffffffffffffffffffffffffffff1673ffffffffffffffffffffffffffffffffffffffff1673ffffffffffffffffffffffffffffffffffffffff1681526020016003820160009054906101000a900473ffffffffffffffffffffffffffffffffffffffff1673ffffffffffffffffffffffffffffffffffffffff1673ffffffffffffffffffffffffffffffffffffffff16815260200160048201548152602001600582015481526020016006820180546113d2906129f9565b80601f01602080910402602001604051908101604052809291908181526020018280546113fe906129f9565b801561144b5780601f106114205761010080835404028352916020019161144b565b820191906000526020600020905b81548152906001019060200180831161142e57829003601f168201915b50505050508152505090504281600001511161149c576040517f08c379a000000000000000000000000000000000000000000000000000000000815260040161149390612670565b60405180910390fd5b6114df81602001516040518060400160405280600481526020017f6e6f6e6500000000000000000000000000000000000000000000000000000000815250611ebb565b61151e576040517f08c379a0000000000000000000000000000000000000000000000000000000008152600401611515906126f0565b60405180910390fd5b3373ffffffffffffffffffffffffffffffffffffffff16816040015173ffffffffffffffffffffffffffffffffffffffff1614611590576040517f08c379a0000000000000000000000000000000000000000000000000000000008152600401611587906126d0565b60405180910390fd5b6115d38160c001516040518060400160405280600481526020017f63616c6c00000000000000000000000000000000000000000000000000000000815250611ebb565b1561167357806060015173ffffffffffffffffffffffffffffffffffffffff1663a9059cbb3383608001516040518363ffffffff1660e01b815260040161161b9291906125db565b602060405180830381600087803b15801561163557600080fd5b505af1158015611649573d6000803e3d6000fd5b505050506040513d601f19601f8201168201806040525081019061166d919061205e565b50611726565b7f000000000000000000000000000000000000000000000000000000000000000073ffffffffffffffffffffffffffffffffffffffff1663a9059cbb338360a001516040518363ffffffff1660e01b81526004016116d29291906125db565b602060405180830381600087803b1580156116ec57600080fd5b505af1158015611700573d6000803e3d6000fd5b505050506040513d601f19601f82011682018060405250810190611724919061205e565b505b6040518060400160405280600981526020017f636f6c6c65637465640000000000000000000000000000000000000000000000815250600260008481526020019081526020016000206001019080519060200190611785929190611f14565b505050565b6000600260008381526020019081526020016000206040518060e0016040529081600082015481526020016001820180546117c4906129f9565b80601f01602080910402602001604051908101604052809291908181526020018280546117f0906129f9565b801561183d5780601f106118125761010080835404028352916020019161183d565b820191906000526020600020905b81548152906001019060200180831161182057829003601f168201915b505050505081526020016002820160009054906101000a900473ffffffffffffffffffffffffffffffffffffffff1673ffffffffffffffffffffffffffffffffffffffff1673ffffffffffffffffffffffffffffffffffffffff1681526020016003820160009054906101000a900473ffffffffffffffffffffffffffffffffffffffff1673ffffffffffffffffffffffffffffffffffffffff1673ffffffffffffffffffffffffffffffffffffffff1681526020016004820154815260200160058201548152602001600682018054611916906129f9565b80601f0160208091040260200160405190810160405280929190818152602001828054611942906129f9565b801561198f5780601f106119645761010080835404028352916020019161198f565b820191906000526020600020905b81548152906001019060200180831161197257829003601f168201915b505050505081525050905042816000015111156119e1576040517f08c379a00000000000000000000000000000000000000000000000000000000081526004016119d890612690565b60405180910390fd5b611a2481602001516040518060400160405280600481526020017f6e6f6e6500000000000000000000000000000000000000000000000000000000815250611ebb565b611a63576040517f08c379a0000000000000000000000000000000000000000000000000000000008152600401611a5a90612770565b60405180910390fd5b3373ffffffffffffffffffffffffffffffffffffffff166003600084815260200190815260200160002060009054906101000a900473ffffffffffffffffffffffffffffffffffffffff1673ffffffffffffffffffffffffffffffffffffffff1614611b04576040517f08c379a0000000000000000000000000000000000000000000000000000000008152600401611afb906126b0565b60405180910390fd5b611b478160c001516040518060400160405280600481526020017f63616c6c00000000000000000000000000000000000000000000000000000000815250611ebb565b15611c9f577f000000000000000000000000000000000000000000000000000000000000000073ffffffffffffffffffffffffffffffffffffffff166323b872dd3383604001518460a001516040518463ffffffff1660e01b8152600401611bb1939291906125a4565b602060405180830381600087803b158015611bcb57600080fd5b505af1158015611bdf573d6000803e3d6000fd5b505050506040513d601f19601f82011682018060405250810190611c03919061205e565b50806060015173ffffffffffffffffffffffffffffffffffffffff1663a9059cbb3383608001516040518363ffffffff1660e01b8152600401611c479291906125db565b602060405180830381600087803b158015611c6157600080fd5b505af1158015611c75573d6000803e3d6000fd5b505050506040513d601f19601f82011682018060405250810190611c99919061205e565b50611dee565b806060015173ffffffffffffffffffffffffffffffffffffffff166323b872dd33836040015184608001516040518463ffffffff1660e01b8152600401611ce8939291906125a4565b602060405180830381600087803b158015611d0257600080fd5b505af1158015611d16573d6000803e3d6000fd5b505050506040513d601f19601f82011682018060405250810190611d3a919061205e565b507f000000000000000000000000000000000000000000000000000000000000000073ffffffffffffffffffffffffffffffffffffffff1663a9059cbb338360a001516040518363ffffffff1660e01b8152600401611d9a9291906125db565b602060405180830381600087803b158015611db457600080fd5b505af1158015611dc8573d6000803e3d6000fd5b505050506040513d601f19601f82011682018060405250810190611dec919061205e565b505b6040518060400160405280600981526020017f6578657263697365640000000000000000000000000000000000000000000000815250600260008481526020019081526020016000206001019080519060200190611e4d929190611f14565b503373ffffffffffffffffffffffffffffffffffffffff16816040015173ffffffffffffffffffffffffffffffffffffffff167fbe38b3704166f0e904f93963eae13ca02ec939a255af46a3340dcdfeb2ee289984604051611eaf9190612790565b60405180910390a35050565b600081604051602001611ece919061258d565b6040516020818303038152906040528051906020012083604051602001611ef5919061258d565b6040516020818303038152906040528051906020012014905092915050565b828054611f20906129f9565b90600052602060002090601f016020900481019282611f425760008555611f89565b82601f10611f5b57805160ff1916838001178555611f89565b82800160010185558215611f89579182015b82811115611f88578251825591602001919060010190611f6d565b5b509050611f969190611f9a565b5090565b5b80821115611fb3576000816000905550600101611f9b565b5090565b6000611fca611fc584612859565b612828565b905082815260208101848484011115611fe257600080fd5b611fed8482856129b7565b509392505050565b60008135905061200481612b41565b92915050565b60008151905061201981612b58565b92915050565b600082601f83011261203057600080fd5b8135612040848260208601611fb7565b91505092915050565b60008135905061205881612b6f565b92915050565b60006020828403121561207057600080fd5b600061207e8482850161200a565b91505092915050565b600080600080600060a0868803121561209f57600080fd5b600086013567ffffffffffffffff8111156120b957600080fd5b6120c58882890161201f565b95505060206120d688828901612049565b94505060406120e788828901611ff5565b93505060606120f888828901612049565b925050608061210988828901612049565b9150509295509295909350565b60006020828403121561212857600080fd5b600061213684828501612049565b91505092915050565b6000806040838503121561215257600080fd5b600061216085828601612049565b925050602061217185828601612049565b9150509250929050565b6121848161296f565b82525050565b600061219582612889565b61219f8185612894565b93506121af8185602086016129c6565b6121b881612b30565b840191505092915050565b60006121ce82612889565b6121d881856128a5565b93506121e88185602086016129c6565b80840191505092915050565b6000612201602783612894565b91507f4f7074696f6e2074797065206d6179206f6e6c79206265202763616c6c27206f60008301527f72202770757427000000000000000000000000000000000000000000000000006020830152604082019050919050565b6000612267601a83612894565b91507f4f7074696f6e20686173206e6f742065787069726564207965740000000000006000830152602082019050919050565b60006122a7601283612894565b91507f4f7074696f6e20686173206578706972656400000000000000000000000000006000830152602082019050919050565b60006122e7602c83612894565b91507f4f6e6c7920746865206f776e6572206f6620746865206f7074696f6e206d617960008301527f20657865726369736520697400000000000000000000000000000000000000006020830152604082019050919050565b600061234d602d83612894565b91507f4f6e6c792074686520777269746572206d617920636f6c6c65637420616e206560008301527f787069726564206f7074696f6e000000000000000000000000000000000000006020830152604082019050919050565b60006123b3602e83612894565b91507f4f7074696f6e2068617320616c7265616479206265656e20657865726369736560008301527f64206f7220636f6c6c65637465640000000000000000000000000000000000006020830152604082019050919050565b6000612419601c83612894565b91507f457870697279206d75737420626520696e2074686520667574757265000000006000830152602082019050919050565b6000612459603483612894565b91507f4f6e6c7920746865206f776e6572206f6620746865206f7074696f6e206d617960008301527f206f70656e206120747261646520666f722069740000000000000000000000006020830152604082019050919050565b60006124bf602283612894565b91507f4f6e6c792074686520706f73746572206d61792063616e63656c20612074726160008301527f64650000000000000000000000000000000000000000000000000000000000006020830152604082019050919050565b6000612525602183612894565b91507f4f7074696f6e2068617320616c7265616479206265656e20657865726369736560008301527f64000000000000000000000000000000000000000000000000000000000000006020830152604082019050919050565b612587816129ad565b82525050565b600061259982846121c3565b915081905092915050565b60006060820190506125b9600083018661217b565b6125c6602083018561217b565b6125d3604083018461257e565b949350505050565b60006040820190506125f0600083018561217b565b6125fd602083018461257e565b9392505050565b6000608082019050612619600083018761217b565b612626602083018661257e565b612633604083018561257e565b8181036060830152612645818461218a565b905095945050505050565b60006020820190508181036000830152612669816121f4565b9050919050565b600060208201905081810360008301526126898161225a565b9050919050565b600060208201905081810360008301526126a98161229a565b9050919050565b600060208201905081810360008301526126c9816122da565b9050919050565b600060208201905081810360008301526126e981612340565b9050919050565b60006020820190508181036000830152612709816123a6565b9050919050565b600060208201905081810360008301526127298161240c565b9050919050565b600060208201905081810360008301526127498161244c565b9050919050565b60006020820190508181036000830152612769816124b2565b9050919050565b6000602082019050818103600083015261278981612518565b9050919050565b60006020820190506127a5600083018461257e565b92915050565b600060e0820190506127c0600083018a61257e565b81810360208301526127d2818961218a565b90506127e1604083018861217b565b6127ee606083018761217b565b6127fb608083018661257e565b61280860a083018561257e565b81810360c083015261281a818461218a565b905098975050505050505050565b6000604051905081810181811067ffffffffffffffff8211171561284f5761284e612b01565b5b8060405250919050565b600067ffffffffffffffff82111561287457612873612b01565b5b601f19601f8301169050602081019050919050565b600081519050919050565b600082825260208201905092915050565b600081905092915050565b60006128bb826129ad565b91506128c6836129ad565b9250826128d6576128d5612aa3565b5b828204905092915050565b60006128ec826129ad565b91506128f7836129ad565b9250817fffffffffffffffffffffffffffffffffffffffffffffffffffffffffffffffff04831182151516156129305761292f612a74565b5b828202905092915050565b6000612946826129ad565b9150612951836129ad565b92508282101561296457612963612a74565b5b828203905092915050565b600061297a8261298d565b9050919050565b60008115159050919050565b600073ffffffffffffffffffffffffffffffffffffffff82169050919050565b6000819050919050565b82818337600083830152505050565b60005b838110156129e45780820151818401526020810190506129c9565b838111156129f3576000848401525b50505050565b60006002820490506001821680612a1157607f821691505b60208210811415612a2557612a24612ad2565b5b50919050565b6000612a36826129ad565b91507fffffffffffffffffffffffffffffffffffffffffffffffffffffffffffffffff821415612a6957612a68612a74565b5b600182019050919050565b7f4e487b7100000000000000000000000000000000000000000000000000000000600052601160045260246000fd5b7f4e487b7100000000000000000000000000000000000000000000000000000000600052601260045260246000fd5b7f4e487b7100000000000000000000000000000000000000000000000000000000600052602260045260246000fd5b7f4e487b7100000000000000000000000000000000000000000000000000000000600052604160045260246000fd5b6000601f19601f8301169050919050565b612b4a8161296f565b8114612b5557600080fd5b50565b612b6181612981565b8114612b6c57600080fd5b50565b612b78816129ad565b8114612b8357600080fd5b5056fea2646970667358221220874ecfe40de9a5c0751a0d9c0e302efc6f93848b41b0e0caedda0ce10ac7917964736f6c63430008000033",
  "immutableReferences": {
    "159": [
      {
        "length": 32,
        "start": 877
      },
      {
        "length": 32,
        "start": 1057
      },
      {
        "length": 32,
        "start": 3978
      },
      {
        "length": 32,
        "start": 5749
      },
      {
        "length": 32,
        "start": 6990
      },
      {
        "length": 32,
        "start": 7485
      }
    ]
  },
  "source": "// SPDX-License-Identifier: GPL-3.0-only\npragma solidity ^0.8.0;\n\nimport \"@openzeppelin/contracts/token/ERC20/IERC20.sol\";\n\ncontract OptionsMarket {\n    // Admin access\n    address private owner;\n\n    // Option data\n    struct Option {\n        uint256 expiry;\n        string status; // none, exercised, collected\n        address writer;\n        address tokenAddress;\n        uint256 amount;\n        uint256 price;\n        string optionType; // call, put\n    }\n\n    uint256 private optionId;\n    mapping(uint256 => Option) private options;\n    mapping(uint256 => address) private optionOwners;\n\n    // Trade data\n    struct Trade {\n        address poster;\n        uint256 optionId;\n        uint256 price;\n        string status; // open, closed, cancelled\n    }\n\n    uint256 private tradeId;\n    mapping(uint256 => Trade) private trades;\n    address private immutable tradeCurrency;\n\n    constructor(address currency) {\n        // Set the owner as the deployer of the contract and set the currency of the trades\n        owner = msg.sender;\n        tradeCurrency = currency;\n    }\n\n    // Declare events for logging data\n    event OptionWritten(uint256 optionId, address indexed writer, string indexed optionType, address indexed tokenAddress);\n    event OptionExercised(uint256 optionId, address indexed writer, address indexed exerciser);\n    event TradeOpened(uint256 tradeId, uint256 indexed optionId, address indexed poster);\n    event TradeExecuted(uint256 tradeId, uint256 indexed optionId, address indexed buyer);\n\n    // ============= Util functions =============\n\n    // Compare if two strings are equal\n    function _compareStrings(string memory a, string memory b) private pure returns (bool) {\n        return keccak256(abi.encodePacked(a)) == keccak256(abi.encodePacked(b));\n    }\n\n    // ============= Option functions =============\n\n    // Allow the address to create a new option\n    function writeOption(string memory optionType, uint256 expiry, address tokenAddress, uint256 amount, uint256 price) public returns (uint256) {\n        // Check that the option is valid\n        require(_compareStrings(optionType, \"call\") || _compareStrings(optionType, \"put\"), \"Option type may only be 'call' or 'put'\");\n        require(expiry > block.timestamp, \"Expiry must be in the future\");\n\n        // Write a new option\n        Option memory option = Option({\n            expiry: expiry,\n            status: \"none\",\n            writer: msg.sender,\n            tokenAddress: tokenAddress,\n            amount: amount,\n            price: price,\n            optionType: optionType\n        });\n\n        // If this is a call then transfer the amount of the token to the contract,\n        // otherwise if a put then transfer the trade currency to the contract\n        if (_compareStrings(optionType, \"call\")) {\n            IERC20(tokenAddress).transferFrom(msg.sender, address(this), amount); \n        } else {\n            IERC20(tradeCurrency).transferFrom(msg.sender, address(this), price);\n        }\n\n        // Save the option\n        options[optionId] = option;\n        optionOwners[optionId] = msg.sender;\n        optionId++;\n\n        // Emit an event and return the id of the option\n        emit OptionWritten(optionId - 1, msg.sender, optionType, tokenAddress);\n        return optionId - 1;\n    }\n\n    // Get the data of an option\n    function getOption(uint256 _optionId) public view returns (uint256, string memory, address, address, uint256, uint256, string memory) {\n        Option memory option = options[_optionId];\n        return (option.expiry, option.status, option.writer, option.tokenAddress, option.amount, option.price, option.optionType);\n    }\n\n    // Allow a option holder to exercise their option\n    function exerciseOption(uint256 _optionId) public {\n        // Get the data of the option\n        Option memory option = options[_optionId];\n\n        // Check that the option may be exercised\n        require(option.expiry <= block.timestamp, \"Option has expired\");\n        require(_compareStrings(option.status, \"none\"), \"Option has already been exercised\");\n        require(optionOwners[_optionId] == msg.sender, \"Only the owner of the option may exercise it\");\n\n        // If the option is a call, then charge the user the premium to receive the tokens,\n        // else if the option is a put, transfer their tokens\n        if (_compareStrings(option.optionType, \"call\")) {\n            IERC20(tradeCurrency).transferFrom(msg.sender, option.writer, option.price);\n            IERC20(option.tokenAddress).transfer(msg.sender, option.amount);\n        } else {\n            IERC20(option.tokenAddress).transferFrom(msg.sender, option.writer, option.amount);\n            IERC20(tradeCurrency).transfer(msg.sender, option.price);\n        }\n\n        // Update the status of the option and emit event\n        options[_optionId].status = \"exercised\";\n        emit OptionExercised(_optionId, option.writer, msg.sender);\n    }\n\n    // Allow a writer to collect an expired contract\n    function collectExpired(uint256 _optionId) public {\n        // Get the data of the option\n        Option memory option = options[_optionId];\n\n        // Check that the option may be collected\n        require(option.expiry > block.timestamp, \"Option has not expired yet\");\n        require(_compareStrings(option.status, \"none\"), \"Option has already been exercised or collected\");\n        require(option.writer == msg.sender, \"Only the writer may collect an expired option\");\n\n        // If the option is a call then transfer the tokens back to the writer,\n        // otherwise transfer the price back to the writer\n        if (_compareStrings(option.optionType, \"call\")) {\n            IERC20(option.tokenAddress).transfer(msg.sender, option.amount);\n        } else {\n            IERC20(tradeCurrency).transfer(msg.sender, option.price);\n        }\n\n        // Update the status of the option\n        options[_optionId].status = \"collected\";\n    }\n\n    // ============= Marketplace functions =============\n\n    // Open a new trade for selling an option\n    function openTrade(uint256 _optionId, uint256 price) public returns (uint256) {\n        // Check that the trade may be opened\n        require(optionOwners[_optionId] == msg.sender, \"Only the owner of the option may open a trade for it\");\n\n        // Create a new trade\n        Trade memory trade = Trade({\n            poster: msg.sender,\n            optionId: _optionId,\n            price: price,\n            status: \"open\"\n        });\n\n        // Store the new trade\n        trades[tradeId] = trade;\n        tradeId++;\n\n        // Emit an event and return the trade id\n        emit TradeOpened(tradeId - 1, _optionId, msg.sender);\n        return tradeId - 1;\n    }\n\n    // Execute a trade for buying an option\n    function executeTrade(uint256 _tradeId) public {\n        // Get the trade\n        Trade memory trade = trades[_tradeId];\n\n        // Transfer the option\n        optionOwners[_tradeId] = msg.sender;\n\n        // Charge the recipient and pay a fee to the owner\n        uint256 fee = trade.price * 3 / 100; \n        uint256 payout = trade.price - fee;\n        IERC20(tradeCurrency).transferFrom(msg.sender, trade.poster, payout);\n        IERC20(tradeCurrency).transferFrom(msg.sender, owner, fee);\n\n        // Emit an event\n        emit TradeExecuted(_tradeId, trade.optionId, msg.sender);\n    }\n\n    // View a trade\n    function viewTrade(uint256 _tradeId) public view returns(address, uint256, uint256, string memory) {\n        Trade memory trade = trades[_tradeId];\n        return (trade.poster, trade.optionId, trade.price, trade.status);\n    }\n\n    // Cancel a trade\n    function cancelTrade(uint256 _tradeId) public {\n        // Get the trade\n        Trade memory trade = trades[_tradeId];\n\n        // Check that the poster of the trade is the sender\n        require(trade.poster == msg.sender, \"Only the poster may cancel a trade\");\n\n        // Cancel the trade\n        trades[_tradeId].status = \"cancelled\";\n    }\n}",
  "sourcePath": "/home/ben/Code/Crypto-Options/src/contracts/OptionsMarket.sol",
  "compiler": {
    "name": "solc",
    "version": "0.8.0+commit.c7dfd78e.Emscripten.clang"
  },
  "schemaVersion": "3.4.3",
  "updatedAt": "2021-09-20T10:22:31.441Z",
  "devdoc": {
    "kind": "dev",
    "methods": {},
    "version": 1
  },
  "userdoc": {
    "kind": "user",
    "methods": {},
    "version": 1
  }
}